{
	"contracts/contract3/bank.sol": {
		"Bank": {
			"abi": [
				{
					"inputs": [],
					"stateMutability": "nonpayable",
					"type": "constructor"
				},
				{
					"anonymous": false,
					"inputs": [
						{
							"indexed": true,
							"internalType": "address",
							"name": "accountAddress",
							"type": "address"
						},
						{
							"indexed": false,
							"internalType": "uint256",
							"name": "amount",
							"type": "uint256"
						}
					],
					"name": "Deposit",
					"type": "event"
				},
				{
					"anonymous": false,
					"inputs": [
						{
							"indexed": true,
							"internalType": "uint256",
							"name": "timestamp",
							"type": "uint256"
						}
					],
					"name": "ErrorEvent",
					"type": "event"
				},
				{
					"anonymous": false,
					"inputs": [
						{
							"indexed": true,
							"internalType": "address",
							"name": "accountAddress",
							"type": "address"
						},
						{
							"indexed": false,
							"internalType": "uint256",
							"name": "amount",
							"type": "uint256"
						}
					],
					"name": "Withdraw",
					"type": "event"
				},
				{
					"stateMutability": "nonpayable",
					"type": "fallback"
				},
				{
					"inputs": [
						{
							"internalType": "address",
							"name": "addr",
							"type": "address"
						}
					],
					"name": "DestroyingAccount",
					"outputs": [],
					"stateMutability": "nonpayable",
					"type": "function"
				},
				{
					"inputs": [
						{
							"internalType": "address",
							"name": "addr",
							"type": "address"
						}
					],
					"name": "addAdministrator",
					"outputs": [],
					"stateMutability": "nonpayable",
					"type": "function"
				},
				{
					"inputs": [
						{
							"internalType": "address",
							"name": "",
							"type": "address"
						}
					],
					"name": "dataBase",
					"outputs": [
						{
							"internalType": "uint256",
							"name": "balance",
							"type": "uint256"
						}
					],
					"stateMutability": "view",
					"type": "function"
				},
				{
					"inputs": [
						{
							"internalType": "address",
							"name": "adminAddress",
							"type": "address"
						}
					],
					"name": "deleteAdministrator",
					"outputs": [],
					"stateMutability": "nonpayable",
					"type": "function"
				},
				{
					"inputs": [],
					"name": "getAdministratorList",
					"outputs": [
						{
							"internalType": "address[]",
							"name": "",
							"type": "address[]"
						}
					],
					"stateMutability": "view",
					"type": "function"
				},
				{
					"inputs": [],
					"name": "getBalance",
					"outputs": [
						{
							"internalType": "uint256",
							"name": "",
							"type": "uint256"
						}
					],
					"stateMutability": "view",
					"type": "function"
				},
				{
					"inputs": [],
					"name": "getUserList",
					"outputs": [
						{
							"internalType": "address[]",
							"name": "",
							"type": "address[]"
						}
					],
					"stateMutability": "view",
					"type": "function"
				},
				{
					"inputs": [
						{
							"internalType": "uint256",
							"name": "value",
							"type": "uint256"
						}
					],
					"name": "withdraw",
					"outputs": [],
					"stateMutability": "payable",
					"type": "function"
				},
				{
					"inputs": [],
					"name": "withdrawAll",
					"outputs": [],
					"stateMutability": "payable",
					"type": "function"
				},
				{
					"stateMutability": "payable",
					"type": "receive"
				}
			],
			"devdoc": {
				"kind": "dev",
				"methods": {},
				"version": 1
			},
			"evm": {
				"assembly": "    /* \"contracts/contract3/bank.sol\":61:6937  contract Bank {... */\n  mstore(0x40, 0xa0)\n    /* \"contracts/contract3/bank.sol\":803:881  constructor() {... */\n  callvalue\n  dup1\n  iszero\n  tag_1\n  jumpi\n  0x00\n  dup1\n  revert\ntag_1:\n  pop\n    /* \"contracts/contract3/bank.sol\":864:874  msg.sender */\n  caller\n    /* \"contracts/contract3/bank.sol\":856:874  owner = msg.sender */\n  0xffffffffffffffffffffffffffffffffffffffff\n  and\n  0x80\n  dup2\n  0xffffffffffffffffffffffffffffffffffffffff\n  and\n  dup2\n  mstore\n  pop\n  pop\n    /* \"contracts/contract3/bank.sol\":61:6937  contract Bank {... */\n  mload(0x80)\n  codecopy(0x00, dataOffset(sub_0), dataSize(sub_0))\n  0x00\n  assignImmutable(\"0x2a80e1ef1d7842f27f2e6be0972bb708b9a135c38860dbe73c27c3486c34f4de\")\n  return(0x00, dataSize(sub_0))\nstop\n\nsub_0: assembly {\n        /* \"contracts/contract3/bank.sol\":61:6937  contract Bank {... */\n      mstore(0x40, 0x80)\n      jumpi(tag_1, lt(calldatasize, 0x04))\n      shr(0xe0, calldataload(0x00))\n      dup1\n      0x51b2faf6\n      gt\n      tag_12\n      jumpi\n      dup1\n      0x51b2faf6\n      eq\n      tag_7\n      jumpi\n      dup1\n      0x853828b6\n      eq\n      tag_8\n      jumpi\n      dup1\n      0xb8522043\n      eq\n      tag_9\n      jumpi\n      dup1\n      0xc9991176\n      eq\n      tag_10\n      jumpi\n      dup1\n      0xdc7154cb\n      eq\n      tag_11\n      jumpi\n      jump(tag_2)\n    tag_12:\n      dup1\n      0x12065fe0\n      eq\n      tag_3\n      jumpi\n      dup1\n      0x12f56410\n      eq\n      tag_4\n      jumpi\n      dup1\n      0x2532b598\n      eq\n      tag_5\n      jumpi\n      dup1\n      0x2e1a7d4d\n      eq\n      tag_6\n      jumpi\n      jump(tag_2)\n    tag_1:\n      jumpi(tag_2, calldatasize)\n        /* \"contracts/contract3/bank.sol\":2948:2974  addUserAddress(msg.sender) */\n      tag_15\n        /* \"contracts/contract3/bank.sol\":2963:2973  msg.sender */\n      caller\n        /* \"contracts/contract3/bank.sol\":2948:2962  addUserAddress */\n      tag_16\n        /* \"contracts/contract3/bank.sol\":2948:2974  addUserAddress(msg.sender) */\n      jump\t// in\n    tag_15:\n        /* \"contracts/contract3/bank.sol\":3030:3039  msg.value */\n      callvalue\n        /* \"contracts/contract3/bank.sol\":2998:3006  dataBase */\n      0x02\n        /* \"contracts/contract3/bank.sol\":2998:3018  dataBase[msg.sender] */\n      0x00\n        /* \"contracts/contract3/bank.sol\":3007:3017  msg.sender */\n      caller\n        /* \"contracts/contract3/bank.sol\":2998:3018  dataBase[msg.sender] */\n      0xffffffffffffffffffffffffffffffffffffffff\n      and\n      0xffffffffffffffffffffffffffffffffffffffff\n      and\n      dup2\n      mstore\n      0x20\n      add\n      swap1\n      dup2\n      mstore\n      0x20\n      add\n      0x00\n      keccak256\n        /* \"contracts/contract3/bank.sol\":2998:3026  dataBase[msg.sender].balance */\n      0x00\n      add\n      0x00\n        /* \"contracts/contract3/bank.sol\":2998:3039  dataBase[msg.sender].balance += msg.value */\n      dup3\n      dup3\n      sload\n      tag_17\n      swap2\n      swap1\n      tag_18\n      jump\t// in\n    tag_17:\n      swap3\n      pop\n      pop\n      dup2\n      swap1\n      sstore\n      pop\n        /* \"contracts/contract3/bank.sol\":3049:3057  dataBase */\n      0x02\n        /* \"contracts/contract3/bank.sol\":3049:3069  dataBase[msg.sender] */\n      0x00\n        /* \"contracts/contract3/bank.sol\":3058:3068  msg.sender */\n      caller\n        /* \"contracts/contract3/bank.sol\":3049:3069  dataBase[msg.sender] */\n      0xffffffffffffffffffffffffffffffffffffffff\n      and\n      0xffffffffffffffffffffffffffffffffffffffff\n      and\n      dup2\n      mstore\n      0x20\n      add\n      swap1\n      dup2\n      mstore\n      0x20\n      add\n      0x00\n      keccak256\n        /* \"contracts/contract3/bank.sol\":3049:3084  dataBase[msg.sender].transactionLog */\n      0x01\n      add\n        /* \"contracts/contract3/bank.sol\":3103:3249  TransactionInfo({... */\n      mload(0x40)\n      dup1\n      0x60\n      add\n      0x40\n      mstore\n      dup1\n        /* \"contracts/contract3/bank.sol\":3148:3163  block.timestamp */\n      timestamp\n        /* \"contracts/contract3/bank.sol\":3103:3249  TransactionInfo({... */\n      dup2\n      mstore\n      0x20\n      add\n      mload(0x40)\n      dup1\n      0x40\n      add\n      0x40\n      mstore\n      dup1\n      0x07\n      dup2\n      mstore\n      0x20\n      add\n      0x6465706f73697400000000000000000000000000000000000000000000000000\n      dup2\n      mstore\n      pop\n      dup2\n      mstore\n      0x20\n      add\n        /* \"contracts/contract3/bank.sol\":3225:3234  msg.value */\n      callvalue\n        /* \"contracts/contract3/bank.sol\":3103:3249  TransactionInfo({... */\n      dup2\n      mstore\n      pop\n        /* \"contracts/contract3/bank.sol\":3049:3259  dataBase[msg.sender].transactionLog.push(... */\n      swap1\n      dup1\n      0x01\n      dup2\n      sload\n      add\n      dup1\n      dup3\n      sstore\n      dup1\n      swap2\n      pop\n      pop\n      0x01\n      swap1\n      sub\n      swap1\n      0x00\n      mstore\n      keccak256(0x00, 0x20)\n      swap1\n      0x03\n      mul\n      add\n      0x00\n      swap1\n      swap2\n      swap1\n      swap2\n      swap1\n      swap2\n      pop\n      0x00\n      dup3\n      add\n      mload\n      dup2\n      0x00\n      add\n      sstore\n      0x20\n      dup3\n      add\n      mload\n      dup2\n      0x01\n      add\n      swap1\n      dup2\n      tag_20\n      swap2\n      swap1\n      tag_21\n      jump\t// in\n    tag_20:\n      pop\n      0x40\n      dup3\n      add\n      mload\n      dup2\n      0x02\n      add\n      sstore\n      pop\n      pop\n        /* \"contracts/contract3/bank.sol\":3283:3293  msg.sender */\n      caller\n        /* \"contracts/contract3/bank.sol\":3275:3305  Deposit(msg.sender, msg.value) */\n      0xffffffffffffffffffffffffffffffffffffffff\n      and\n      0xe1fffcc4923d04b559f4d29a8bfc6cda04eb5b0d3c460751c2402c5c5cc9109c\n        /* \"contracts/contract3/bank.sol\":3295:3304  msg.value */\n      callvalue\n        /* \"contracts/contract3/bank.sol\":3275:3305  Deposit(msg.sender, msg.value) */\n      mload(0x40)\n      tag_22\n      swap2\n      swap1\n      tag_23\n      jump\t// in\n    tag_22:\n      mload(0x40)\n      dup1\n      swap2\n      sub\n      swap1\n      log2\n        /* \"contracts/contract3/bank.sol\":61:6937  contract Bank {... */\n      stop\n    tag_2:\n      callvalue\n      dup1\n      iszero\n      tag_24\n      jumpi\n      0x00\n      dup1\n      revert\n    tag_24:\n      pop\n        /* \"contracts/contract3/bank.sol\":6874:6889  block.timestamp */\n      timestamp\n        /* \"contracts/contract3/bank.sol\":6863:6890  ErrorEvent(block.timestamp) */\n      0xcd144e787ad9720024b4575b2983b8b7065772b9723503e3c0a2b1c30c1478b5\n      mload(0x40)\n      mload(0x40)\n      dup1\n      swap2\n      sub\n      swap1\n      log2\n        /* \"contracts/contract3/bank.sol\":6900:6928  revert(\"error in operation\") */\n      mload(0x40)\n      0x08c379a000000000000000000000000000000000000000000000000000000000\n      dup2\n      mstore\n      0x04\n      add\n      tag_27\n      swap1\n      tag_28\n      jump\t// in\n    tag_27:\n      mload(0x40)\n      dup1\n      swap2\n      sub\n      swap1\n      revert\n        /* \"contracts/contract3/bank.sol\":4776:4873  function getBalance() public view returns (uint256) {... */\n    tag_3:\n      callvalue\n      dup1\n      iszero\n      tag_29\n      jumpi\n      0x00\n      dup1\n      revert\n    tag_29:\n      pop\n      tag_30\n      tag_31\n      jump\t// in\n    tag_30:\n      mload(0x40)\n      tag_32\n      swap2\n      swap1\n      tag_23\n      jump\t// in\n    tag_32:\n      mload(0x40)\n      dup1\n      swap2\n      sub\n      swap1\n      return\n        /* \"contracts/contract3/bank.sol\":598:642  mapping(address => UserInfo) public dataBase */\n    tag_4:\n      callvalue\n      dup1\n      iszero\n      tag_33\n      jumpi\n      0x00\n      dup1\n      revert\n    tag_33:\n      pop\n      tag_34\n      0x04\n      dup1\n      calldatasize\n      sub\n      dup2\n      add\n      swap1\n      tag_35\n      swap2\n      swap1\n      tag_36\n      jump\t// in\n    tag_35:\n      tag_37\n      jump\t// in\n    tag_34:\n      mload(0x40)\n      tag_38\n      swap2\n      swap1\n      tag_23\n      jump\t// in\n    tag_38:\n      mload(0x40)\n      dup1\n      swap2\n      sub\n      swap1\n      return\n        /* \"contracts/contract3/bank.sol\":6461:6822  function DestroyingAccount(address addr) public onlyOwner {... */\n    tag_5:\n      callvalue\n      dup1\n      iszero\n      tag_39\n      jumpi\n      0x00\n      dup1\n      revert\n    tag_39:\n      pop\n      tag_40\n      0x04\n      dup1\n      calldatasize\n      sub\n      dup2\n      add\n      swap1\n      tag_41\n      swap2\n      swap1\n      tag_36\n      jump\t// in\n    tag_41:\n      tag_42\n      jump\t// in\n    tag_40:\n      stop\n        /* \"contracts/contract3/bank.sol\":3331:4037  function withdraw(uint256 value) public payable nonReentrant {... */\n    tag_6:\n      tag_43\n      0x04\n      dup1\n      calldatasize\n      sub\n      dup2\n      add\n      swap1\n      tag_44\n      swap2\n      swap1\n      tag_45\n      jump\t// in\n    tag_44:\n      tag_46\n      jump\t// in\n    tag_43:\n      stop\n        /* \"contracts/contract3/bank.sol\":6276:6442  function getAdministratorList()... */\n    tag_7:\n      callvalue\n      dup1\n      iszero\n      tag_47\n      jumpi\n      0x00\n      dup1\n      revert\n    tag_47:\n      pop\n      tag_48\n      tag_49\n      jump\t// in\n    tag_48:\n      mload(0x40)\n      tag_50\n      swap2\n      swap1\n      tag_51\n      jump\t// in\n    tag_50:\n      mload(0x40)\n      dup1\n      swap2\n      sub\n      swap1\n      return\n        /* \"contracts/contract3/bank.sol\":4062:4742  function withdrawAll() public payable nonReentrant {... */\n    tag_8:\n      tag_52\n      tag_53\n      jump\t// in\n    tag_52:\n      stop\n        /* \"contracts/contract3/bank.sol\":4904:5060  function getUserList()... */\n    tag_9:\n      callvalue\n      dup1\n      iszero\n      tag_54\n      jumpi\n      0x00\n      dup1\n      revert\n    tag_54:\n      pop\n      tag_55\n      tag_56\n      jump\t// in\n    tag_55:\n      mload(0x40)\n      tag_57\n      swap2\n      swap1\n      tag_51\n      jump\t// in\n    tag_57:\n      mload(0x40)\n      dup1\n      swap2\n      sub\n      swap1\n      return\n        /* \"contracts/contract3/bank.sol\":5088:5328  function addAdministrator(address addr) public onlyOwner {... */\n    tag_10:\n      callvalue\n      dup1\n      iszero\n      tag_58\n      jumpi\n      0x00\n      dup1\n      revert\n    tag_58:\n      pop\n      tag_59\n      0x04\n      dup1\n      calldatasize\n      sub\n      dup2\n      add\n      swap1\n      tag_60\n      swap2\n      swap1\n      tag_36\n      jump\t// in\n    tag_60:\n      tag_61\n      jump\t// in\n    tag_59:\n      stop\n        /* \"contracts/contract3/bank.sol\":5356:6242  function deleteAdministrator(address adminAddress) public onlyOwner {... */\n    tag_11:\n      callvalue\n      dup1\n      iszero\n      tag_62\n      jumpi\n      0x00\n      dup1\n      revert\n    tag_62:\n      pop\n      tag_63\n      0x04\n      dup1\n      calldatasize\n      sub\n      dup2\n      add\n      swap1\n      tag_64\n      swap2\n      swap1\n      tag_36\n      jump\t// in\n    tag_64:\n      tag_65\n      jump\t// in\n    tag_63:\n      stop\n        /* \"contracts/contract3/bank.sol\":912:1132  function addUserAddress(address userAddress) private {... */\n    tag_16:\n        /* \"contracts/contract3/bank.sol\":1064:1065  0 */\n      0x00\n        /* \"contracts/contract3/bank.sol\":1017:1025  dataBase */\n      0x02\n        /* \"contracts/contract3/bank.sol\":1017:1038  dataBase[userAddress] */\n      0x00\n        /* \"contracts/contract3/bank.sol\":1026:1037  userAddress */\n      dup4\n        /* \"contracts/contract3/bank.sol\":1017:1038  dataBase[userAddress] */\n      0xffffffffffffffffffffffffffffffffffffffff\n      and\n      0xffffffffffffffffffffffffffffffffffffffff\n      and\n      dup2\n      mstore\n      0x20\n      add\n      swap1\n      dup2\n      mstore\n      0x20\n      add\n      0x00\n      keccak256\n        /* \"contracts/contract3/bank.sol\":1017:1053  dataBase[userAddress].transactionLog */\n      0x01\n      add\n        /* \"contracts/contract3/bank.sol\":1017:1060  dataBase[userAddress].transactionLog.length */\n      dup1\n      sload\n      swap1\n      pop\n        /* \"contracts/contract3/bank.sol\":1017:1065  dataBase[userAddress].transactionLog.length == 0 */\n      sub\n        /* \"contracts/contract3/bank.sol\":1013:1126  if (dataBase[userAddress].transactionLog.length == 0) {... */\n      tag_67\n      jumpi\n        /* \"contracts/contract3/bank.sol\":1081:1097  allUserAddresses */\n      0x03\n        /* \"contracts/contract3/bank.sol\":1103:1114  userAddress */\n      dup2\n        /* \"contracts/contract3/bank.sol\":1081:1115  allUserAddresses.push(userAddress) */\n      swap1\n      dup1\n      0x01\n      dup2\n      sload\n      add\n      dup1\n      dup3\n      sstore\n      dup1\n      swap2\n      pop\n      pop\n      0x01\n      swap1\n      sub\n      swap1\n      0x00\n      mstore\n      keccak256(0x00, 0x20)\n      add\n      0x00\n      swap1\n      swap2\n      swap1\n      swap2\n      swap1\n      swap2\n      0x0100\n      exp\n      dup2\n      sload\n      dup2\n      0xffffffffffffffffffffffffffffffffffffffff\n      mul\n      not\n      and\n      swap1\n      dup4\n      0xffffffffffffffffffffffffffffffffffffffff\n      and\n      mul\n      or\n      swap1\n      sstore\n      pop\n        /* \"contracts/contract3/bank.sol\":1013:1126  if (dataBase[userAddress].transactionLog.length == 0) {... */\n    tag_67:\n        /* \"contracts/contract3/bank.sol\":912:1132  function addUserAddress(address userAddress) private {... */\n      pop\n      jump\t// out\n        /* \"contracts/contract3/bank.sol\":4776:4873  function getBalance() public view returns (uint256) {... */\n    tag_31:\n        /* \"contracts/contract3/bank.sol\":4819:4826  uint256 */\n      0x00\n        /* \"contracts/contract3/bank.sol\":4845:4866  address(this).balance */\n      selfbalance\n        /* \"contracts/contract3/bank.sol\":4838:4866  return address(this).balance */\n      swap1\n      pop\n        /* \"contracts/contract3/bank.sol\":4776:4873  function getBalance() public view returns (uint256) {... */\n      swap1\n      jump\t// out\n        /* \"contracts/contract3/bank.sol\":598:642  mapping(address => UserInfo) public dataBase */\n    tag_37:\n      mstore(0x20, 0x02)\n      dup1\n      0x00\n      mstore\n      keccak256(0x00, 0x40)\n      0x00\n      swap2\n      pop\n      swap1\n      pop\n      dup1\n      0x00\n      add\n      sload\n      swap1\n      pop\n      dup2\n      jump\t// out\n        /* \"contracts/contract3/bank.sol\":6461:6822  function DestroyingAccount(address addr) public onlyOwner {... */\n    tag_42:\n        /* \"contracts/contract3/bank.sol\":2271:2276  owner */\n      immutable(\"0x2a80e1ef1d7842f27f2e6be0972bb708b9a135c38860dbe73c27c3486c34f4de\")\n        /* \"contracts/contract3/bank.sol\":2257:2276  msg.sender == owner */\n      0xffffffffffffffffffffffffffffffffffffffff\n      and\n        /* \"contracts/contract3/bank.sol\":2257:2267  msg.sender */\n      caller\n        /* \"contracts/contract3/bank.sol\":2257:2276  msg.sender == owner */\n      0xffffffffffffffffffffffffffffffffffffffff\n      and\n      eq\n        /* \"contracts/contract3/bank.sol\":2249:2291  require(msg.sender == owner, \"Forbidden.\") */\n      tag_71\n      jumpi\n      mload(0x40)\n      0x08c379a000000000000000000000000000000000000000000000000000000000\n      dup2\n      mstore\n      0x04\n      add\n      tag_72\n      swap1\n      tag_73\n      jump\t// in\n    tag_72:\n      mload(0x40)\n      dup1\n      swap2\n      sub\n      swap1\n      revert\n    tag_71:\n        /* \"contracts/contract3/bank.sol\":6563:6578  uint256 balance */\n      0x00\n        /* \"contracts/contract3/bank.sol\":6581:6589  dataBase */\n      0x02\n        /* \"contracts/contract3/bank.sol\":6581:6595  dataBase[addr] */\n      0x00\n        /* \"contracts/contract3/bank.sol\":6590:6594  addr */\n      dup4\n        /* \"contracts/contract3/bank.sol\":6581:6595  dataBase[addr] */\n      0xffffffffffffffffffffffffffffffffffffffff\n      and\n      0xffffffffffffffffffffffffffffffffffffffff\n      and\n      dup2\n      mstore\n      0x20\n      add\n      swap1\n      dup2\n      mstore\n      0x20\n      add\n      0x00\n      keccak256\n        /* \"contracts/contract3/bank.sol\":6581:6603  dataBase[addr].balance */\n      0x00\n      add\n      sload\n        /* \"contracts/contract3/bank.sol\":6563:6603  uint256 balance = dataBase[addr].balance */\n      swap1\n      pop\n        /* \"contracts/contract3/bank.sol\":6627:6628  0 */\n      0x00\n        /* \"contracts/contract3/bank.sol\":6617:6624  balance */\n      dup2\n        /* \"contracts/contract3/bank.sol\":6617:6628  balance > 0 */\n      gt\n        /* \"contracts/contract3/bank.sol\":6613:6761  if (balance > 0) {... */\n      iszero\n      tag_75\n      jumpi\n        /* \"contracts/contract3/bank.sol\":6645:6657  bool success */\n      0x00\n        /* \"contracts/contract3/bank.sol\":6671:6675  addr */\n      dup3\n        /* \"contracts/contract3/bank.sol\":6663:6681  payable(addr).call */\n      0xffffffffffffffffffffffffffffffffffffffff\n      and\n        /* \"contracts/contract3/bank.sol\":6689:6696  balance */\n      dup3\n        /* \"contracts/contract3/bank.sol\":6663:6701  payable(addr).call{value: balance}(\"\") */\n      mload(0x40)\n      tag_76\n      swap1\n      tag_77\n      jump\t// in\n    tag_76:\n      0x00\n      mload(0x40)\n      dup1\n      dup4\n      sub\n      dup2\n      dup6\n      dup8\n      gas\n      call\n      swap3\n      pop\n      pop\n      pop\n      returndatasize\n      dup1\n      0x00\n      dup2\n      eq\n      tag_80\n      jumpi\n      mload(0x40)\n      swap2\n      pop\n      and(add(returndatasize, 0x3f), not(0x1f))\n      dup3\n      add\n      0x40\n      mstore\n      returndatasize\n      dup3\n      mstore\n      returndatasize\n      0x00\n      0x20\n      dup5\n      add\n      returndatacopy\n      jump(tag_79)\n    tag_80:\n      0x60\n      swap2\n      pop\n    tag_79:\n      pop\n        /* \"contracts/contract3/bank.sol\":6644:6701  (bool success, ) = payable(addr).call{value: balance}(\"\") */\n      pop\n      swap1\n      pop\n        /* \"contracts/contract3/bank.sol\":6723:6730  success */\n      dup1\n        /* \"contracts/contract3/bank.sol\":6715:6750  require(success, \"Transfer failed\") */\n      tag_81\n      jumpi\n      mload(0x40)\n      0x08c379a000000000000000000000000000000000000000000000000000000000\n      dup2\n      mstore\n      0x04\n      add\n      tag_82\n      swap1\n      tag_83\n      jump\t// in\n    tag_82:\n      mload(0x40)\n      dup1\n      swap2\n      sub\n      swap1\n      revert\n    tag_81:\n        /* \"contracts/contract3/bank.sol\":6630:6761  {... */\n      pop\n        /* \"contracts/contract3/bank.sol\":6613:6761  if (balance > 0) {... */\n    tag_75:\n        /* \"contracts/contract3/bank.sol\":6793:6815  delUserAddresses(addr) */\n      tag_84\n        /* \"contracts/contract3/bank.sol\":6810:6814  addr */\n      dup3\n        /* \"contracts/contract3/bank.sol\":6793:6809  delUserAddresses */\n      tag_85\n        /* \"contracts/contract3/bank.sol\":6793:6815  delUserAddresses(addr) */\n      jump\t// in\n    tag_84:\n        /* \"contracts/contract3/bank.sol\":6519:6822  {... */\n      pop\n        /* \"contracts/contract3/bank.sol\":6461:6822  function DestroyingAccount(address addr) public onlyOwner {... */\n      pop\n      jump\t// out\n        /* \"contracts/contract3/bank.sol\":3331:4037  function withdraw(uint256 value) public payable nonReentrant {... */\n    tag_46:\n        /* \"contracts/contract3/bank.sol\":2648:2649  0 */\n      0x00\n        /* \"contracts/contract3/bank.sol\":2637:2644  _status */\n      sload(0x01)\n        /* \"contracts/contract3/bank.sol\":2637:2649  _status == 0 */\n      eq\n        /* \"contracts/contract3/bank.sol\":2629:2685  require(_status == 0, \"ReentrancyGuard: reentrant call\") */\n      tag_87\n      jumpi\n      mload(0x40)\n      0x08c379a000000000000000000000000000000000000000000000000000000000\n      dup2\n      mstore\n      0x04\n      add\n      tag_88\n      swap1\n      tag_89\n      jump\t// in\n    tag_88:\n      mload(0x40)\n      dup1\n      swap2\n      sub\n      swap1\n      revert\n    tag_87:\n        /* \"contracts/contract3/bank.sol\":2773:2774  1 */\n      0x01\n        /* \"contracts/contract3/bank.sol\":2763:2770  _status */\n      dup1\n        /* \"contracts/contract3/bank.sol\":2763:2774  _status = 1 */\n      dup2\n      swap1\n      sstore\n      pop\n        /* \"contracts/contract3/bank.sol\":3419:3434  uint256 balance */\n      0x00\n        /* \"contracts/contract3/bank.sol\":3437:3445  dataBase */\n      0x02\n        /* \"contracts/contract3/bank.sol\":3437:3457  dataBase[msg.sender] */\n      0x00\n        /* \"contracts/contract3/bank.sol\":3446:3456  msg.sender */\n      caller\n        /* \"contracts/contract3/bank.sol\":3437:3457  dataBase[msg.sender] */\n      0xffffffffffffffffffffffffffffffffffffffff\n      and\n      0xffffffffffffffffffffffffffffffffffffffff\n      and\n      dup2\n      mstore\n      0x20\n      add\n      swap1\n      dup2\n      mstore\n      0x20\n      add\n      0x00\n      keccak256\n        /* \"contracts/contract3/bank.sol\":3437:3465  dataBase[msg.sender].balance */\n      0x00\n      add\n      sload\n        /* \"contracts/contract3/bank.sol\":3419:3465  uint256 balance = dataBase[msg.sender].balance */\n      swap1\n      pop\n        /* \"contracts/contract3/bank.sol\":3532:3537  value */\n      dup2\n        /* \"contracts/contract3/bank.sol\":3521:3528  balance */\n      dup2\n        /* \"contracts/contract3/bank.sol\":3521:3537  balance >= value */\n      lt\n      iszero\n        /* \"contracts/contract3/bank.sol\":3513:3562  require(balance >= value, \"not sufficient funds\") */\n      tag_91\n      jumpi\n      mload(0x40)\n      0x08c379a000000000000000000000000000000000000000000000000000000000\n      dup2\n      mstore\n      0x04\n      add\n      tag_92\n      swap1\n      tag_93\n      jump\t// in\n    tag_92:\n      mload(0x40)\n      dup1\n      swap2\n      sub\n      swap1\n      revert\n    tag_91:\n        /* \"contracts/contract3/bank.sol\":3591:3603  bool success */\n      0x00\n        /* \"contracts/contract3/bank.sol\":3617:3627  msg.sender */\n      caller\n        /* \"contracts/contract3/bank.sol\":3609:3633  payable(msg.sender).call */\n      0xffffffffffffffffffffffffffffffffffffffff\n      and\n        /* \"contracts/contract3/bank.sol\":3641:3646  value */\n      dup4\n        /* \"contracts/contract3/bank.sol\":3609:3651  payable(msg.sender).call{value: value}(\"\") */\n      mload(0x40)\n      tag_94\n      swap1\n      tag_77\n      jump\t// in\n    tag_94:\n      0x00\n      mload(0x40)\n      dup1\n      dup4\n      sub\n      dup2\n      dup6\n      dup8\n      gas\n      call\n      swap3\n      pop\n      pop\n      pop\n      returndatasize\n      dup1\n      0x00\n      dup2\n      eq\n      tag_97\n      jumpi\n      mload(0x40)\n      swap2\n      pop\n      and(add(returndatasize, 0x3f), not(0x1f))\n      dup3\n      add\n      0x40\n      mstore\n      returndatasize\n      dup3\n      mstore\n      returndatasize\n      0x00\n      0x20\n      dup5\n      add\n      returndatacopy\n      jump(tag_96)\n    tag_97:\n      0x60\n      swap2\n      pop\n    tag_96:\n      pop\n        /* \"contracts/contract3/bank.sol\":3590:3651  (bool success, ) = payable(msg.sender).call{value: value}(\"\") */\n      pop\n      swap1\n      pop\n        /* \"contracts/contract3/bank.sol\":3669:3676  success */\n      dup1\n        /* \"contracts/contract3/bank.sol\":3661:3696  require(success, \"Transfer failed\") */\n      tag_98\n      jumpi\n      mload(0x40)\n      0x08c379a000000000000000000000000000000000000000000000000000000000\n      dup2\n      mstore\n      0x04\n      add\n      tag_99\n      swap1\n      tag_83\n      jump\t// in\n    tag_99:\n      mload(0x40)\n      dup1\n      swap2\n      sub\n      swap1\n      revert\n    tag_98:\n        /* \"contracts/contract3/bank.sol\":3765:3770  value */\n      dup3\n        /* \"contracts/contract3/bank.sol\":3755:3762  balance */\n      dup3\n        /* \"contracts/contract3/bank.sol\":3755:3770  balance - value */\n      tag_100\n      swap2\n      swap1\n      tag_101\n      jump\t// in\n    tag_100:\n        /* \"contracts/contract3/bank.sol\":3724:3732  dataBase */\n      0x02\n        /* \"contracts/contract3/bank.sol\":3724:3744  dataBase[msg.sender] */\n      0x00\n        /* \"contracts/contract3/bank.sol\":3733:3743  msg.sender */\n      caller\n        /* \"contracts/contract3/bank.sol\":3724:3744  dataBase[msg.sender] */\n      0xffffffffffffffffffffffffffffffffffffffff\n      and\n      0xffffffffffffffffffffffffffffffffffffffff\n      and\n      dup2\n      mstore\n      0x20\n      add\n      swap1\n      dup2\n      mstore\n      0x20\n      add\n      0x00\n      keccak256\n        /* \"contracts/contract3/bank.sol\":3724:3752  dataBase[msg.sender].balance */\n      0x00\n      add\n        /* \"contracts/contract3/bank.sol\":3724:3770  dataBase[msg.sender].balance = balance - value */\n      dup2\n      swap1\n      sstore\n      pop\n        /* \"contracts/contract3/bank.sol\":3780:3788  dataBase */\n      0x02\n        /* \"contracts/contract3/bank.sol\":3780:3800  dataBase[msg.sender] */\n      0x00\n        /* \"contracts/contract3/bank.sol\":3789:3799  msg.sender */\n      caller\n        /* \"contracts/contract3/bank.sol\":3780:3800  dataBase[msg.sender] */\n      0xffffffffffffffffffffffffffffffffffffffff\n      and\n      0xffffffffffffffffffffffffffffffffffffffff\n      and\n      dup2\n      mstore\n      0x20\n      add\n      swap1\n      dup2\n      mstore\n      0x20\n      add\n      0x00\n      keccak256\n        /* \"contracts/contract3/bank.sol\":3780:3815  dataBase[msg.sender].transactionLog */\n      0x01\n      add\n        /* \"contracts/contract3/bank.sol\":3834:3977  TransactionInfo({... */\n      mload(0x40)\n      dup1\n      0x60\n      add\n      0x40\n      mstore\n      dup1\n        /* \"contracts/contract3/bank.sol\":3879:3894  block.timestamp */\n      timestamp\n        /* \"contracts/contract3/bank.sol\":3834:3977  TransactionInfo({... */\n      dup2\n      mstore\n      0x20\n      add\n      mload(0x40)\n      dup1\n      0x40\n      add\n      0x40\n      mstore\n      dup1\n      0x08\n      dup2\n      mstore\n      0x20\n      add\n      0x7769746864726177000000000000000000000000000000000000000000000000\n      dup2\n      mstore\n      pop\n      dup2\n      mstore\n      0x20\n      add\n        /* \"contracts/contract3/bank.sol\":3957:3962  value */\n      dup6\n        /* \"contracts/contract3/bank.sol\":3834:3977  TransactionInfo({... */\n      dup2\n      mstore\n      pop\n        /* \"contracts/contract3/bank.sol\":3780:3987  dataBase[msg.sender].transactionLog.push(... */\n      swap1\n      dup1\n      0x01\n      dup2\n      sload\n      add\n      dup1\n      dup3\n      sstore\n      dup1\n      swap2\n      pop\n      pop\n      0x01\n      swap1\n      sub\n      swap1\n      0x00\n      mstore\n      keccak256(0x00, 0x20)\n      swap1\n      0x03\n      mul\n      add\n      0x00\n      swap1\n      swap2\n      swap1\n      swap2\n      swap1\n      swap2\n      pop\n      0x00\n      dup3\n      add\n      mload\n      dup2\n      0x00\n      add\n      sstore\n      0x20\n      dup3\n      add\n      mload\n      dup2\n      0x01\n      add\n      swap1\n      dup2\n      tag_103\n      swap2\n      swap1\n      tag_21\n      jump\t// in\n    tag_103:\n      pop\n      0x40\n      dup3\n      add\n      mload\n      dup2\n      0x02\n      add\n      sstore\n      pop\n      pop\n        /* \"contracts/contract3/bank.sol\":4012:4022  msg.sender */\n      caller\n        /* \"contracts/contract3/bank.sol\":4003:4030  Withdraw(msg.sender, value) */\n      0xffffffffffffffffffffffffffffffffffffffff\n      and\n      0x884edad9ce6fa2440d8a54cc123490eb96d2768479d49ff9c7366125a9424364\n        /* \"contracts/contract3/bank.sol\":4024:4029  value */\n      dup5\n        /* \"contracts/contract3/bank.sol\":4003:4030  Withdraw(msg.sender, value) */\n      mload(0x40)\n      tag_104\n      swap2\n      swap1\n      tag_23\n      jump\t// in\n    tag_104:\n      mload(0x40)\n      dup1\n      swap2\n      sub\n      swap1\n      log2\n        /* \"contracts/contract3/bank.sol\":3392:4037  {... */\n      pop\n      pop\n        /* \"contracts/contract3/bank.sol\":2854:2855  0 */\n      0x00\n        /* \"contracts/contract3/bank.sol\":2844:2851  _status */\n      0x01\n        /* \"contracts/contract3/bank.sol\":2844:2855  _status = 0 */\n      dup2\n      swap1\n      sstore\n      pop\n        /* \"contracts/contract3/bank.sol\":3331:4037  function withdraw(uint256 value) public payable nonReentrant {... */\n      pop\n      jump\t// out\n        /* \"contracts/contract3/bank.sol\":6276:6442  function getAdministratorList()... */\n    tag_49:\n        /* \"contracts/contract3/bank.sol\":6379:6395  address[] memory */\n      0x60\n        /* \"contracts/contract3/bank.sol\":2417:2422  owner */\n      immutable(\"0x2a80e1ef1d7842f27f2e6be0972bb708b9a135c38860dbe73c27c3486c34f4de\")\n        /* \"contracts/contract3/bank.sol\":2403:2422  msg.sender == owner */\n      0xffffffffffffffffffffffffffffffffffffffff\n      and\n        /* \"contracts/contract3/bank.sol\":2403:2413  msg.sender */\n      caller\n        /* \"contracts/contract3/bank.sol\":2403:2422  msg.sender == owner */\n      0xffffffffffffffffffffffffffffffffffffffff\n      and\n      eq\n        /* \"contracts/contract3/bank.sol\":2403:2452  msg.sender == owner || administrators[msg.sender] */\n      dup1\n      tag_106\n      jumpi\n      pop\n        /* \"contracts/contract3/bank.sol\":2426:2440  administrators */\n      0x00\n        /* \"contracts/contract3/bank.sol\":2426:2452  administrators[msg.sender] */\n      dup1\n        /* \"contracts/contract3/bank.sol\":2441:2451  msg.sender */\n      caller\n        /* \"contracts/contract3/bank.sol\":2426:2452  administrators[msg.sender] */\n      0xffffffffffffffffffffffffffffffffffffffff\n      and\n      0xffffffffffffffffffffffffffffffffffffffff\n      and\n      dup2\n      mstore\n      0x20\n      add\n      swap1\n      dup2\n      mstore\n      0x20\n      add\n      0x00\n      keccak256\n      0x00\n      swap1\n      sload\n      swap1\n      0x0100\n      exp\n      swap1\n      div\n      0xff\n      and\n        /* \"contracts/contract3/bank.sol\":2403:2452  msg.sender == owner || administrators[msg.sender] */\n    tag_106:\n        /* \"contracts/contract3/bank.sol\":2382:2488  require(... */\n      tag_107\n      jumpi\n      mload(0x40)\n      0x08c379a000000000000000000000000000000000000000000000000000000000\n      dup2\n      mstore\n      0x04\n      add\n      tag_108\n      swap1\n      tag_73\n      jump\t// in\n    tag_108:\n      mload(0x40)\n      dup1\n      swap2\n      sub\n      swap1\n      revert\n    tag_107:\n        /* \"contracts/contract3/bank.sol\":6418:6435  allAdminAddresses */\n      0x04\n        /* \"contracts/contract3/bank.sol\":6411:6435  return allAdminAddresses */\n      dup1\n      sload\n      dup1\n      0x20\n      mul\n      0x20\n      add\n      mload(0x40)\n      swap1\n      dup2\n      add\n      0x40\n      mstore\n      dup1\n      swap3\n      swap2\n      swap1\n      dup2\n      dup2\n      mstore\n      0x20\n      add\n      dup3\n      dup1\n      sload\n      dup1\n      iszero\n      tag_110\n      jumpi\n      0x20\n      mul\n      dup3\n      add\n      swap2\n      swap1\n      0x00\n      mstore\n      keccak256(0x00, 0x20)\n      swap1\n    tag_111:\n      dup2\n      0x00\n      swap1\n      sload\n      swap1\n      0x0100\n      exp\n      swap1\n      div\n      0xffffffffffffffffffffffffffffffffffffffff\n      and\n      0xffffffffffffffffffffffffffffffffffffffff\n      and\n      dup2\n      mstore\n      0x20\n      add\n      swap1\n      0x01\n      add\n      swap1\n      dup1\n      dup4\n      gt\n      tag_111\n      jumpi\n    tag_110:\n      pop\n      pop\n      pop\n      pop\n      pop\n      swap1\n      pop\n        /* \"contracts/contract3/bank.sol\":6276:6442  function getAdministratorList()... */\n      swap1\n      jump\t// out\n        /* \"contracts/contract3/bank.sol\":4062:4742  function withdrawAll() public payable nonReentrant {... */\n    tag_53:\n        /* \"contracts/contract3/bank.sol\":2648:2649  0 */\n      0x00\n        /* \"contracts/contract3/bank.sol\":2637:2644  _status */\n      sload(0x01)\n        /* \"contracts/contract3/bank.sol\":2637:2649  _status == 0 */\n      eq\n        /* \"contracts/contract3/bank.sol\":2629:2685  require(_status == 0, \"ReentrancyGuard: reentrant call\") */\n      tag_113\n      jumpi\n      mload(0x40)\n      0x08c379a000000000000000000000000000000000000000000000000000000000\n      dup2\n      mstore\n      0x04\n      add\n      tag_114\n      swap1\n      tag_89\n      jump\t// in\n    tag_114:\n      mload(0x40)\n      dup1\n      swap2\n      sub\n      swap1\n      revert\n    tag_113:\n        /* \"contracts/contract3/bank.sol\":2773:2774  1 */\n      0x01\n        /* \"contracts/contract3/bank.sol\":2763:2770  _status */\n      dup1\n        /* \"contracts/contract3/bank.sol\":2763:2774  _status = 1 */\n      dup2\n      swap1\n      sstore\n      pop\n        /* \"contracts/contract3/bank.sol\":4140:4155  uint256 balance */\n      0x00\n        /* \"contracts/contract3/bank.sol\":4158:4166  dataBase */\n      0x02\n        /* \"contracts/contract3/bank.sol\":4158:4178  dataBase[msg.sender] */\n      0x00\n        /* \"contracts/contract3/bank.sol\":4167:4177  msg.sender */\n      caller\n        /* \"contracts/contract3/bank.sol\":4158:4178  dataBase[msg.sender] */\n      0xffffffffffffffffffffffffffffffffffffffff\n      and\n      0xffffffffffffffffffffffffffffffffffffffff\n      and\n      dup2\n      mstore\n      0x20\n      add\n      swap1\n      dup2\n      mstore\n      0x20\n      add\n      0x00\n      keccak256\n        /* \"contracts/contract3/bank.sol\":4158:4186  dataBase[msg.sender].balance */\n      0x00\n      add\n      sload\n        /* \"contracts/contract3/bank.sol\":4140:4186  uint256 balance = dataBase[msg.sender].balance */\n      swap1\n      pop\n        /* \"contracts/contract3/bank.sol\":4252:4253  0 */\n      0x00\n        /* \"contracts/contract3/bank.sol\":4242:4249  balance */\n      dup2\n        /* \"contracts/contract3/bank.sol\":4242:4253  balance > 0 */\n      gt\n        /* \"contracts/contract3/bank.sol\":4234:4278  require(balance > 0, \"not sufficient funds\") */\n      tag_116\n      jumpi\n      mload(0x40)\n      0x08c379a000000000000000000000000000000000000000000000000000000000\n      dup2\n      mstore\n      0x04\n      add\n      tag_117\n      swap1\n      tag_93\n      jump\t// in\n    tag_117:\n      mload(0x40)\n      dup1\n      swap2\n      sub\n      swap1\n      revert\n    tag_116:\n        /* \"contracts/contract3/bank.sol\":4306:4318  bool success */\n      0x00\n        /* \"contracts/contract3/bank.sol\":4332:4342  msg.sender */\n      caller\n        /* \"contracts/contract3/bank.sol\":4324:4348  payable(msg.sender).call */\n      0xffffffffffffffffffffffffffffffffffffffff\n      and\n        /* \"contracts/contract3/bank.sol\":4356:4363  balance */\n      dup3\n        /* \"contracts/contract3/bank.sol\":4324:4368  payable(msg.sender).call{value: balance}(\"\") */\n      mload(0x40)\n      tag_118\n      swap1\n      tag_77\n      jump\t// in\n    tag_118:\n      0x00\n      mload(0x40)\n      dup1\n      dup4\n      sub\n      dup2\n      dup6\n      dup8\n      gas\n      call\n      swap3\n      pop\n      pop\n      pop\n      returndatasize\n      dup1\n      0x00\n      dup2\n      eq\n      tag_121\n      jumpi\n      mload(0x40)\n      swap2\n      pop\n      and(add(returndatasize, 0x3f), not(0x1f))\n      dup3\n      add\n      0x40\n      mstore\n      returndatasize\n      dup3\n      mstore\n      returndatasize\n      0x00\n      0x20\n      dup5\n      add\n      returndatacopy\n      jump(tag_120)\n    tag_121:\n      0x60\n      swap2\n      pop\n    tag_120:\n      pop\n        /* \"contracts/contract3/bank.sol\":4305:4368  (bool success, ) = payable(msg.sender).call{value: balance}(\"\") */\n      pop\n      swap1\n      pop\n        /* \"contracts/contract3/bank.sol\":4386:4393  success */\n      dup1\n        /* \"contracts/contract3/bank.sol\":4378:4413  require(success, \"Transfer failed\") */\n      tag_122\n      jumpi\n      mload(0x40)\n      0x08c379a000000000000000000000000000000000000000000000000000000000\n      dup2\n      mstore\n      0x04\n      add\n      tag_123\n      swap1\n      tag_83\n      jump\t// in\n    tag_123:\n      mload(0x40)\n      dup1\n      swap2\n      sub\n      swap1\n      revert\n    tag_122:\n        /* \"contracts/contract3/bank.sol\":4471:4472  0 */\n      0x00\n        /* \"contracts/contract3/bank.sol\":4440:4448  dataBase */\n      0x02\n        /* \"contracts/contract3/bank.sol\":4440:4460  dataBase[msg.sender] */\n      0x00\n        /* \"contracts/contract3/bank.sol\":4449:4459  msg.sender */\n      caller\n        /* \"contracts/contract3/bank.sol\":4440:4460  dataBase[msg.sender] */\n      0xffffffffffffffffffffffffffffffffffffffff\n      and\n      0xffffffffffffffffffffffffffffffffffffffff\n      and\n      dup2\n      mstore\n      0x20\n      add\n      swap1\n      dup2\n      mstore\n      0x20\n      add\n      0x00\n      keccak256\n        /* \"contracts/contract3/bank.sol\":4440:4468  dataBase[msg.sender].balance */\n      0x00\n      add\n        /* \"contracts/contract3/bank.sol\":4440:4472  dataBase[msg.sender].balance = 0 */\n      dup2\n      swap1\n      sstore\n      pop\n        /* \"contracts/contract3/bank.sol\":4482:4490  dataBase */\n      0x02\n        /* \"contracts/contract3/bank.sol\":4482:4502  dataBase[msg.sender] */\n      0x00\n        /* \"contracts/contract3/bank.sol\":4491:4501  msg.sender */\n      caller\n        /* \"contracts/contract3/bank.sol\":4482:4502  dataBase[msg.sender] */\n      0xffffffffffffffffffffffffffffffffffffffff\n      and\n      0xffffffffffffffffffffffffffffffffffffffff\n      and\n      dup2\n      mstore\n      0x20\n      add\n      swap1\n      dup2\n      mstore\n      0x20\n      add\n      0x00\n      keccak256\n        /* \"contracts/contract3/bank.sol\":4482:4517  dataBase[msg.sender].transactionLog */\n      0x01\n      add\n        /* \"contracts/contract3/bank.sol\":4536:4681  TransactionInfo({... */\n      mload(0x40)\n      dup1\n      0x60\n      add\n      0x40\n      mstore\n      dup1\n        /* \"contracts/contract3/bank.sol\":4581:4596  block.timestamp */\n      timestamp\n        /* \"contracts/contract3/bank.sol\":4536:4681  TransactionInfo({... */\n      dup2\n      mstore\n      0x20\n      add\n      mload(0x40)\n      dup1\n      0x40\n      add\n      0x40\n      mstore\n      dup1\n      0x08\n      dup2\n      mstore\n      0x20\n      add\n      0x7769746864726177000000000000000000000000000000000000000000000000\n      dup2\n      mstore\n      pop\n      dup2\n      mstore\n      0x20\n      add\n        /* \"contracts/contract3/bank.sol\":4659:4666  balance */\n      dup5\n        /* \"contracts/contract3/bank.sol\":4536:4681  TransactionInfo({... */\n      dup2\n      mstore\n      pop\n        /* \"contracts/contract3/bank.sol\":4482:4691  dataBase[msg.sender].transactionLog.push(... */\n      swap1\n      dup1\n      0x01\n      dup2\n      sload\n      add\n      dup1\n      dup3\n      sstore\n      dup1\n      swap2\n      pop\n      pop\n      0x01\n      swap1\n      sub\n      swap1\n      0x00\n      mstore\n      keccak256(0x00, 0x20)\n      swap1\n      0x03\n      mul\n      add\n      0x00\n      swap1\n      swap2\n      swap1\n      swap2\n      swap1\n      swap2\n      pop\n      0x00\n      dup3\n      add\n      mload\n      dup2\n      0x00\n      add\n      sstore\n      0x20\n      dup3\n      add\n      mload\n      dup2\n      0x01\n      add\n      swap1\n      dup2\n      tag_125\n      swap2\n      swap1\n      tag_21\n      jump\t// in\n    tag_125:\n      pop\n      0x40\n      dup3\n      add\n      mload\n      dup2\n      0x02\n      add\n      sstore\n      pop\n      pop\n        /* \"contracts/contract3/bank.sol\":4715:4725  msg.sender */\n      caller\n        /* \"contracts/contract3/bank.sol\":4706:4735  Withdraw(msg.sender, balance) */\n      0xffffffffffffffffffffffffffffffffffffffff\n      and\n      0x884edad9ce6fa2440d8a54cc123490eb96d2768479d49ff9c7366125a9424364\n        /* \"contracts/contract3/bank.sol\":4727:4734  balance */\n      dup4\n        /* \"contracts/contract3/bank.sol\":4706:4735  Withdraw(msg.sender, balance) */\n      mload(0x40)\n      tag_126\n      swap2\n      swap1\n      tag_23\n      jump\t// in\n    tag_126:\n      mload(0x40)\n      dup1\n      swap2\n      sub\n      swap1\n      log2\n        /* \"contracts/contract3/bank.sol\":4113:4742  {... */\n      pop\n      pop\n        /* \"contracts/contract3/bank.sol\":2854:2855  0 */\n      0x00\n        /* \"contracts/contract3/bank.sol\":2844:2851  _status */\n      0x01\n        /* \"contracts/contract3/bank.sol\":2844:2855  _status = 0 */\n      dup2\n      swap1\n      sstore\n      pop\n        /* \"contracts/contract3/bank.sol\":4062:4742  function withdrawAll() public payable nonReentrant {... */\n      jump\t// out\n        /* \"contracts/contract3/bank.sol\":4904:5060  function getUserList()... */\n    tag_56:\n        /* \"contracts/contract3/bank.sol\":4998:5014  address[] memory */\n      0x60\n        /* \"contracts/contract3/bank.sol\":2417:2422  owner */\n      immutable(\"0x2a80e1ef1d7842f27f2e6be0972bb708b9a135c38860dbe73c27c3486c34f4de\")\n        /* \"contracts/contract3/bank.sol\":2403:2422  msg.sender == owner */\n      0xffffffffffffffffffffffffffffffffffffffff\n      and\n        /* \"contracts/contract3/bank.sol\":2403:2413  msg.sender */\n      caller\n        /* \"contracts/contract3/bank.sol\":2403:2422  msg.sender == owner */\n      0xffffffffffffffffffffffffffffffffffffffff\n      and\n      eq\n        /* \"contracts/contract3/bank.sol\":2403:2452  msg.sender == owner || administrators[msg.sender] */\n      dup1\n      tag_128\n      jumpi\n      pop\n        /* \"contracts/contract3/bank.sol\":2426:2440  administrators */\n      0x00\n        /* \"contracts/contract3/bank.sol\":2426:2452  administrators[msg.sender] */\n      dup1\n        /* \"contracts/contract3/bank.sol\":2441:2451  msg.sender */\n      caller\n        /* \"contracts/contract3/bank.sol\":2426:2452  administrators[msg.sender] */\n      0xffffffffffffffffffffffffffffffffffffffff\n      and\n      0xffffffffffffffffffffffffffffffffffffffff\n      and\n      dup2\n      mstore\n      0x20\n      add\n      swap1\n      dup2\n      mstore\n      0x20\n      add\n      0x00\n      keccak256\n      0x00\n      swap1\n      sload\n      swap1\n      0x0100\n      exp\n      swap1\n      div\n      0xff\n      and\n        /* \"contracts/contract3/bank.sol\":2403:2452  msg.sender == owner || administrators[msg.sender] */\n    tag_128:\n        /* \"contracts/contract3/bank.sol\":2382:2488  require(... */\n      tag_129\n      jumpi\n      mload(0x40)\n      0x08c379a000000000000000000000000000000000000000000000000000000000\n      dup2\n      mstore\n      0x04\n      add\n      tag_130\n      swap1\n      tag_73\n      jump\t// in\n    tag_130:\n      mload(0x40)\n      dup1\n      swap2\n      sub\n      swap1\n      revert\n    tag_129:\n        /* \"contracts/contract3/bank.sol\":5037:5053  allUserAddresses */\n      0x03\n        /* \"contracts/contract3/bank.sol\":5030:5053  return allUserAddresses */\n      dup1\n      sload\n      dup1\n      0x20\n      mul\n      0x20\n      add\n      mload(0x40)\n      swap1\n      dup2\n      add\n      0x40\n      mstore\n      dup1\n      swap3\n      swap2\n      swap1\n      dup2\n      dup2\n      mstore\n      0x20\n      add\n      dup3\n      dup1\n      sload\n      dup1\n      iszero\n      tag_132\n      jumpi\n      0x20\n      mul\n      dup3\n      add\n      swap2\n      swap1\n      0x00\n      mstore\n      keccak256(0x00, 0x20)\n      swap1\n    tag_133:\n      dup2\n      0x00\n      swap1\n      sload\n      swap1\n      0x0100\n      exp\n      swap1\n      div\n      0xffffffffffffffffffffffffffffffffffffffff\n      and\n      0xffffffffffffffffffffffffffffffffffffffff\n      and\n      dup2\n      mstore\n      0x20\n      add\n      swap1\n      0x01\n      add\n      swap1\n      dup1\n      dup4\n      gt\n      tag_133\n      jumpi\n    tag_132:\n      pop\n      pop\n      pop\n      pop\n      pop\n      swap1\n      pop\n        /* \"contracts/contract3/bank.sol\":4904:5060  function getUserList()... */\n      swap1\n      jump\t// out\n        /* \"contracts/contract3/bank.sol\":5088:5328  function addAdministrator(address addr) public onlyOwner {... */\n    tag_61:\n        /* \"contracts/contract3/bank.sol\":2271:2276  owner */\n      immutable(\"0x2a80e1ef1d7842f27f2e6be0972bb708b9a135c38860dbe73c27c3486c34f4de\")\n        /* \"contracts/contract3/bank.sol\":2257:2276  msg.sender == owner */\n      0xffffffffffffffffffffffffffffffffffffffff\n      and\n        /* \"contracts/contract3/bank.sol\":2257:2267  msg.sender */\n      caller\n        /* \"contracts/contract3/bank.sol\":2257:2276  msg.sender == owner */\n      0xffffffffffffffffffffffffffffffffffffffff\n      and\n      eq\n        /* \"contracts/contract3/bank.sol\":2249:2291  require(msg.sender == owner, \"Forbidden.\") */\n      tag_135\n      jumpi\n      mload(0x40)\n      0x08c379a000000000000000000000000000000000000000000000000000000000\n      dup2\n      mstore\n      0x04\n      add\n      tag_136\n      swap1\n      tag_73\n      jump\t// in\n    tag_136:\n      mload(0x40)\n      dup1\n      swap2\n      sub\n      swap1\n      revert\n    tag_135:\n        /* \"contracts/contract3/bank.sol\":5221:5226  false */\n      0x00\n        /* \"contracts/contract3/bank.sol\":5197:5226  administrators[addr] == false */\n      iszero\n      iszero\n        /* \"contracts/contract3/bank.sol\":5197:5211  administrators */\n      0x00\n        /* \"contracts/contract3/bank.sol\":5197:5217  administrators[addr] */\n      dup1\n        /* \"contracts/contract3/bank.sol\":5212:5216  addr */\n      dup4\n        /* \"contracts/contract3/bank.sol\":5197:5217  administrators[addr] */\n      0xffffffffffffffffffffffffffffffffffffffff\n      and\n      0xffffffffffffffffffffffffffffffffffffffff\n      and\n      dup2\n      mstore\n      0x20\n      add\n      swap1\n      dup2\n      mstore\n      0x20\n      add\n      0x00\n      keccak256\n      0x00\n      swap1\n      sload\n      swap1\n      0x0100\n      exp\n      swap1\n      div\n      0xff\n      and\n        /* \"contracts/contract3/bank.sol\":5197:5226  administrators[addr] == false */\n      iszero\n      iszero\n      sub\n        /* \"contracts/contract3/bank.sol\":5193:5322  if (administrators[addr] == false) {... */\n      tag_138\n      jumpi\n        /* \"contracts/contract3/bank.sol\":5242:5259  allAdminAddresses */\n      0x04\n        /* \"contracts/contract3/bank.sol\":5265:5269  addr */\n      dup2\n        /* \"contracts/contract3/bank.sol\":5242:5270  allAdminAddresses.push(addr) */\n      swap1\n      dup1\n      0x01\n      dup2\n      sload\n      add\n      dup1\n      dup3\n      sstore\n      dup1\n      swap2\n      pop\n      pop\n      0x01\n      swap1\n      sub\n      swap1\n      0x00\n      mstore\n      keccak256(0x00, 0x20)\n      add\n      0x00\n      swap1\n      swap2\n      swap1\n      swap2\n      swap1\n      swap2\n      0x0100\n      exp\n      dup2\n      sload\n      dup2\n      0xffffffffffffffffffffffffffffffffffffffff\n      mul\n      not\n      and\n      swap1\n      dup4\n      0xffffffffffffffffffffffffffffffffffffffff\n      and\n      mul\n      or\n      swap1\n      sstore\n      pop\n        /* \"contracts/contract3/bank.sol\":5307:5311  true */\n      0x01\n        /* \"contracts/contract3/bank.sol\":5284:5298  administrators */\n      0x00\n        /* \"contracts/contract3/bank.sol\":5284:5304  administrators[addr] */\n      dup1\n        /* \"contracts/contract3/bank.sol\":5299:5303  addr */\n      dup4\n        /* \"contracts/contract3/bank.sol\":5284:5304  administrators[addr] */\n      0xffffffffffffffffffffffffffffffffffffffff\n      and\n      0xffffffffffffffffffffffffffffffffffffffff\n      and\n      dup2\n      mstore\n      0x20\n      add\n      swap1\n      dup2\n      mstore\n      0x20\n      add\n      0x00\n      keccak256\n      0x00\n        /* \"contracts/contract3/bank.sol\":5284:5311  administrators[addr] = true */\n      0x0100\n      exp\n      dup2\n      sload\n      dup2\n      0xff\n      mul\n      not\n      and\n      swap1\n      dup4\n      iszero\n      iszero\n      mul\n      or\n      swap1\n      sstore\n      pop\n        /* \"contracts/contract3/bank.sol\":5193:5322  if (administrators[addr] == false) {... */\n    tag_138:\n        /* \"contracts/contract3/bank.sol\":5088:5328  function addAdministrator(address addr) public onlyOwner {... */\n      pop\n      jump\t// out\n        /* \"contracts/contract3/bank.sol\":5356:6242  function deleteAdministrator(address adminAddress) public onlyOwner {... */\n    tag_65:\n        /* \"contracts/contract3/bank.sol\":2271:2276  owner */\n      immutable(\"0x2a80e1ef1d7842f27f2e6be0972bb708b9a135c38860dbe73c27c3486c34f4de\")\n        /* \"contracts/contract3/bank.sol\":2257:2276  msg.sender == owner */\n      0xffffffffffffffffffffffffffffffffffffffff\n      and\n        /* \"contracts/contract3/bank.sol\":2257:2267  msg.sender */\n      caller\n        /* \"contracts/contract3/bank.sol\":2257:2276  msg.sender == owner */\n      0xffffffffffffffffffffffffffffffffffffffff\n      and\n      eq\n        /* \"contracts/contract3/bank.sol\":2249:2291  require(msg.sender == owner, \"Forbidden.\") */\n      tag_141\n      jumpi\n      mload(0x40)\n      0x08c379a000000000000000000000000000000000000000000000000000000000\n      dup2\n      mstore\n      0x04\n      add\n      tag_142\n      swap1\n      tag_73\n      jump\t// in\n    tag_142:\n      mload(0x40)\n      dup1\n      swap2\n      sub\n      swap1\n      revert\n    tag_141:\n        /* \"contracts/contract3/bank.sol\":5505:5509  true */\n      0x01\n        /* \"contracts/contract3/bank.sol\":5473:5509  administrators[adminAddress] == true */\n      iszero\n      iszero\n        /* \"contracts/contract3/bank.sol\":5473:5487  administrators */\n      0x00\n        /* \"contracts/contract3/bank.sol\":5473:5501  administrators[adminAddress] */\n      dup1\n        /* \"contracts/contract3/bank.sol\":5488:5500  adminAddress */\n      dup4\n        /* \"contracts/contract3/bank.sol\":5473:5501  administrators[adminAddress] */\n      0xffffffffffffffffffffffffffffffffffffffff\n      and\n      0xffffffffffffffffffffffffffffffffffffffff\n      and\n      dup2\n      mstore\n      0x20\n      add\n      swap1\n      dup2\n      mstore\n      0x20\n      add\n      0x00\n      keccak256\n      0x00\n      swap1\n      sload\n      swap1\n      0x0100\n      exp\n      swap1\n      div\n      0xff\n      and\n        /* \"contracts/contract3/bank.sol\":5473:5509  administrators[adminAddress] == true */\n      iszero\n      iszero\n      sub\n        /* \"contracts/contract3/bank.sol\":5469:6236  if (administrators[adminAddress] == true) {... */\n      tag_144\n      jumpi\n        /* \"contracts/contract3/bank.sol\":5567:5581  uint256 length */\n      0x00\n        /* \"contracts/contract3/bank.sol\":5584:5601  allAdminAddresses */\n      0x04\n        /* \"contracts/contract3/bank.sol\":5584:5608  allAdminAddresses.length */\n      dup1\n      sload\n      swap1\n      pop\n        /* \"contracts/contract3/bank.sol\":5567:5608  uint256 length = allAdminAddresses.length */\n      swap1\n      pop\n        /* \"contracts/contract3/bank.sol\":5636:5637  1 */\n      0x01\n        /* \"contracts/contract3/bank.sol\":5626:5632  length */\n      dup2\n        /* \"contracts/contract3/bank.sol\":5626:5637  length == 1 */\n      sub\n        /* \"contracts/contract3/bank.sol\":5622:6146  if (length == 1) {... */\n      tag_145\n      jumpi\n        /* \"contracts/contract3/bank.sol\":5664:5681  allAdminAddresses */\n      0x04\n      0x00\n        /* \"contracts/contract3/bank.sol\":5657:5681  delete allAdminAddresses */\n      tag_146\n      swap2\n      swap1\n      tag_147\n      jump\t// in\n    tag_146:\n        /* \"contracts/contract3/bank.sol\":5622:6146  if (length == 1) {... */\n      jump(tag_148)\n    tag_145:\n        /* \"contracts/contract3/bank.sol\":5720:5732  address last */\n      0x00\n        /* \"contracts/contract3/bank.sol\":5735:5752  allAdminAddresses */\n      0x04\n        /* \"contracts/contract3/bank.sol\":5780:5781  1 */\n      0x01\n        /* \"contracts/contract3/bank.sol\":5753:5770  allAdminAddresses */\n      0x04\n        /* \"contracts/contract3/bank.sol\":5753:5777  allAdminAddresses.length */\n      dup1\n      sload\n      swap1\n      pop\n        /* \"contracts/contract3/bank.sol\":5753:5781  allAdminAddresses.length - 1 */\n      tag_149\n      swap2\n      swap1\n      tag_101\n      jump\t// in\n    tag_149:\n        /* \"contracts/contract3/bank.sol\":5735:5782  allAdminAddresses[allAdminAddresses.length - 1] */\n      dup2\n      sload\n      dup2\n      lt\n      tag_150\n      jumpi\n      tag_151\n      tag_152\n      jump\t// in\n    tag_151:\n    tag_150:\n      swap1\n      0x00\n      mstore\n      keccak256(0x00, 0x20)\n      add\n      0x00\n      swap1\n      sload\n      swap1\n      0x0100\n      exp\n      swap1\n      div\n      0xffffffffffffffffffffffffffffffffffffffff\n      and\n        /* \"contracts/contract3/bank.sol\":5720:5782  address last = allAdminAddresses[allAdminAddresses.length - 1] */\n      swap1\n      pop\n        /* \"contracts/contract3/bank.sol\":5800:5809  uint256 i */\n      0x00\n        /* \"contracts/contract3/bank.sol\":5831:5920  while (allAdminAddresses[i] != adminAddress) {... */\n    tag_154:\n        /* \"contracts/contract3/bank.sol\":5862:5874  adminAddress */\n      dup4\n        /* \"contracts/contract3/bank.sol\":5838:5874  allAdminAddresses[i] != adminAddress */\n      0xffffffffffffffffffffffffffffffffffffffff\n      and\n        /* \"contracts/contract3/bank.sol\":5838:5855  allAdminAddresses */\n      0x04\n        /* \"contracts/contract3/bank.sol\":5856:5857  i */\n      dup3\n        /* \"contracts/contract3/bank.sol\":5838:5858  allAdminAddresses[i] */\n      dup2\n      sload\n      dup2\n      lt\n      tag_156\n      jumpi\n      tag_157\n      tag_152\n      jump\t// in\n    tag_157:\n    tag_156:\n      swap1\n      0x00\n      mstore\n      keccak256(0x00, 0x20)\n      add\n      0x00\n      swap1\n      sload\n      swap1\n      0x0100\n      exp\n      swap1\n      div\n      0xffffffffffffffffffffffffffffffffffffffff\n      and\n        /* \"contracts/contract3/bank.sol\":5838:5874  allAdminAddresses[i] != adminAddress */\n      0xffffffffffffffffffffffffffffffffffffffff\n      and\n      eq\n        /* \"contracts/contract3/bank.sol\":5831:5920  while (allAdminAddresses[i] != adminAddress) {... */\n      tag_155\n      jumpi\n        /* \"contracts/contract3/bank.sol\":5898:5901  i++ */\n      dup1\n      dup1\n      tag_159\n      swap1\n      tag_160\n      jump\t// in\n    tag_159:\n      swap2\n      pop\n      pop\n        /* \"contracts/contract3/bank.sol\":5831:5920  while (allAdminAddresses[i] != adminAddress) {... */\n      jump(tag_154)\n    tag_155:\n        /* \"contracts/contract3/bank.sol\":6025:6042  allAdminAddresses */\n      0x04\n        /* \"contracts/contract3/bank.sol\":6043:6044  i */\n      dup2\n        /* \"contracts/contract3/bank.sol\":6025:6045  allAdminAddresses[i] */\n      dup2\n      sload\n      dup2\n      lt\n      tag_161\n      jumpi\n      tag_162\n      tag_152\n      jump\t// in\n    tag_162:\n    tag_161:\n      swap1\n      0x00\n      mstore\n      keccak256(0x00, 0x20)\n      add\n      0x00\n      swap1\n      sload\n      swap1\n      0x0100\n      exp\n      swap1\n      div\n      0xffffffffffffffffffffffffffffffffffffffff\n      and\n        /* \"contracts/contract3/bank.sol\":5937:5954  allAdminAddresses */\n      0x04\n        /* \"contracts/contract3/bank.sol\":6003:6004  1 */\n      0x01\n        /* \"contracts/contract3/bank.sol\":5976:5993  allAdminAddresses */\n      0x04\n        /* \"contracts/contract3/bank.sol\":5976:6000  allAdminAddresses.length */\n      dup1\n      sload\n      swap1\n      pop\n        /* \"contracts/contract3/bank.sol\":5976:6004  allAdminAddresses.length - 1 */\n      tag_164\n      swap2\n      swap1\n      tag_101\n      jump\t// in\n    tag_164:\n        /* \"contracts/contract3/bank.sol\":5937:6022  allAdminAddresses[... */\n      dup2\n      sload\n      dup2\n      lt\n      tag_165\n      jumpi\n      tag_166\n      tag_152\n      jump\t// in\n    tag_166:\n    tag_165:\n      swap1\n      0x00\n      mstore\n      keccak256(0x00, 0x20)\n      add\n      0x00\n        /* \"contracts/contract3/bank.sol\":5937:6045  allAdminAddresses[... */\n      0x0100\n      exp\n      dup2\n      sload\n      dup2\n      0xffffffffffffffffffffffffffffffffffffffff\n      mul\n      not\n      and\n      swap1\n      dup4\n      0xffffffffffffffffffffffffffffffffffffffff\n      and\n      mul\n      or\n      swap1\n      sstore\n      pop\n        /* \"contracts/contract3/bank.sol\":6086:6090  last */\n      dup2\n        /* \"contracts/contract3/bank.sol\":6063:6080  allAdminAddresses */\n      0x04\n        /* \"contracts/contract3/bank.sol\":6081:6082  i */\n      dup3\n        /* \"contracts/contract3/bank.sol\":6063:6083  allAdminAddresses[i] */\n      dup2\n      sload\n      dup2\n      lt\n      tag_168\n      jumpi\n      tag_169\n      tag_152\n      jump\t// in\n    tag_169:\n    tag_168:\n      swap1\n      0x00\n      mstore\n      keccak256(0x00, 0x20)\n      add\n      0x00\n        /* \"contracts/contract3/bank.sol\":6063:6090  allAdminAddresses[i] = last */\n      0x0100\n      exp\n      dup2\n      sload\n      dup2\n      0xffffffffffffffffffffffffffffffffffffffff\n      mul\n      not\n      and\n      swap1\n      dup4\n      0xffffffffffffffffffffffffffffffffffffffff\n      and\n      mul\n      or\n      swap1\n      sstore\n      pop\n        /* \"contracts/contract3/bank.sol\":6108:6125  allAdminAddresses */\n      0x04\n        /* \"contracts/contract3/bank.sol\":6108:6131  allAdminAddresses.pop() */\n      dup1\n      sload\n      dup1\n      tag_171\n      jumpi\n      tag_172\n      tag_173\n      jump\t// in\n    tag_172:\n    tag_171:\n      0x01\n      swap1\n      sub\n      dup2\n      dup2\n      swap1\n      0x00\n      mstore\n      keccak256(0x00, 0x20)\n      add\n      exp(0x0100, 0x00)\n      dup2\n      sload\n      swap1\n      0xffffffffffffffffffffffffffffffffffffffff\n      mul\n      not\n      and\n      swap1\n      sstore\n      swap1\n      sstore\n        /* \"contracts/contract3/bank.sol\":5702:6146  {... */\n      pop\n      pop\n        /* \"contracts/contract3/bank.sol\":5622:6146  if (length == 1) {... */\n    tag_148:\n        /* \"contracts/contract3/bank.sol\":6197:6211  administrators */\n      0x00\n        /* \"contracts/contract3/bank.sol\":6197:6225  administrators[adminAddress] */\n      dup1\n        /* \"contracts/contract3/bank.sol\":6212:6224  adminAddress */\n      dup4\n        /* \"contracts/contract3/bank.sol\":6197:6225  administrators[adminAddress] */\n      0xffffffffffffffffffffffffffffffffffffffff\n      and\n      0xffffffffffffffffffffffffffffffffffffffff\n      and\n      dup2\n      mstore\n      0x20\n      add\n      swap1\n      dup2\n      mstore\n      0x20\n      add\n      0x00\n      keccak256\n      0x00\n        /* \"contracts/contract3/bank.sol\":6190:6225  delete administrators[adminAddress] */\n      0x0100\n      exp\n      dup2\n      sload\n      swap1\n      0xff\n      mul\n      not\n      and\n      swap1\n      sstore\n        /* \"contracts/contract3/bank.sol\":5511:6236  {... */\n      pop\n        /* \"contracts/contract3/bank.sol\":5469:6236  if (administrators[adminAddress] == true) {... */\n    tag_144:\n        /* \"contracts/contract3/bank.sol\":5356:6242  function deleteAdministrator(address adminAddress) public onlyOwner {... */\n      pop\n      jump\t// out\n        /* \"contracts/contract3/bank.sol\":1157:1945  function delUserAddresses(address userAddress) private {... */\n    tag_85:\n        /* \"contracts/contract3/bank.sol\":1301:1302  0 */\n      0x00\n        /* \"contracts/contract3/bank.sol\":1255:1263  dataBase */\n      0x02\n        /* \"contracts/contract3/bank.sol\":1255:1276  dataBase[userAddress] */\n      0x00\n        /* \"contracts/contract3/bank.sol\":1264:1275  userAddress */\n      dup4\n        /* \"contracts/contract3/bank.sol\":1255:1276  dataBase[userAddress] */\n      0xffffffffffffffffffffffffffffffffffffffff\n      and\n      0xffffffffffffffffffffffffffffffffffffffff\n      and\n      dup2\n      mstore\n      0x20\n      add\n      swap1\n      dup2\n      mstore\n      0x20\n      add\n      0x00\n      keccak256\n        /* \"contracts/contract3/bank.sol\":1255:1291  dataBase[userAddress].transactionLog */\n      0x01\n      add\n        /* \"contracts/contract3/bank.sol\":1255:1298  dataBase[userAddress].transactionLog.length */\n      dup1\n      sload\n      swap1\n      pop\n        /* \"contracts/contract3/bank.sol\":1255:1302  dataBase[userAddress].transactionLog.length > 0 */\n      gt\n        /* \"contracts/contract3/bank.sol\":1251:1939  if (dataBase[userAddress].transactionLog.length > 0) {... */\n      iszero\n      tag_176\n      jumpi\n        /* \"contracts/contract3/bank.sol\":1360:1374  uint256 length */\n      0x00\n        /* \"contracts/contract3/bank.sol\":1377:1393  allUserAddresses */\n      0x03\n        /* \"contracts/contract3/bank.sol\":1377:1400  allUserAddresses.length */\n      dup1\n      sload\n      swap1\n      pop\n        /* \"contracts/contract3/bank.sol\":1360:1400  uint256 length = allUserAddresses.length */\n      swap1\n      pop\n        /* \"contracts/contract3/bank.sol\":1428:1429  1 */\n      0x01\n        /* \"contracts/contract3/bank.sol\":1418:1424  length */\n      dup2\n        /* \"contracts/contract3/bank.sol\":1418:1429  length == 1 */\n      sub\n        /* \"contracts/contract3/bank.sol\":1414:1856  if (length == 1) {... */\n      tag_177\n      jumpi\n        /* \"contracts/contract3/bank.sol\":1456:1472  allUserAddresses */\n      0x03\n      0x00\n        /* \"contracts/contract3/bank.sol\":1449:1472  delete allUserAddresses */\n      tag_178\n      swap2\n      swap1\n      tag_147\n      jump\t// in\n    tag_178:\n        /* \"contracts/contract3/bank.sol\":1414:1856  if (length == 1) {... */\n      jump(tag_179)\n    tag_177:\n        /* \"contracts/contract3/bank.sol\":1511:1523  address last */\n      0x00\n        /* \"contracts/contract3/bank.sol\":1526:1542  allUserAddresses */\n      0x03\n        /* \"contracts/contract3/bank.sol\":1552:1553  1 */\n      0x01\n        /* \"contracts/contract3/bank.sol\":1543:1549  length */\n      dup4\n        /* \"contracts/contract3/bank.sol\":1543:1553  length - 1 */\n      tag_180\n      swap2\n      swap1\n      tag_101\n      jump\t// in\n    tag_180:\n        /* \"contracts/contract3/bank.sol\":1526:1554  allUserAddresses[length - 1] */\n      dup2\n      sload\n      dup2\n      lt\n      tag_181\n      jumpi\n      tag_182\n      tag_152\n      jump\t// in\n    tag_182:\n    tag_181:\n      swap1\n      0x00\n      mstore\n      keccak256(0x00, 0x20)\n      add\n      0x00\n      swap1\n      sload\n      swap1\n      0x0100\n      exp\n      swap1\n      div\n      0xffffffffffffffffffffffffffffffffffffffff\n      and\n        /* \"contracts/contract3/bank.sol\":1511:1554  address last = allUserAddresses[length - 1] */\n      swap1\n      pop\n        /* \"contracts/contract3/bank.sol\":1572:1581  uint256 i */\n      0x00\n        /* \"contracts/contract3/bank.sol\":1603:1690  while (allUserAddresses[i] != userAddress) {... */\n    tag_184:\n        /* \"contracts/contract3/bank.sol\":1633:1644  userAddress */\n      dup4\n        /* \"contracts/contract3/bank.sol\":1610:1644  allUserAddresses[i] != userAddress */\n      0xffffffffffffffffffffffffffffffffffffffff\n      and\n        /* \"contracts/contract3/bank.sol\":1610:1626  allUserAddresses */\n      0x03\n        /* \"contracts/contract3/bank.sol\":1627:1628  i */\n      dup3\n        /* \"contracts/contract3/bank.sol\":1610:1629  allUserAddresses[i] */\n      dup2\n      sload\n      dup2\n      lt\n      tag_186\n      jumpi\n      tag_187\n      tag_152\n      jump\t// in\n    tag_187:\n    tag_186:\n      swap1\n      0x00\n      mstore\n      keccak256(0x00, 0x20)\n      add\n      0x00\n      swap1\n      sload\n      swap1\n      0x0100\n      exp\n      swap1\n      div\n      0xffffffffffffffffffffffffffffffffffffffff\n      and\n        /* \"contracts/contract3/bank.sol\":1610:1644  allUserAddresses[i] != userAddress */\n      0xffffffffffffffffffffffffffffffffffffffff\n      and\n      eq\n        /* \"contracts/contract3/bank.sol\":1603:1690  while (allUserAddresses[i] != userAddress) {... */\n      tag_185\n      jumpi\n        /* \"contracts/contract3/bank.sol\":1668:1671  i++ */\n      dup1\n      dup1\n      tag_189\n      swap1\n      tag_160\n      jump\t// in\n    tag_189:\n      swap2\n      pop\n      pop\n        /* \"contracts/contract3/bank.sol\":1603:1690  while (allUserAddresses[i] != userAddress) {... */\n      jump(tag_184)\n    tag_185:\n        /* \"contracts/contract3/bank.sol\":1738:1754  allUserAddresses */\n      0x03\n        /* \"contracts/contract3/bank.sol\":1755:1756  i */\n      dup2\n        /* \"contracts/contract3/bank.sol\":1738:1757  allUserAddresses[i] */\n      dup2\n      sload\n      dup2\n      lt\n      tag_190\n      jumpi\n      tag_191\n      tag_152\n      jump\t// in\n    tag_191:\n    tag_190:\n      swap1\n      0x00\n      mstore\n      keccak256(0x00, 0x20)\n      add\n      0x00\n      swap1\n      sload\n      swap1\n      0x0100\n      exp\n      swap1\n      div\n      0xffffffffffffffffffffffffffffffffffffffff\n      and\n        /* \"contracts/contract3/bank.sol\":1707:1723  allUserAddresses */\n      0x03\n        /* \"contracts/contract3/bank.sol\":1733:1734  1 */\n      0x01\n        /* \"contracts/contract3/bank.sol\":1724:1730  length */\n      dup6\n        /* \"contracts/contract3/bank.sol\":1724:1734  length - 1 */\n      tag_193\n      swap2\n      swap1\n      tag_101\n      jump\t// in\n    tag_193:\n        /* \"contracts/contract3/bank.sol\":1707:1735  allUserAddresses[length - 1] */\n      dup2\n      sload\n      dup2\n      lt\n      tag_194\n      jumpi\n      tag_195\n      tag_152\n      jump\t// in\n    tag_195:\n    tag_194:\n      swap1\n      0x00\n      mstore\n      keccak256(0x00, 0x20)\n      add\n      0x00\n        /* \"contracts/contract3/bank.sol\":1707:1757  allUserAddresses[length - 1] = allUserAddresses[i] */\n      0x0100\n      exp\n      dup2\n      sload\n      dup2\n      0xffffffffffffffffffffffffffffffffffffffff\n      mul\n      not\n      and\n      swap1\n      dup4\n      0xffffffffffffffffffffffffffffffffffffffff\n      and\n      mul\n      or\n      swap1\n      sstore\n      pop\n        /* \"contracts/contract3/bank.sol\":1797:1801  last */\n      dup2\n        /* \"contracts/contract3/bank.sol\":1775:1791  allUserAddresses */\n      0x03\n        /* \"contracts/contract3/bank.sol\":1792:1793  i */\n      dup3\n        /* \"contracts/contract3/bank.sol\":1775:1794  allUserAddresses[i] */\n      dup2\n      sload\n      dup2\n      lt\n      tag_197\n      jumpi\n      tag_198\n      tag_152\n      jump\t// in\n    tag_198:\n    tag_197:\n      swap1\n      0x00\n      mstore\n      keccak256(0x00, 0x20)\n      add\n      0x00\n        /* \"contracts/contract3/bank.sol\":1775:1801  allUserAddresses[i] = last */\n      0x0100\n      exp\n      dup2\n      sload\n      dup2\n      0xffffffffffffffffffffffffffffffffffffffff\n      mul\n      not\n      and\n      swap1\n      dup4\n      0xffffffffffffffffffffffffffffffffffffffff\n      and\n      mul\n      or\n      swap1\n      sstore\n      pop\n        /* \"contracts/contract3/bank.sol\":1819:1835  allUserAddresses */\n      0x03\n        /* \"contracts/contract3/bank.sol\":1819:1841  allUserAddresses.pop() */\n      dup1\n      sload\n      dup1\n      tag_200\n      jumpi\n      tag_201\n      tag_173\n      jump\t// in\n    tag_201:\n    tag_200:\n      0x01\n      swap1\n      sub\n      dup2\n      dup2\n      swap1\n      0x00\n      mstore\n      keccak256(0x00, 0x20)\n      add\n      exp(0x0100, 0x00)\n      dup2\n      sload\n      swap1\n      0xffffffffffffffffffffffffffffffffffffffff\n      mul\n      not\n      and\n      swap1\n      sstore\n      swap1\n      sstore\n        /* \"contracts/contract3/bank.sol\":1493:1856  {... */\n      pop\n      pop\n        /* \"contracts/contract3/bank.sol\":1414:1856  if (length == 1) {... */\n    tag_179:\n        /* \"contracts/contract3/bank.sol\":1907:1915  dataBase */\n      0x02\n        /* \"contracts/contract3/bank.sol\":1907:1928  dataBase[userAddress] */\n      0x00\n        /* \"contracts/contract3/bank.sol\":1916:1927  userAddress */\n      dup4\n        /* \"contracts/contract3/bank.sol\":1907:1928  dataBase[userAddress] */\n      0xffffffffffffffffffffffffffffffffffffffff\n      and\n      0xffffffffffffffffffffffffffffffffffffffff\n      and\n      dup2\n      mstore\n      0x20\n      add\n      swap1\n      dup2\n      mstore\n      0x20\n      add\n      0x00\n      keccak256\n      0x00\n        /* \"contracts/contract3/bank.sol\":1900:1928  delete dataBase[userAddress] */\n      dup1\n      dup3\n      add\n      0x00\n      swap1\n      sstore\n      0x01\n      dup3\n      add\n      0x00\n      tag_203\n      swap2\n      swap1\n      tag_204\n      jump\t// in\n    tag_203:\n      pop\n      pop\n        /* \"contracts/contract3/bank.sol\":1304:1939  {... */\n      pop\n        /* \"contracts/contract3/bank.sol\":1251:1939  if (dataBase[userAddress].transactionLog.length > 0) {... */\n    tag_176:\n        /* \"contracts/contract3/bank.sol\":1157:1945  function delUserAddresses(address userAddress) private {... */\n      pop\n      jump\t// out\n    tag_147:\n      pop\n      dup1\n      sload\n      0x00\n      dup3\n      sstore\n      swap1\n      0x00\n      mstore\n      keccak256(0x00, 0x20)\n      swap1\n      dup2\n      add\n      swap1\n      tag_206\n      swap2\n      swap1\n      tag_207\n      jump\t// in\n    tag_206:\n      pop\n      jump\t// out\n    tag_204:\n      pop\n      dup1\n      sload\n      0x00\n      dup3\n      sstore\n      0x03\n      mul\n      swap1\n      0x00\n      mstore\n      keccak256(0x00, 0x20)\n      swap1\n      dup2\n      add\n      swap1\n      tag_209\n      swap2\n      swap1\n      tag_210\n      jump\t// in\n    tag_209:\n      pop\n      jump\t// out\n    tag_207:\n    tag_211:\n      dup1\n      dup3\n      gt\n      iszero\n      tag_212\n      jumpi\n      0x00\n      dup2\n      0x00\n      swap1\n      sstore\n      pop\n      0x01\n      add\n      jump(tag_211)\n    tag_212:\n      pop\n      swap1\n      jump\t// out\n    tag_210:\n    tag_213:\n      dup1\n      dup3\n      gt\n      iszero\n      tag_214\n      jumpi\n      0x00\n      dup1\n      dup3\n      add\n      0x00\n      swap1\n      sstore\n      0x01\n      dup3\n      add\n      0x00\n      tag_215\n      swap2\n      swap1\n      tag_216\n      jump\t// in\n    tag_215:\n      0x02\n      dup3\n      add\n      0x00\n      swap1\n      sstore\n      pop\n      0x03\n      add\n      jump(tag_213)\n    tag_214:\n      pop\n      swap1\n      jump\t// out\n    tag_216:\n      pop\n      dup1\n      sload\n      tag_217\n      swap1\n      tag_218\n      jump\t// in\n    tag_217:\n      0x00\n      dup3\n      sstore\n      dup1\n      0x1f\n      lt\n      tag_220\n      jumpi\n      pop\n      jump(tag_219)\n    tag_220:\n      0x1f\n      add\n      0x20\n      swap1\n      div\n      swap1\n      0x00\n      mstore\n      keccak256(0x00, 0x20)\n      swap1\n      dup2\n      add\n      swap1\n      tag_221\n      swap2\n      swap1\n      tag_207\n      jump\t// in\n    tag_221:\n    tag_219:\n      pop\n      jump\t// out\n        /* \"#utility.yul\":7:84   */\n    tag_222:\n        /* \"#utility.yul\":44:51   */\n      0x00\n        /* \"#utility.yul\":73:78   */\n      dup2\n        /* \"#utility.yul\":62:78   */\n      swap1\n      pop\n        /* \"#utility.yul\":7:84   */\n      swap2\n      swap1\n      pop\n      jump\t// out\n        /* \"#utility.yul\":90:270   */\n    tag_223:\n        /* \"#utility.yul\":138:215   */\n      0x4e487b7100000000000000000000000000000000000000000000000000000000\n        /* \"#utility.yul\":135:136   */\n      0x00\n        /* \"#utility.yul\":128:216   */\n      mstore\n        /* \"#utility.yul\":235:239   */\n      0x11\n        /* \"#utility.yul\":232:233   */\n      0x04\n        /* \"#utility.yul\":225:240   */\n      mstore\n        /* \"#utility.yul\":259:263   */\n      0x24\n        /* \"#utility.yul\":256:257   */\n      0x00\n        /* \"#utility.yul\":249:264   */\n      revert\n        /* \"#utility.yul\":276:467   */\n    tag_18:\n        /* \"#utility.yul\":316:319   */\n      0x00\n        /* \"#utility.yul\":335:355   */\n      tag_277\n        /* \"#utility.yul\":353:354   */\n      dup3\n        /* \"#utility.yul\":335:355   */\n      tag_222\n      jump\t// in\n    tag_277:\n        /* \"#utility.yul\":330:355   */\n      swap2\n      pop\n        /* \"#utility.yul\":369:389   */\n      tag_278\n        /* \"#utility.yul\":387:388   */\n      dup4\n        /* \"#utility.yul\":369:389   */\n      tag_222\n      jump\t// in\n    tag_278:\n        /* \"#utility.yul\":364:389   */\n      swap3\n      pop\n        /* \"#utility.yul\":412:413   */\n      dup3\n        /* \"#utility.yul\":409:410   */\n      dup3\n        /* \"#utility.yul\":405:414   */\n      add\n        /* \"#utility.yul\":398:414   */\n      swap1\n      pop\n        /* \"#utility.yul\":433:436   */\n      dup1\n        /* \"#utility.yul\":430:431   */\n      dup3\n        /* \"#utility.yul\":427:437   */\n      gt\n        /* \"#utility.yul\":424:460   */\n      iszero\n      tag_279\n      jumpi\n        /* \"#utility.yul\":440:458   */\n      tag_280\n      tag_223\n      jump\t// in\n    tag_280:\n        /* \"#utility.yul\":424:460   */\n    tag_279:\n        /* \"#utility.yul\":276:467   */\n      swap3\n      swap2\n      pop\n      pop\n      jump\t// out\n        /* \"#utility.yul\":473:572   */\n    tag_224:\n        /* \"#utility.yul\":525:531   */\n      0x00\n        /* \"#utility.yul\":559:564   */\n      dup2\n        /* \"#utility.yul\":553:565   */\n      mload\n        /* \"#utility.yul\":543:565   */\n      swap1\n      pop\n        /* \"#utility.yul\":473:572   */\n      swap2\n      swap1\n      pop\n      jump\t// out\n        /* \"#utility.yul\":578:758   */\n    tag_225:\n        /* \"#utility.yul\":626:703   */\n      0x4e487b7100000000000000000000000000000000000000000000000000000000\n        /* \"#utility.yul\":623:624   */\n      0x00\n        /* \"#utility.yul\":616:704   */\n      mstore\n        /* \"#utility.yul\":723:727   */\n      0x41\n        /* \"#utility.yul\":720:721   */\n      0x04\n        /* \"#utility.yul\":713:728   */\n      mstore\n        /* \"#utility.yul\":747:751   */\n      0x24\n        /* \"#utility.yul\":744:745   */\n      0x00\n        /* \"#utility.yul\":737:752   */\n      revert\n        /* \"#utility.yul\":764:944   */\n    tag_226:\n        /* \"#utility.yul\":812:889   */\n      0x4e487b7100000000000000000000000000000000000000000000000000000000\n        /* \"#utility.yul\":809:810   */\n      0x00\n        /* \"#utility.yul\":802:890   */\n      mstore\n        /* \"#utility.yul\":909:913   */\n      0x22\n        /* \"#utility.yul\":906:907   */\n      0x04\n        /* \"#utility.yul\":899:914   */\n      mstore\n        /* \"#utility.yul\":933:937   */\n      0x24\n        /* \"#utility.yul\":930:931   */\n      0x00\n        /* \"#utility.yul\":923:938   */\n      revert\n        /* \"#utility.yul\":950:1270   */\n    tag_218:\n        /* \"#utility.yul\":994:1000   */\n      0x00\n        /* \"#utility.yul\":1031:1032   */\n      0x02\n        /* \"#utility.yul\":1025:1029   */\n      dup3\n        /* \"#utility.yul\":1021:1033   */\n      div\n        /* \"#utility.yul\":1011:1033   */\n      swap1\n      pop\n        /* \"#utility.yul\":1078:1079   */\n      0x01\n        /* \"#utility.yul\":1072:1076   */\n      dup3\n        /* \"#utility.yul\":1068:1080   */\n      and\n        /* \"#utility.yul\":1099:1117   */\n      dup1\n        /* \"#utility.yul\":1089:1170   */\n      tag_285\n      jumpi\n        /* \"#utility.yul\":1155:1159   */\n      0x7f\n        /* \"#utility.yul\":1147:1153   */\n      dup3\n        /* \"#utility.yul\":1143:1160   */\n      and\n        /* \"#utility.yul\":1133:1160   */\n      swap2\n      pop\n        /* \"#utility.yul\":1089:1170   */\n    tag_285:\n        /* \"#utility.yul\":1217:1219   */\n      0x20\n        /* \"#utility.yul\":1209:1215   */\n      dup3\n        /* \"#utility.yul\":1206:1220   */\n      lt\n        /* \"#utility.yul\":1186:1204   */\n      dup2\n        /* \"#utility.yul\":1183:1221   */\n      sub\n        /* \"#utility.yul\":1180:1264   */\n      tag_286\n      jumpi\n        /* \"#utility.yul\":1236:1254   */\n      tag_287\n      tag_226\n      jump\t// in\n    tag_287:\n        /* \"#utility.yul\":1180:1264   */\n    tag_286:\n        /* \"#utility.yul\":1001:1270   */\n      pop\n        /* \"#utility.yul\":950:1270   */\n      swap2\n      swap1\n      pop\n      jump\t// out\n        /* \"#utility.yul\":1276:1417   */\n    tag_227:\n        /* \"#utility.yul\":1325:1329   */\n      0x00\n        /* \"#utility.yul\":1348:1351   */\n      dup2\n        /* \"#utility.yul\":1340:1351   */\n      swap1\n      pop\n        /* \"#utility.yul\":1371:1374   */\n      dup2\n        /* \"#utility.yul\":1368:1369   */\n      0x00\n        /* \"#utility.yul\":1361:1375   */\n      mstore\n        /* \"#utility.yul\":1405:1409   */\n      0x20\n        /* \"#utility.yul\":1402:1403   */\n      0x00\n        /* \"#utility.yul\":1392:1410   */\n      keccak256\n        /* \"#utility.yul\":1384:1410   */\n      swap1\n      pop\n        /* \"#utility.yul\":1276:1417   */\n      swap2\n      swap1\n      pop\n      jump\t// out\n        /* \"#utility.yul\":1423:1516   */\n    tag_228:\n        /* \"#utility.yul\":1460:1466   */\n      0x00\n        /* \"#utility.yul\":1507:1509   */\n      0x20\n        /* \"#utility.yul\":1502:1504   */\n      0x1f\n        /* \"#utility.yul\":1495:1500   */\n      dup4\n        /* \"#utility.yul\":1491:1505   */\n      add\n        /* \"#utility.yul\":1487:1510   */\n      div\n        /* \"#utility.yul\":1477:1510   */\n      swap1\n      pop\n        /* \"#utility.yul\":1423:1516   */\n      swap2\n      swap1\n      pop\n      jump\t// out\n        /* \"#utility.yul\":1522:1629   */\n    tag_229:\n        /* \"#utility.yul\":1566:1574   */\n      0x00\n        /* \"#utility.yul\":1616:1621   */\n      dup3\n        /* \"#utility.yul\":1610:1614   */\n      dup3\n        /* \"#utility.yul\":1606:1622   */\n      shl\n        /* \"#utility.yul\":1585:1622   */\n      swap1\n      pop\n        /* \"#utility.yul\":1522:1629   */\n      swap3\n      swap2\n      pop\n      pop\n      jump\t// out\n        /* \"#utility.yul\":1635:2028   */\n    tag_230:\n        /* \"#utility.yul\":1704:1710   */\n      0x00\n        /* \"#utility.yul\":1754:1755   */\n      0x08\n        /* \"#utility.yul\":1742:1752   */\n      dup4\n        /* \"#utility.yul\":1738:1756   */\n      mul\n        /* \"#utility.yul\":1777:1874   */\n      tag_292\n        /* \"#utility.yul\":1807:1873   */\n      0xffffffffffffffffffffffffffffffffffffffffffffffffffffffffffffffff\n        /* \"#utility.yul\":1796:1805   */\n      dup3\n        /* \"#utility.yul\":1777:1874   */\n      tag_229\n      jump\t// in\n    tag_292:\n        /* \"#utility.yul\":1895:1934   */\n      tag_293\n        /* \"#utility.yul\":1925:1933   */\n      dup7\n        /* \"#utility.yul\":1914:1923   */\n      dup4\n        /* \"#utility.yul\":1895:1934   */\n      tag_229\n      jump\t// in\n    tag_293:\n        /* \"#utility.yul\":1883:1934   */\n      swap6\n      pop\n        /* \"#utility.yul\":1967:1971   */\n      dup1\n        /* \"#utility.yul\":1963:1972   */\n      not\n        /* \"#utility.yul\":1956:1961   */\n      dup5\n        /* \"#utility.yul\":1952:1973   */\n      and\n        /* \"#utility.yul\":1943:1973   */\n      swap4\n      pop\n        /* \"#utility.yul\":2016:2020   */\n      dup1\n        /* \"#utility.yul\":2006:2014   */\n      dup7\n        /* \"#utility.yul\":2002:2021   */\n      and\n        /* \"#utility.yul\":1995:2000   */\n      dup5\n        /* \"#utility.yul\":1992:2022   */\n      or\n        /* \"#utility.yul\":1982:2022   */\n      swap3\n      pop\n        /* \"#utility.yul\":1711:2028   */\n      pop\n      pop\n        /* \"#utility.yul\":1635:2028   */\n      swap4\n      swap3\n      pop\n      pop\n      pop\n      jump\t// out\n        /* \"#utility.yul\":2034:2094   */\n    tag_231:\n        /* \"#utility.yul\":2062:2065   */\n      0x00\n        /* \"#utility.yul\":2083:2088   */\n      dup2\n        /* \"#utility.yul\":2076:2088   */\n      swap1\n      pop\n        /* \"#utility.yul\":2034:2094   */\n      swap2\n      swap1\n      pop\n      jump\t// out\n        /* \"#utility.yul\":2100:2242   */\n    tag_232:\n        /* \"#utility.yul\":2150:2159   */\n      0x00\n        /* \"#utility.yul\":2183:2236   */\n      tag_296\n        /* \"#utility.yul\":2201:2235   */\n      tag_297\n        /* \"#utility.yul\":2210:2234   */\n      tag_298\n        /* \"#utility.yul\":2228:2233   */\n      dup5\n        /* \"#utility.yul\":2210:2234   */\n      tag_222\n      jump\t// in\n    tag_298:\n        /* \"#utility.yul\":2201:2235   */\n      tag_231\n      jump\t// in\n    tag_297:\n        /* \"#utility.yul\":2183:2236   */\n      tag_222\n      jump\t// in\n    tag_296:\n        /* \"#utility.yul\":2170:2236   */\n      swap1\n      pop\n        /* \"#utility.yul\":2100:2242   */\n      swap2\n      swap1\n      pop\n      jump\t// out\n        /* \"#utility.yul\":2248:2323   */\n    tag_233:\n        /* \"#utility.yul\":2291:2294   */\n      0x00\n        /* \"#utility.yul\":2312:2317   */\n      dup2\n        /* \"#utility.yul\":2305:2317   */\n      swap1\n      pop\n        /* \"#utility.yul\":2248:2323   */\n      swap2\n      swap1\n      pop\n      jump\t// out\n        /* \"#utility.yul\":2329:2598   */\n    tag_234:\n        /* \"#utility.yul\":2439:2478   */\n      tag_301\n        /* \"#utility.yul\":2470:2477   */\n      dup4\n        /* \"#utility.yul\":2439:2478   */\n      tag_232\n      jump\t// in\n    tag_301:\n        /* \"#utility.yul\":2500:2591   */\n      tag_302\n        /* \"#utility.yul\":2549:2590   */\n      tag_303\n        /* \"#utility.yul\":2573:2589   */\n      dup3\n        /* \"#utility.yul\":2549:2590   */\n      tag_233\n      jump\t// in\n    tag_303:\n        /* \"#utility.yul\":2541:2547   */\n      dup5\n        /* \"#utility.yul\":2534:2538   */\n      dup5\n        /* \"#utility.yul\":2528:2539   */\n      sload\n        /* \"#utility.yul\":2500:2591   */\n      tag_230\n      jump\t// in\n    tag_302:\n        /* \"#utility.yul\":2494:2498   */\n      dup3\n        /* \"#utility.yul\":2487:2592   */\n      sstore\n        /* \"#utility.yul\":2405:2598   */\n      pop\n        /* \"#utility.yul\":2329:2598   */\n      pop\n      pop\n      pop\n      jump\t// out\n        /* \"#utility.yul\":2604:2677   */\n    tag_235:\n        /* \"#utility.yul\":2649:2652   */\n      0x00\n        /* \"#utility.yul\":2604:2677   */\n      swap1\n      jump\t// out\n        /* \"#utility.yul\":2683:2872   */\n    tag_236:\n        /* \"#utility.yul\":2760:2792   */\n      tag_306\n      tag_235\n      jump\t// in\n    tag_306:\n        /* \"#utility.yul\":2801:2866   */\n      tag_307\n        /* \"#utility.yul\":2859:2865   */\n      dup2\n        /* \"#utility.yul\":2851:2857   */\n      dup5\n        /* \"#utility.yul\":2845:2849   */\n      dup5\n        /* \"#utility.yul\":2801:2866   */\n      tag_234\n      jump\t// in\n    tag_307:\n        /* \"#utility.yul\":2736:2872   */\n      pop\n        /* \"#utility.yul\":2683:2872   */\n      pop\n      pop\n      jump\t// out\n        /* \"#utility.yul\":2878:3064   */\n    tag_237:\n        /* \"#utility.yul\":2938:3058   */\n    tag_309:\n        /* \"#utility.yul\":2955:2958   */\n      dup2\n        /* \"#utility.yul\":2948:2953   */\n      dup2\n        /* \"#utility.yul\":2945:2959   */\n      lt\n        /* \"#utility.yul\":2938:3058   */\n      iszero\n      tag_311\n      jumpi\n        /* \"#utility.yul\":3009:3048   */\n      tag_312\n        /* \"#utility.yul\":3046:3047   */\n      0x00\n        /* \"#utility.yul\":3039:3044   */\n      dup3\n        /* \"#utility.yul\":3009:3048   */\n      tag_236\n      jump\t// in\n    tag_312:\n        /* \"#utility.yul\":2982:2983   */\n      0x01\n        /* \"#utility.yul\":2975:2980   */\n      dup2\n        /* \"#utility.yul\":2971:2984   */\n      add\n        /* \"#utility.yul\":2962:2984   */\n      swap1\n      pop\n        /* \"#utility.yul\":2938:3058   */\n      jump(tag_309)\n    tag_311:\n        /* \"#utility.yul\":2878:3064   */\n      pop\n      pop\n      jump\t// out\n        /* \"#utility.yul\":3070:3613   */\n    tag_238:\n        /* \"#utility.yul\":3171:3173   */\n      0x1f\n        /* \"#utility.yul\":3166:3169   */\n      dup3\n        /* \"#utility.yul\":3163:3174   */\n      gt\n        /* \"#utility.yul\":3160:3606   */\n      iszero\n      tag_314\n      jumpi\n        /* \"#utility.yul\":3205:3243   */\n      tag_315\n        /* \"#utility.yul\":3237:3242   */\n      dup2\n        /* \"#utility.yul\":3205:3243   */\n      tag_227\n      jump\t// in\n    tag_315:\n        /* \"#utility.yul\":3289:3318   */\n      tag_316\n        /* \"#utility.yul\":3307:3317   */\n      dup5\n        /* \"#utility.yul\":3289:3318   */\n      tag_228\n      jump\t// in\n    tag_316:\n        /* \"#utility.yul\":3279:3287   */\n      dup2\n        /* \"#utility.yul\":3275:3319   */\n      add\n        /* \"#utility.yul\":3472:3474   */\n      0x20\n        /* \"#utility.yul\":3460:3470   */\n      dup6\n        /* \"#utility.yul\":3457:3475   */\n      lt\n        /* \"#utility.yul\":3454:3503   */\n      iszero\n      tag_317\n      jumpi\n        /* \"#utility.yul\":3493:3501   */\n      dup2\n        /* \"#utility.yul\":3478:3501   */\n      swap1\n      pop\n        /* \"#utility.yul\":3454:3503   */\n    tag_317:\n        /* \"#utility.yul\":3516:3596   */\n      tag_318\n        /* \"#utility.yul\":3572:3594   */\n      tag_319\n        /* \"#utility.yul\":3590:3593   */\n      dup6\n        /* \"#utility.yul\":3572:3594   */\n      tag_228\n      jump\t// in\n    tag_319:\n        /* \"#utility.yul\":3562:3570   */\n      dup4\n        /* \"#utility.yul\":3558:3595   */\n      add\n        /* \"#utility.yul\":3545:3556   */\n      dup3\n        /* \"#utility.yul\":3516:3596   */\n      tag_237\n      jump\t// in\n    tag_318:\n        /* \"#utility.yul\":3175:3606   */\n      pop\n      pop\n        /* \"#utility.yul\":3160:3606   */\n    tag_314:\n        /* \"#utility.yul\":3070:3613   */\n      pop\n      pop\n      pop\n      jump\t// out\n        /* \"#utility.yul\":3619:3736   */\n    tag_239:\n        /* \"#utility.yul\":3673:3681   */\n      0x00\n        /* \"#utility.yul\":3723:3728   */\n      dup3\n        /* \"#utility.yul\":3717:3721   */\n      dup3\n        /* \"#utility.yul\":3713:3729   */\n      shr\n        /* \"#utility.yul\":3692:3729   */\n      swap1\n      pop\n        /* \"#utility.yul\":3619:3736   */\n      swap3\n      swap2\n      pop\n      pop\n      jump\t// out\n        /* \"#utility.yul\":3742:3911   */\n    tag_240:\n        /* \"#utility.yul\":3786:3792   */\n      0x00\n        /* \"#utility.yul\":3819:3870   */\n      tag_322\n        /* \"#utility.yul\":3867:3868   */\n      0x00\n        /* \"#utility.yul\":3863:3869   */\n      not\n        /* \"#utility.yul\":3855:3860   */\n      dup5\n        /* \"#utility.yul\":3852:3853   */\n      0x08\n        /* \"#utility.yul\":3848:3861   */\n      mul\n        /* \"#utility.yul\":3819:3870   */\n      tag_239\n      jump\t// in\n    tag_322:\n        /* \"#utility.yul\":3815:3871   */\n      not\n        /* \"#utility.yul\":3900:3904   */\n      dup1\n        /* \"#utility.yul\":3894:3898   */\n      dup4\n        /* \"#utility.yul\":3890:3905   */\n      and\n        /* \"#utility.yul\":3880:3905   */\n      swap2\n      pop\n        /* \"#utility.yul\":3793:3911   */\n      pop\n        /* \"#utility.yul\":3742:3911   */\n      swap3\n      swap2\n      pop\n      pop\n      jump\t// out\n        /* \"#utility.yul\":3916:4211   */\n    tag_241:\n        /* \"#utility.yul\":3992:3996   */\n      0x00\n        /* \"#utility.yul\":4138:4167   */\n      tag_324\n        /* \"#utility.yul\":4163:4166   */\n      dup4\n        /* \"#utility.yul\":4157:4161   */\n      dup4\n        /* \"#utility.yul\":4138:4167   */\n      tag_240\n      jump\t// in\n    tag_324:\n        /* \"#utility.yul\":4130:4167   */\n      swap2\n      pop\n        /* \"#utility.yul\":4200:4203   */\n      dup3\n        /* \"#utility.yul\":4197:4198   */\n      0x02\n        /* \"#utility.yul\":4193:4204   */\n      mul\n        /* \"#utility.yul\":4187:4191   */\n      dup3\n        /* \"#utility.yul\":4184:4205   */\n      or\n        /* \"#utility.yul\":4176:4205   */\n      swap1\n      pop\n        /* \"#utility.yul\":3916:4211   */\n      swap3\n      swap2\n      pop\n      pop\n      jump\t// out\n        /* \"#utility.yul\":4216:5611   */\n    tag_21:\n        /* \"#utility.yul\":4333:4370   */\n      tag_326\n        /* \"#utility.yul\":4366:4369   */\n      dup3\n        /* \"#utility.yul\":4333:4370   */\n      tag_224\n      jump\t// in\n    tag_326:\n        /* \"#utility.yul\":4435:4453   */\n      0xffffffffffffffff\n        /* \"#utility.yul\":4427:4433   */\n      dup2\n        /* \"#utility.yul\":4424:4454   */\n      gt\n        /* \"#utility.yul\":4421:4477   */\n      iszero\n      tag_327\n      jumpi\n        /* \"#utility.yul\":4457:4475   */\n      tag_328\n      tag_225\n      jump\t// in\n    tag_328:\n        /* \"#utility.yul\":4421:4477   */\n    tag_327:\n        /* \"#utility.yul\":4501:4539   */\n      tag_329\n        /* \"#utility.yul\":4533:4537   */\n      dup3\n        /* \"#utility.yul\":4527:4538   */\n      sload\n        /* \"#utility.yul\":4501:4539   */\n      tag_218\n      jump\t// in\n    tag_329:\n        /* \"#utility.yul\":4586:4653   */\n      tag_330\n        /* \"#utility.yul\":4646:4652   */\n      dup3\n        /* \"#utility.yul\":4638:4644   */\n      dup3\n        /* \"#utility.yul\":4632:4636   */\n      dup6\n        /* \"#utility.yul\":4586:4653   */\n      tag_238\n      jump\t// in\n    tag_330:\n        /* \"#utility.yul\":4680:4681   */\n      0x00\n        /* \"#utility.yul\":4704:4708   */\n      0x20\n        /* \"#utility.yul\":4691:4708   */\n      swap1\n      pop\n        /* \"#utility.yul\":4736:4738   */\n      0x1f\n        /* \"#utility.yul\":4728:4734   */\n      dup4\n        /* \"#utility.yul\":4725:4739   */\n      gt\n        /* \"#utility.yul\":4753:4754   */\n      0x01\n        /* \"#utility.yul\":4748:5366   */\n      dup2\n      eq\n      tag_332\n      jumpi\n        /* \"#utility.yul\":5410:5411   */\n      0x00\n        /* \"#utility.yul\":5427:5433   */\n      dup5\n        /* \"#utility.yul\":5424:5501   */\n      iszero\n      tag_333\n      jumpi\n        /* \"#utility.yul\":5476:5485   */\n      dup3\n        /* \"#utility.yul\":5471:5474   */\n      dup8\n        /* \"#utility.yul\":5467:5486   */\n      add\n        /* \"#utility.yul\":5461:5487   */\n      mload\n        /* \"#utility.yul\":5452:5487   */\n      swap1\n      pop\n        /* \"#utility.yul\":5424:5501   */\n    tag_333:\n        /* \"#utility.yul\":5527:5594   */\n      tag_334\n        /* \"#utility.yul\":5587:5593   */\n      dup6\n        /* \"#utility.yul\":5580:5585   */\n      dup3\n        /* \"#utility.yul\":5527:5594   */\n      tag_241\n      jump\t// in\n    tag_334:\n        /* \"#utility.yul\":5521:5525   */\n      dup7\n        /* \"#utility.yul\":5514:5595   */\n      sstore\n        /* \"#utility.yul\":5383:5605   */\n      pop\n        /* \"#utility.yul\":4718:5605   */\n      jump(tag_331)\n        /* \"#utility.yul\":4748:5366   */\n    tag_332:\n        /* \"#utility.yul\":4800:4804   */\n      0x1f\n        /* \"#utility.yul\":4796:4805   */\n      not\n        /* \"#utility.yul\":4788:4794   */\n      dup5\n        /* \"#utility.yul\":4784:4806   */\n      and\n        /* \"#utility.yul\":4834:4871   */\n      tag_335\n        /* \"#utility.yul\":4866:4870   */\n      dup7\n        /* \"#utility.yul\":4834:4871   */\n      tag_227\n      jump\t// in\n    tag_335:\n        /* \"#utility.yul\":4893:4894   */\n      0x00\n        /* \"#utility.yul\":4907:5115   */\n    tag_336:\n        /* \"#utility.yul\":4921:4928   */\n      dup3\n        /* \"#utility.yul\":4918:4919   */\n      dup2\n        /* \"#utility.yul\":4915:4929   */\n      lt\n        /* \"#utility.yul\":4907:5115   */\n      iszero\n      tag_338\n      jumpi\n        /* \"#utility.yul\":5000:5009   */\n      dup5\n        /* \"#utility.yul\":4995:4998   */\n      dup10\n        /* \"#utility.yul\":4991:5010   */\n      add\n        /* \"#utility.yul\":4985:5011   */\n      mload\n        /* \"#utility.yul\":4977:4983   */\n      dup3\n        /* \"#utility.yul\":4970:5012   */\n      sstore\n        /* \"#utility.yul\":5051:5052   */\n      0x01\n        /* \"#utility.yul\":5043:5049   */\n      dup3\n        /* \"#utility.yul\":5039:5053   */\n      add\n        /* \"#utility.yul\":5029:5053   */\n      swap2\n      pop\n        /* \"#utility.yul\":5098:5100   */\n      0x20\n        /* \"#utility.yul\":5087:5096   */\n      dup6\n        /* \"#utility.yul\":5083:5101   */\n      add\n        /* \"#utility.yul\":5070:5101   */\n      swap5\n      pop\n        /* \"#utility.yul\":4944:4948   */\n      0x20\n        /* \"#utility.yul\":4941:4942   */\n      dup2\n        /* \"#utility.yul\":4937:4949   */\n      add\n        /* \"#utility.yul\":4932:4949   */\n      swap1\n      pop\n        /* \"#utility.yul\":4907:5115   */\n      jump(tag_336)\n    tag_338:\n        /* \"#utility.yul\":5143:5149   */\n      dup7\n        /* \"#utility.yul\":5134:5141   */\n      dup4\n        /* \"#utility.yul\":5131:5150   */\n      lt\n        /* \"#utility.yul\":5128:5307   */\n      iszero\n      tag_339\n      jumpi\n        /* \"#utility.yul\":5201:5210   */\n      dup5\n        /* \"#utility.yul\":5196:5199   */\n      dup10\n        /* \"#utility.yul\":5192:5211   */\n      add\n        /* \"#utility.yul\":5186:5212   */\n      mload\n        /* \"#utility.yul\":5244:5292   */\n      tag_340\n        /* \"#utility.yul\":5286:5290   */\n      0x1f\n        /* \"#utility.yul\":5278:5284   */\n      dup10\n        /* \"#utility.yul\":5274:5291   */\n      and\n        /* \"#utility.yul\":5263:5272   */\n      dup3\n        /* \"#utility.yul\":5244:5292   */\n      tag_240\n      jump\t// in\n    tag_340:\n        /* \"#utility.yul\":5236:5242   */\n      dup4\n        /* \"#utility.yul\":5229:5293   */\n      sstore\n        /* \"#utility.yul\":5151:5307   */\n      pop\n        /* \"#utility.yul\":5128:5307   */\n    tag_339:\n        /* \"#utility.yul\":5353:5354   */\n      0x01\n        /* \"#utility.yul\":5349:5350   */\n      0x02\n        /* \"#utility.yul\":5341:5347   */\n      dup9\n        /* \"#utility.yul\":5337:5351   */\n      mul\n        /* \"#utility.yul\":5333:5355   */\n      add\n        /* \"#utility.yul\":5327:5331   */\n      dup9\n        /* \"#utility.yul\":5320:5356   */\n      sstore\n        /* \"#utility.yul\":4755:5366   */\n      pop\n      pop\n      pop\n        /* \"#utility.yul\":4718:5605   */\n    tag_331:\n      pop\n        /* \"#utility.yul\":4308:5611   */\n      pop\n      pop\n      pop\n        /* \"#utility.yul\":4216:5611   */\n      pop\n      pop\n      jump\t// out\n        /* \"#utility.yul\":5617:5735   */\n    tag_242:\n        /* \"#utility.yul\":5704:5728   */\n      tag_342\n        /* \"#utility.yul\":5722:5727   */\n      dup2\n        /* \"#utility.yul\":5704:5728   */\n      tag_222\n      jump\t// in\n    tag_342:\n        /* \"#utility.yul\":5699:5702   */\n      dup3\n        /* \"#utility.yul\":5692:5729   */\n      mstore\n        /* \"#utility.yul\":5617:5735   */\n      pop\n      pop\n      jump\t// out\n        /* \"#utility.yul\":5741:5963   */\n    tag_23:\n        /* \"#utility.yul\":5834:5838   */\n      0x00\n        /* \"#utility.yul\":5872:5874   */\n      0x20\n        /* \"#utility.yul\":5861:5870   */\n      dup3\n        /* \"#utility.yul\":5857:5875   */\n      add\n        /* \"#utility.yul\":5849:5875   */\n      swap1\n      pop\n        /* \"#utility.yul\":5885:5956   */\n      tag_344\n        /* \"#utility.yul\":5953:5954   */\n      0x00\n        /* \"#utility.yul\":5942:5951   */\n      dup4\n        /* \"#utility.yul\":5938:5955   */\n      add\n        /* \"#utility.yul\":5929:5935   */\n      dup5\n        /* \"#utility.yul\":5885:5956   */\n      tag_242\n      jump\t// in\n    tag_344:\n        /* \"#utility.yul\":5741:5963   */\n      swap3\n      swap2\n      pop\n      pop\n      jump\t// out\n        /* \"#utility.yul\":5969:6138   */\n    tag_243:\n        /* \"#utility.yul\":6053:6064   */\n      0x00\n        /* \"#utility.yul\":6087:6093   */\n      dup3\n        /* \"#utility.yul\":6082:6085   */\n      dup3\n        /* \"#utility.yul\":6075:6094   */\n      mstore\n        /* \"#utility.yul\":6127:6131   */\n      0x20\n        /* \"#utility.yul\":6122:6125   */\n      dup3\n        /* \"#utility.yul\":6118:6132   */\n      add\n        /* \"#utility.yul\":6103:6132   */\n      swap1\n      pop\n        /* \"#utility.yul\":5969:6138   */\n      swap3\n      swap2\n      pop\n      pop\n      jump\t// out\n        /* \"#utility.yul\":6144:6312   */\n    tag_244:\n        /* \"#utility.yul\":6284:6304   */\n      0x6572726f7220696e206f7065726174696f6e0000000000000000000000000000\n        /* \"#utility.yul\":6280:6281   */\n      0x00\n        /* \"#utility.yul\":6272:6278   */\n      dup3\n        /* \"#utility.yul\":6268:6282   */\n      add\n        /* \"#utility.yul\":6261:6305   */\n      mstore\n        /* \"#utility.yul\":6144:6312   */\n      pop\n      jump\t// out\n        /* \"#utility.yul\":6318:6684   */\n    tag_245:\n        /* \"#utility.yul\":6460:6463   */\n      0x00\n        /* \"#utility.yul\":6481:6548   */\n      tag_348\n        /* \"#utility.yul\":6545:6547   */\n      0x12\n        /* \"#utility.yul\":6540:6543   */\n      dup4\n        /* \"#utility.yul\":6481:6548   */\n      tag_243\n      jump\t// in\n    tag_348:\n        /* \"#utility.yul\":6474:6548   */\n      swap2\n      pop\n        /* \"#utility.yul\":6557:6650   */\n      tag_349\n        /* \"#utility.yul\":6646:6649   */\n      dup3\n        /* \"#utility.yul\":6557:6650   */\n      tag_244\n      jump\t// in\n    tag_349:\n        /* \"#utility.yul\":6675:6677   */\n      0x20\n        /* \"#utility.yul\":6670:6673   */\n      dup3\n        /* \"#utility.yul\":6666:6678   */\n      add\n        /* \"#utility.yul\":6659:6678   */\n      swap1\n      pop\n        /* \"#utility.yul\":6318:6684   */\n      swap2\n      swap1\n      pop\n      jump\t// out\n        /* \"#utility.yul\":6690:7109   */\n    tag_28:\n        /* \"#utility.yul\":6856:6860   */\n      0x00\n        /* \"#utility.yul\":6894:6896   */\n      0x20\n        /* \"#utility.yul\":6883:6892   */\n      dup3\n        /* \"#utility.yul\":6879:6897   */\n      add\n        /* \"#utility.yul\":6871:6897   */\n      swap1\n      pop\n        /* \"#utility.yul\":6943:6952   */\n      dup2\n        /* \"#utility.yul\":6937:6941   */\n      dup2\n        /* \"#utility.yul\":6933:6953   */\n      sub\n        /* \"#utility.yul\":6929:6930   */\n      0x00\n        /* \"#utility.yul\":6918:6927   */\n      dup4\n        /* \"#utility.yul\":6914:6931   */\n      add\n        /* \"#utility.yul\":6907:6954   */\n      mstore\n        /* \"#utility.yul\":6971:7102   */\n      tag_351\n        /* \"#utility.yul\":7097:7101   */\n      dup2\n        /* \"#utility.yul\":6971:7102   */\n      tag_245\n      jump\t// in\n    tag_351:\n        /* \"#utility.yul\":6963:7102   */\n      swap1\n      pop\n        /* \"#utility.yul\":6690:7109   */\n      swap2\n      swap1\n      pop\n      jump\t// out\n        /* \"#utility.yul\":7196:7313   */\n    tag_247:\n        /* \"#utility.yul\":7305:7306   */\n      0x00\n        /* \"#utility.yul\":7302:7303   */\n      dup1\n        /* \"#utility.yul\":7295:7307   */\n      revert\n        /* \"#utility.yul\":7442:7568   */\n    tag_249:\n        /* \"#utility.yul\":7479:7486   */\n      0x00\n        /* \"#utility.yul\":7519:7561   */\n      0xffffffffffffffffffffffffffffffffffffffff\n        /* \"#utility.yul\":7512:7517   */\n      dup3\n        /* \"#utility.yul\":7508:7562   */\n      and\n        /* \"#utility.yul\":7497:7562   */\n      swap1\n      pop\n        /* \"#utility.yul\":7442:7568   */\n      swap2\n      swap1\n      pop\n      jump\t// out\n        /* \"#utility.yul\":7574:7670   */\n    tag_250:\n        /* \"#utility.yul\":7611:7618   */\n      0x00\n        /* \"#utility.yul\":7640:7664   */\n      tag_357\n        /* \"#utility.yul\":7658:7663   */\n      dup3\n        /* \"#utility.yul\":7640:7664   */\n      tag_249\n      jump\t// in\n    tag_357:\n        /* \"#utility.yul\":7629:7664   */\n      swap1\n      pop\n        /* \"#utility.yul\":7574:7670   */\n      swap2\n      swap1\n      pop\n      jump\t// out\n        /* \"#utility.yul\":7676:7798   */\n    tag_251:\n        /* \"#utility.yul\":7749:7773   */\n      tag_359\n        /* \"#utility.yul\":7767:7772   */\n      dup2\n        /* \"#utility.yul\":7749:7773   */\n      tag_250\n      jump\t// in\n    tag_359:\n        /* \"#utility.yul\":7742:7747   */\n      dup2\n        /* \"#utility.yul\":7739:7774   */\n      eq\n        /* \"#utility.yul\":7729:7792   */\n      tag_360\n      jumpi\n        /* \"#utility.yul\":7788:7789   */\n      0x00\n        /* \"#utility.yul\":7785:7786   */\n      dup1\n        /* \"#utility.yul\":7778:7790   */\n      revert\n        /* \"#utility.yul\":7729:7792   */\n    tag_360:\n        /* \"#utility.yul\":7676:7798   */\n      pop\n      jump\t// out\n        /* \"#utility.yul\":7804:7943   */\n    tag_252:\n        /* \"#utility.yul\":7850:7855   */\n      0x00\n        /* \"#utility.yul\":7888:7894   */\n      dup2\n        /* \"#utility.yul\":7875:7895   */\n      calldataload\n        /* \"#utility.yul\":7866:7895   */\n      swap1\n      pop\n        /* \"#utility.yul\":7904:7937   */\n      tag_362\n        /* \"#utility.yul\":7931:7936   */\n      dup2\n        /* \"#utility.yul\":7904:7937   */\n      tag_251\n      jump\t// in\n    tag_362:\n        /* \"#utility.yul\":7804:7943   */\n      swap3\n      swap2\n      pop\n      pop\n      jump\t// out\n        /* \"#utility.yul\":7949:8278   */\n    tag_36:\n        /* \"#utility.yul\":8008:8014   */\n      0x00\n        /* \"#utility.yul\":8057:8059   */\n      0x20\n        /* \"#utility.yul\":8045:8054   */\n      dup3\n        /* \"#utility.yul\":8036:8043   */\n      dup5\n        /* \"#utility.yul\":8032:8055   */\n      sub\n        /* \"#utility.yul\":8028:8060   */\n      slt\n        /* \"#utility.yul\":8025:8144   */\n      iszero\n      tag_364\n      jumpi\n        /* \"#utility.yul\":8063:8142   */\n      tag_365\n      tag_247\n      jump\t// in\n    tag_365:\n        /* \"#utility.yul\":8025:8144   */\n    tag_364:\n        /* \"#utility.yul\":8183:8184   */\n      0x00\n        /* \"#utility.yul\":8208:8261   */\n      tag_366\n        /* \"#utility.yul\":8253:8260   */\n      dup5\n        /* \"#utility.yul\":8244:8250   */\n      dup3\n        /* \"#utility.yul\":8233:8242   */\n      dup6\n        /* \"#utility.yul\":8229:8251   */\n      add\n        /* \"#utility.yul\":8208:8261   */\n      tag_252\n      jump\t// in\n    tag_366:\n        /* \"#utility.yul\":8198:8261   */\n      swap2\n      pop\n        /* \"#utility.yul\":8154:8271   */\n      pop\n        /* \"#utility.yul\":7949:8278   */\n      swap3\n      swap2\n      pop\n      pop\n      jump\t// out\n        /* \"#utility.yul\":8284:8406   */\n    tag_253:\n        /* \"#utility.yul\":8357:8381   */\n      tag_368\n        /* \"#utility.yul\":8375:8380   */\n      dup2\n        /* \"#utility.yul\":8357:8381   */\n      tag_222\n      jump\t// in\n    tag_368:\n        /* \"#utility.yul\":8350:8355   */\n      dup2\n        /* \"#utility.yul\":8347:8382   */\n      eq\n        /* \"#utility.yul\":8337:8400   */\n      tag_369\n      jumpi\n        /* \"#utility.yul\":8396:8397   */\n      0x00\n        /* \"#utility.yul\":8393:8394   */\n      dup1\n        /* \"#utility.yul\":8386:8398   */\n      revert\n        /* \"#utility.yul\":8337:8400   */\n    tag_369:\n        /* \"#utility.yul\":8284:8406   */\n      pop\n      jump\t// out\n        /* \"#utility.yul\":8412:8551   */\n    tag_254:\n        /* \"#utility.yul\":8458:8463   */\n      0x00\n        /* \"#utility.yul\":8496:8502   */\n      dup2\n        /* \"#utility.yul\":8483:8503   */\n      calldataload\n        /* \"#utility.yul\":8474:8503   */\n      swap1\n      pop\n        /* \"#utility.yul\":8512:8545   */\n      tag_371\n        /* \"#utility.yul\":8539:8544   */\n      dup2\n        /* \"#utility.yul\":8512:8545   */\n      tag_253\n      jump\t// in\n    tag_371:\n        /* \"#utility.yul\":8412:8551   */\n      swap3\n      swap2\n      pop\n      pop\n      jump\t// out\n        /* \"#utility.yul\":8557:8886   */\n    tag_45:\n        /* \"#utility.yul\":8616:8622   */\n      0x00\n        /* \"#utility.yul\":8665:8667   */\n      0x20\n        /* \"#utility.yul\":8653:8662   */\n      dup3\n        /* \"#utility.yul\":8644:8651   */\n      dup5\n        /* \"#utility.yul\":8640:8663   */\n      sub\n        /* \"#utility.yul\":8636:8668   */\n      slt\n        /* \"#utility.yul\":8633:8752   */\n      iszero\n      tag_373\n      jumpi\n        /* \"#utility.yul\":8671:8750   */\n      tag_374\n      tag_247\n      jump\t// in\n    tag_374:\n        /* \"#utility.yul\":8633:8752   */\n    tag_373:\n        /* \"#utility.yul\":8791:8792   */\n      0x00\n        /* \"#utility.yul\":8816:8869   */\n      tag_375\n        /* \"#utility.yul\":8861:8868   */\n      dup5\n        /* \"#utility.yul\":8852:8858   */\n      dup3\n        /* \"#utility.yul\":8841:8850   */\n      dup6\n        /* \"#utility.yul\":8837:8859   */\n      add\n        /* \"#utility.yul\":8816:8869   */\n      tag_254\n      jump\t// in\n    tag_375:\n        /* \"#utility.yul\":8806:8869   */\n      swap2\n      pop\n        /* \"#utility.yul\":8762:8879   */\n      pop\n        /* \"#utility.yul\":8557:8886   */\n      swap3\n      swap2\n      pop\n      pop\n      jump\t// out\n        /* \"#utility.yul\":8892:9006   */\n    tag_255:\n        /* \"#utility.yul\":8959:8965   */\n      0x00\n        /* \"#utility.yul\":8993:8998   */\n      dup2\n        /* \"#utility.yul\":8987:8999   */\n      mload\n        /* \"#utility.yul\":8977:8999   */\n      swap1\n      pop\n        /* \"#utility.yul\":8892:9006   */\n      swap2\n      swap1\n      pop\n      jump\t// out\n        /* \"#utility.yul\":9012:9196   */\n    tag_256:\n        /* \"#utility.yul\":9111:9122   */\n      0x00\n        /* \"#utility.yul\":9145:9151   */\n      dup3\n        /* \"#utility.yul\":9140:9143   */\n      dup3\n        /* \"#utility.yul\":9133:9152   */\n      mstore\n        /* \"#utility.yul\":9185:9189   */\n      0x20\n        /* \"#utility.yul\":9180:9183   */\n      dup3\n        /* \"#utility.yul\":9176:9190   */\n      add\n        /* \"#utility.yul\":9161:9190   */\n      swap1\n      pop\n        /* \"#utility.yul\":9012:9196   */\n      swap3\n      swap2\n      pop\n      pop\n      jump\t// out\n        /* \"#utility.yul\":9202:9334   */\n    tag_257:\n        /* \"#utility.yul\":9269:9273   */\n      0x00\n        /* \"#utility.yul\":9292:9295   */\n      dup2\n        /* \"#utility.yul\":9284:9295   */\n      swap1\n      pop\n        /* \"#utility.yul\":9322:9326   */\n      0x20\n        /* \"#utility.yul\":9317:9320   */\n      dup3\n        /* \"#utility.yul\":9313:9327   */\n      add\n        /* \"#utility.yul\":9305:9327   */\n      swap1\n      pop\n        /* \"#utility.yul\":9202:9334   */\n      swap2\n      swap1\n      pop\n      jump\t// out\n        /* \"#utility.yul\":9340:9448   */\n    tag_258:\n        /* \"#utility.yul\":9417:9441   */\n      tag_380\n        /* \"#utility.yul\":9435:9440   */\n      dup2\n        /* \"#utility.yul\":9417:9441   */\n      tag_250\n      jump\t// in\n    tag_380:\n        /* \"#utility.yul\":9412:9415   */\n      dup3\n        /* \"#utility.yul\":9405:9442   */\n      mstore\n        /* \"#utility.yul\":9340:9448   */\n      pop\n      pop\n      jump\t// out\n        /* \"#utility.yul\":9454:9633   */\n    tag_259:\n        /* \"#utility.yul\":9523:9533   */\n      0x00\n        /* \"#utility.yul\":9544:9590   */\n      tag_382\n        /* \"#utility.yul\":9586:9589   */\n      dup4\n        /* \"#utility.yul\":9578:9584   */\n      dup4\n        /* \"#utility.yul\":9544:9590   */\n      tag_258\n      jump\t// in\n    tag_382:\n        /* \"#utility.yul\":9622:9626   */\n      0x20\n        /* \"#utility.yul\":9617:9620   */\n      dup4\n        /* \"#utility.yul\":9613:9627   */\n      add\n        /* \"#utility.yul\":9599:9627   */\n      swap1\n      pop\n        /* \"#utility.yul\":9454:9633   */\n      swap3\n      swap2\n      pop\n      pop\n      jump\t// out\n        /* \"#utility.yul\":9639:9752   */\n    tag_260:\n        /* \"#utility.yul\":9709:9713   */\n      0x00\n        /* \"#utility.yul\":9741:9745   */\n      0x20\n        /* \"#utility.yul\":9736:9739   */\n      dup3\n        /* \"#utility.yul\":9732:9746   */\n      add\n        /* \"#utility.yul\":9724:9746   */\n      swap1\n      pop\n        /* \"#utility.yul\":9639:9752   */\n      swap2\n      swap1\n      pop\n      jump\t// out\n        /* \"#utility.yul\":9788:10520   */\n    tag_261:\n        /* \"#utility.yul\":9907:9910   */\n      0x00\n        /* \"#utility.yul\":9936:9990   */\n      tag_385\n        /* \"#utility.yul\":9984:9989   */\n      dup3\n        /* \"#utility.yul\":9936:9990   */\n      tag_255\n      jump\t// in\n    tag_385:\n        /* \"#utility.yul\":10006:10092   */\n      tag_386\n        /* \"#utility.yul\":10085:10091   */\n      dup2\n        /* \"#utility.yul\":10080:10083   */\n      dup6\n        /* \"#utility.yul\":10006:10092   */\n      tag_256\n      jump\t// in\n    tag_386:\n        /* \"#utility.yul\":9999:10092   */\n      swap4\n      pop\n        /* \"#utility.yul\":10116:10172   */\n      tag_387\n        /* \"#utility.yul\":10166:10171   */\n      dup4\n        /* \"#utility.yul\":10116:10172   */\n      tag_257\n      jump\t// in\n    tag_387:\n        /* \"#utility.yul\":10195:10202   */\n      dup1\n        /* \"#utility.yul\":10226:10227   */\n      0x00\n        /* \"#utility.yul\":10211:10495   */\n    tag_388:\n        /* \"#utility.yul\":10236:10242   */\n      dup4\n        /* \"#utility.yul\":10233:10234   */\n      dup2\n        /* \"#utility.yul\":10230:10243   */\n      lt\n        /* \"#utility.yul\":10211:10495   */\n      iszero\n      tag_390\n      jumpi\n        /* \"#utility.yul\":10312:10318   */\n      dup2\n        /* \"#utility.yul\":10306:10319   */\n      mload\n        /* \"#utility.yul\":10339:10402   */\n      tag_391\n        /* \"#utility.yul\":10398:10401   */\n      dup9\n        /* \"#utility.yul\":10383:10396   */\n      dup3\n        /* \"#utility.yul\":10339:10402   */\n      tag_259\n      jump\t// in\n    tag_391:\n        /* \"#utility.yul\":10332:10402   */\n      swap8\n      pop\n        /* \"#utility.yul\":10425:10485   */\n      tag_392\n        /* \"#utility.yul\":10478:10484   */\n      dup4\n        /* \"#utility.yul\":10425:10485   */\n      tag_260\n      jump\t// in\n    tag_392:\n        /* \"#utility.yul\":10415:10485   */\n      swap3\n      pop\n        /* \"#utility.yul\":10271:10495   */\n      pop\n        /* \"#utility.yul\":10258:10259   */\n      0x01\n        /* \"#utility.yul\":10255:10256   */\n      dup2\n        /* \"#utility.yul\":10251:10260   */\n      add\n        /* \"#utility.yul\":10246:10260   */\n      swap1\n      pop\n        /* \"#utility.yul\":10211:10495   */\n      jump(tag_388)\n    tag_390:\n        /* \"#utility.yul\":10215:10229   */\n      pop\n        /* \"#utility.yul\":10511:10514   */\n      dup6\n        /* \"#utility.yul\":10504:10514   */\n      swap4\n      pop\n        /* \"#utility.yul\":9912:10520   */\n      pop\n      pop\n      pop\n        /* \"#utility.yul\":9788:10520   */\n      swap3\n      swap2\n      pop\n      pop\n      jump\t// out\n        /* \"#utility.yul\":10526:10899   */\n    tag_51:\n        /* \"#utility.yul\":10669:10673   */\n      0x00\n        /* \"#utility.yul\":10707:10709   */\n      0x20\n        /* \"#utility.yul\":10696:10705   */\n      dup3\n        /* \"#utility.yul\":10692:10710   */\n      add\n        /* \"#utility.yul\":10684:10710   */\n      swap1\n      pop\n        /* \"#utility.yul\":10756:10765   */\n      dup2\n        /* \"#utility.yul\":10750:10754   */\n      dup2\n        /* \"#utility.yul\":10746:10766   */\n      sub\n        /* \"#utility.yul\":10742:10743   */\n      0x00\n        /* \"#utility.yul\":10731:10740   */\n      dup4\n        /* \"#utility.yul\":10727:10744   */\n      add\n        /* \"#utility.yul\":10720:10767   */\n      mstore\n        /* \"#utility.yul\":10784:10892   */\n      tag_394\n        /* \"#utility.yul\":10887:10891   */\n      dup2\n        /* \"#utility.yul\":10878:10884   */\n      dup5\n        /* \"#utility.yul\":10784:10892   */\n      tag_261\n      jump\t// in\n    tag_394:\n        /* \"#utility.yul\":10776:10892   */\n      swap1\n      pop\n        /* \"#utility.yul\":10526:10899   */\n      swap3\n      swap2\n      pop\n      pop\n      jump\t// out\n        /* \"#utility.yul\":10905:11065   */\n    tag_262:\n        /* \"#utility.yul\":11045:11057   */\n      0x466f7262696464656e2e00000000000000000000000000000000000000000000\n        /* \"#utility.yul\":11041:11042   */\n      0x00\n        /* \"#utility.yul\":11033:11039   */\n      dup3\n        /* \"#utility.yul\":11029:11043   */\n      add\n        /* \"#utility.yul\":11022:11058   */\n      mstore\n        /* \"#utility.yul\":10905:11065   */\n      pop\n      jump\t// out\n        /* \"#utility.yul\":11071:11437   */\n    tag_263:\n        /* \"#utility.yul\":11213:11216   */\n      0x00\n        /* \"#utility.yul\":11234:11301   */\n      tag_397\n        /* \"#utility.yul\":11298:11300   */\n      0x0a\n        /* \"#utility.yul\":11293:11296   */\n      dup4\n        /* \"#utility.yul\":11234:11301   */\n      tag_243\n      jump\t// in\n    tag_397:\n        /* \"#utility.yul\":11227:11301   */\n      swap2\n      pop\n        /* \"#utility.yul\":11310:11403   */\n      tag_398\n        /* \"#utility.yul\":11399:11402   */\n      dup3\n        /* \"#utility.yul\":11310:11403   */\n      tag_262\n      jump\t// in\n    tag_398:\n        /* \"#utility.yul\":11428:11430   */\n      0x20\n        /* \"#utility.yul\":11423:11426   */\n      dup3\n        /* \"#utility.yul\":11419:11431   */\n      add\n        /* \"#utility.yul\":11412:11431   */\n      swap1\n      pop\n        /* \"#utility.yul\":11071:11437   */\n      swap2\n      swap1\n      pop\n      jump\t// out\n        /* \"#utility.yul\":11443:11862   */\n    tag_73:\n        /* \"#utility.yul\":11609:11613   */\n      0x00\n        /* \"#utility.yul\":11647:11649   */\n      0x20\n        /* \"#utility.yul\":11636:11645   */\n      dup3\n        /* \"#utility.yul\":11632:11650   */\n      add\n        /* \"#utility.yul\":11624:11650   */\n      swap1\n      pop\n        /* \"#utility.yul\":11696:11705   */\n      dup2\n        /* \"#utility.yul\":11690:11694   */\n      dup2\n        /* \"#utility.yul\":11686:11706   */\n      sub\n        /* \"#utility.yul\":11682:11683   */\n      0x00\n        /* \"#utility.yul\":11671:11680   */\n      dup4\n        /* \"#utility.yul\":11667:11684   */\n      add\n        /* \"#utility.yul\":11660:11707   */\n      mstore\n        /* \"#utility.yul\":11724:11855   */\n      tag_400\n        /* \"#utility.yul\":11850:11854   */\n      dup2\n        /* \"#utility.yul\":11724:11855   */\n      tag_263\n      jump\t// in\n    tag_400:\n        /* \"#utility.yul\":11716:11855   */\n      swap1\n      pop\n        /* \"#utility.yul\":11443:11862   */\n      swap2\n      swap1\n      pop\n      jump\t// out\n        /* \"#utility.yul\":11868:12015   */\n    tag_264:\n        /* \"#utility.yul\":11969:11980   */\n      0x00\n        /* \"#utility.yul\":12006:12009   */\n      dup2\n        /* \"#utility.yul\":11991:12009   */\n      swap1\n      pop\n        /* \"#utility.yul\":11868:12015   */\n      swap3\n      swap2\n      pop\n      pop\n      jump\t// out\n        /* \"#utility.yul\":12021:12135   */\n    tag_265:\n      pop\n      jump\t// out\n        /* \"#utility.yul\":12141:12539   */\n    tag_266:\n        /* \"#utility.yul\":12300:12303   */\n      0x00\n        /* \"#utility.yul\":12321:12404   */\n      tag_404\n        /* \"#utility.yul\":12402:12403   */\n      0x00\n        /* \"#utility.yul\":12397:12400   */\n      dup4\n        /* \"#utility.yul\":12321:12404   */\n      tag_264\n      jump\t// in\n    tag_404:\n        /* \"#utility.yul\":12314:12404   */\n      swap2\n      pop\n        /* \"#utility.yul\":12413:12506   */\n      tag_405\n        /* \"#utility.yul\":12502:12505   */\n      dup3\n        /* \"#utility.yul\":12413:12506   */\n      tag_265\n      jump\t// in\n    tag_405:\n        /* \"#utility.yul\":12531:12532   */\n      0x00\n        /* \"#utility.yul\":12526:12529   */\n      dup3\n        /* \"#utility.yul\":12522:12533   */\n      add\n        /* \"#utility.yul\":12515:12533   */\n      swap1\n      pop\n        /* \"#utility.yul\":12141:12539   */\n      swap2\n      swap1\n      pop\n      jump\t// out\n        /* \"#utility.yul\":12545:12924   */\n    tag_77:\n        /* \"#utility.yul\":12729:12732   */\n      0x00\n        /* \"#utility.yul\":12751:12898   */\n      tag_407\n        /* \"#utility.yul\":12894:12897   */\n      dup3\n        /* \"#utility.yul\":12751:12898   */\n      tag_266\n      jump\t// in\n    tag_407:\n        /* \"#utility.yul\":12744:12898   */\n      swap2\n      pop\n        /* \"#utility.yul\":12915:12918   */\n      dup2\n        /* \"#utility.yul\":12908:12918   */\n      swap1\n      pop\n        /* \"#utility.yul\":12545:12924   */\n      swap2\n      swap1\n      pop\n      jump\t// out\n        /* \"#utility.yul\":12930:13095   */\n    tag_267:\n        /* \"#utility.yul\":13070:13087   */\n      0x5472616e73666572206661696c65640000000000000000000000000000000000\n        /* \"#utility.yul\":13066:13067   */\n      0x00\n        /* \"#utility.yul\":13058:13064   */\n      dup3\n        /* \"#utility.yul\":13054:13068   */\n      add\n        /* \"#utility.yul\":13047:13088   */\n      mstore\n        /* \"#utility.yul\":12930:13095   */\n      pop\n      jump\t// out\n        /* \"#utility.yul\":13101:13467   */\n    tag_268:\n        /* \"#utility.yul\":13243:13246   */\n      0x00\n        /* \"#utility.yul\":13264:13331   */\n      tag_410\n        /* \"#utility.yul\":13328:13330   */\n      0x0f\n        /* \"#utility.yul\":13323:13326   */\n      dup4\n        /* \"#utility.yul\":13264:13331   */\n      tag_243\n      jump\t// in\n    tag_410:\n        /* \"#utility.yul\":13257:13331   */\n      swap2\n      pop\n        /* \"#utility.yul\":13340:13433   */\n      tag_411\n        /* \"#utility.yul\":13429:13432   */\n      dup3\n        /* \"#utility.yul\":13340:13433   */\n      tag_267\n      jump\t// in\n    tag_411:\n        /* \"#utility.yul\":13458:13460   */\n      0x20\n        /* \"#utility.yul\":13453:13456   */\n      dup3\n        /* \"#utility.yul\":13449:13461   */\n      add\n        /* \"#utility.yul\":13442:13461   */\n      swap1\n      pop\n        /* \"#utility.yul\":13101:13467   */\n      swap2\n      swap1\n      pop\n      jump\t// out\n        /* \"#utility.yul\":13473:13892   */\n    tag_83:\n        /* \"#utility.yul\":13639:13643   */\n      0x00\n        /* \"#utility.yul\":13677:13679   */\n      0x20\n        /* \"#utility.yul\":13666:13675   */\n      dup3\n        /* \"#utility.yul\":13662:13680   */\n      add\n        /* \"#utility.yul\":13654:13680   */\n      swap1\n      pop\n        /* \"#utility.yul\":13726:13735   */\n      dup2\n        /* \"#utility.yul\":13720:13724   */\n      dup2\n        /* \"#utility.yul\":13716:13736   */\n      sub\n        /* \"#utility.yul\":13712:13713   */\n      0x00\n        /* \"#utility.yul\":13701:13710   */\n      dup4\n        /* \"#utility.yul\":13697:13714   */\n      add\n        /* \"#utility.yul\":13690:13737   */\n      mstore\n        /* \"#utility.yul\":13754:13885   */\n      tag_413\n        /* \"#utility.yul\":13880:13884   */\n      dup2\n        /* \"#utility.yul\":13754:13885   */\n      tag_268\n      jump\t// in\n    tag_413:\n        /* \"#utility.yul\":13746:13885   */\n      swap1\n      pop\n        /* \"#utility.yul\":13473:13892   */\n      swap2\n      swap1\n      pop\n      jump\t// out\n        /* \"#utility.yul\":13898:14079   */\n    tag_269:\n        /* \"#utility.yul\":14038:14071   */\n      0x5265656e7472616e637947756172643a207265656e7472616e742063616c6c00\n        /* \"#utility.yul\":14034:14035   */\n      0x00\n        /* \"#utility.yul\":14026:14032   */\n      dup3\n        /* \"#utility.yul\":14022:14036   */\n      add\n        /* \"#utility.yul\":14015:14072   */\n      mstore\n        /* \"#utility.yul\":13898:14079   */\n      pop\n      jump\t// out\n        /* \"#utility.yul\":14085:14451   */\n    tag_270:\n        /* \"#utility.yul\":14227:14230   */\n      0x00\n        /* \"#utility.yul\":14248:14315   */\n      tag_416\n        /* \"#utility.yul\":14312:14314   */\n      0x1f\n        /* \"#utility.yul\":14307:14310   */\n      dup4\n        /* \"#utility.yul\":14248:14315   */\n      tag_243\n      jump\t// in\n    tag_416:\n        /* \"#utility.yul\":14241:14315   */\n      swap2\n      pop\n        /* \"#utility.yul\":14324:14417   */\n      tag_417\n        /* \"#utility.yul\":14413:14416   */\n      dup3\n        /* \"#utility.yul\":14324:14417   */\n      tag_269\n      jump\t// in\n    tag_417:\n        /* \"#utility.yul\":14442:14444   */\n      0x20\n        /* \"#utility.yul\":14437:14440   */\n      dup3\n        /* \"#utility.yul\":14433:14445   */\n      add\n        /* \"#utility.yul\":14426:14445   */\n      swap1\n      pop\n        /* \"#utility.yul\":14085:14451   */\n      swap2\n      swap1\n      pop\n      jump\t// out\n        /* \"#utility.yul\":14457:14876   */\n    tag_89:\n        /* \"#utility.yul\":14623:14627   */\n      0x00\n        /* \"#utility.yul\":14661:14663   */\n      0x20\n        /* \"#utility.yul\":14650:14659   */\n      dup3\n        /* \"#utility.yul\":14646:14664   */\n      add\n        /* \"#utility.yul\":14638:14664   */\n      swap1\n      pop\n        /* \"#utility.yul\":14710:14719   */\n      dup2\n        /* \"#utility.yul\":14704:14708   */\n      dup2\n        /* \"#utility.yul\":14700:14720   */\n      sub\n        /* \"#utility.yul\":14696:14697   */\n      0x00\n        /* \"#utility.yul\":14685:14694   */\n      dup4\n        /* \"#utility.yul\":14681:14698   */\n      add\n        /* \"#utility.yul\":14674:14721   */\n      mstore\n        /* \"#utility.yul\":14738:14869   */\n      tag_419\n        /* \"#utility.yul\":14864:14868   */\n      dup2\n        /* \"#utility.yul\":14738:14869   */\n      tag_270\n      jump\t// in\n    tag_419:\n        /* \"#utility.yul\":14730:14869   */\n      swap1\n      pop\n        /* \"#utility.yul\":14457:14876   */\n      swap2\n      swap1\n      pop\n      jump\t// out\n        /* \"#utility.yul\":14882:15052   */\n    tag_271:\n        /* \"#utility.yul\":15022:15044   */\n      0x6e6f742073756666696369656e742066756e6473000000000000000000000000\n        /* \"#utility.yul\":15018:15019   */\n      0x00\n        /* \"#utility.yul\":15010:15016   */\n      dup3\n        /* \"#utility.yul\":15006:15020   */\n      add\n        /* \"#utility.yul\":14999:15045   */\n      mstore\n        /* \"#utility.yul\":14882:15052   */\n      pop\n      jump\t// out\n        /* \"#utility.yul\":15058:15424   */\n    tag_272:\n        /* \"#utility.yul\":15200:15203   */\n      0x00\n        /* \"#utility.yul\":15221:15288   */\n      tag_422\n        /* \"#utility.yul\":15285:15287   */\n      0x14\n        /* \"#utility.yul\":15280:15283   */\n      dup4\n        /* \"#utility.yul\":15221:15288   */\n      tag_243\n      jump\t// in\n    tag_422:\n        /* \"#utility.yul\":15214:15288   */\n      swap2\n      pop\n        /* \"#utility.yul\":15297:15390   */\n      tag_423\n        /* \"#utility.yul\":15386:15389   */\n      dup3\n        /* \"#utility.yul\":15297:15390   */\n      tag_271\n      jump\t// in\n    tag_423:\n        /* \"#utility.yul\":15415:15417   */\n      0x20\n        /* \"#utility.yul\":15410:15413   */\n      dup3\n        /* \"#utility.yul\":15406:15418   */\n      add\n        /* \"#utility.yul\":15399:15418   */\n      swap1\n      pop\n        /* \"#utility.yul\":15058:15424   */\n      swap2\n      swap1\n      pop\n      jump\t// out\n        /* \"#utility.yul\":15430:15849   */\n    tag_93:\n        /* \"#utility.yul\":15596:15600   */\n      0x00\n        /* \"#utility.yul\":15634:15636   */\n      0x20\n        /* \"#utility.yul\":15623:15632   */\n      dup3\n        /* \"#utility.yul\":15619:15637   */\n      add\n        /* \"#utility.yul\":15611:15637   */\n      swap1\n      pop\n        /* \"#utility.yul\":15683:15692   */\n      dup2\n        /* \"#utility.yul\":15677:15681   */\n      dup2\n        /* \"#utility.yul\":15673:15693   */\n      sub\n        /* \"#utility.yul\":15669:15670   */\n      0x00\n        /* \"#utility.yul\":15658:15667   */\n      dup4\n        /* \"#utility.yul\":15654:15671   */\n      add\n        /* \"#utility.yul\":15647:15694   */\n      mstore\n        /* \"#utility.yul\":15711:15842   */\n      tag_425\n        /* \"#utility.yul\":15837:15841   */\n      dup2\n        /* \"#utility.yul\":15711:15842   */\n      tag_272\n      jump\t// in\n    tag_425:\n        /* \"#utility.yul\":15703:15842   */\n      swap1\n      pop\n        /* \"#utility.yul\":15430:15849   */\n      swap2\n      swap1\n      pop\n      jump\t// out\n        /* \"#utility.yul\":15855:16049   */\n    tag_101:\n        /* \"#utility.yul\":15895:15899   */\n      0x00\n        /* \"#utility.yul\":15915:15935   */\n      tag_427\n        /* \"#utility.yul\":15933:15934   */\n      dup3\n        /* \"#utility.yul\":15915:15935   */\n      tag_222\n      jump\t// in\n    tag_427:\n        /* \"#utility.yul\":15910:15935   */\n      swap2\n      pop\n        /* \"#utility.yul\":15949:15969   */\n      tag_428\n        /* \"#utility.yul\":15967:15968   */\n      dup4\n        /* \"#utility.yul\":15949:15969   */\n      tag_222\n      jump\t// in\n    tag_428:\n        /* \"#utility.yul\":15944:15969   */\n      swap3\n      pop\n        /* \"#utility.yul\":15993:15994   */\n      dup3\n        /* \"#utility.yul\":15990:15991   */\n      dup3\n        /* \"#utility.yul\":15986:15995   */\n      sub\n        /* \"#utility.yul\":15978:15995   */\n      swap1\n      pop\n        /* \"#utility.yul\":16017:16018   */\n      dup2\n        /* \"#utility.yul\":16011:16015   */\n      dup2\n        /* \"#utility.yul\":16008:16019   */\n      gt\n        /* \"#utility.yul\":16005:16042   */\n      iszero\n      tag_429\n      jumpi\n        /* \"#utility.yul\":16022:16040   */\n      tag_430\n      tag_223\n      jump\t// in\n    tag_430:\n        /* \"#utility.yul\":16005:16042   */\n    tag_429:\n        /* \"#utility.yul\":15855:16049   */\n      swap3\n      swap2\n      pop\n      pop\n      jump\t// out\n        /* \"#utility.yul\":16055:16235   */\n    tag_152:\n        /* \"#utility.yul\":16103:16180   */\n      0x4e487b7100000000000000000000000000000000000000000000000000000000\n        /* \"#utility.yul\":16100:16101   */\n      0x00\n        /* \"#utility.yul\":16093:16181   */\n      mstore\n        /* \"#utility.yul\":16200:16204   */\n      0x32\n        /* \"#utility.yul\":16197:16198   */\n      0x04\n        /* \"#utility.yul\":16190:16205   */\n      mstore\n        /* \"#utility.yul\":16224:16228   */\n      0x24\n        /* \"#utility.yul\":16221:16222   */\n      0x00\n        /* \"#utility.yul\":16214:16229   */\n      revert\n        /* \"#utility.yul\":16241:16474   */\n    tag_160:\n        /* \"#utility.yul\":16280:16283   */\n      0x00\n        /* \"#utility.yul\":16303:16327   */\n      tag_433\n        /* \"#utility.yul\":16321:16326   */\n      dup3\n        /* \"#utility.yul\":16303:16327   */\n      tag_222\n      jump\t// in\n    tag_433:\n        /* \"#utility.yul\":16294:16327   */\n      swap2\n      pop\n        /* \"#utility.yul\":16349:16415   */\n      0xffffffffffffffffffffffffffffffffffffffffffffffffffffffffffffffff\n        /* \"#utility.yul\":16342:16347   */\n      dup3\n        /* \"#utility.yul\":16339:16416   */\n      sub\n        /* \"#utility.yul\":16336:16439   */\n      tag_434\n      jumpi\n        /* \"#utility.yul\":16419:16437   */\n      tag_435\n      tag_223\n      jump\t// in\n    tag_435:\n        /* \"#utility.yul\":16336:16439   */\n    tag_434:\n        /* \"#utility.yul\":16466:16467   */\n      0x01\n        /* \"#utility.yul\":16459:16464   */\n      dup3\n        /* \"#utility.yul\":16455:16468   */\n      add\n        /* \"#utility.yul\":16448:16468   */\n      swap1\n      pop\n        /* \"#utility.yul\":16241:16474   */\n      swap2\n      swap1\n      pop\n      jump\t// out\n        /* \"#utility.yul\":16480:16660   */\n    tag_173:\n        /* \"#utility.yul\":16528:16605   */\n      0x4e487b7100000000000000000000000000000000000000000000000000000000\n        /* \"#utility.yul\":16525:16526   */\n      0x00\n        /* \"#utility.yul\":16518:16606   */\n      mstore\n        /* \"#utility.yul\":16625:16629   */\n      0x31\n        /* \"#utility.yul\":16622:16623   */\n      0x04\n        /* \"#utility.yul\":16615:16630   */\n      mstore\n        /* \"#utility.yul\":16649:16653   */\n      0x24\n        /* \"#utility.yul\":16646:16647   */\n      0x00\n        /* \"#utility.yul\":16639:16654   */\n      revert\n\n    auxdata: 0xa26469706673582212200f49736adedb11dd616464d3c6826aca15e6429154d3d8684ec2c4f13d12929f64736f6c63430008180033\n}\n",
				"bytecode": {
					"linkReferences": {},
					"object": "60a060405234801561000f575f80fd5b503373ffffffffffffffffffffffffffffffffffffffff1660808173ffffffffffffffffffffffffffffffffffffffff16815250506080516120636100785f395f81816104b90152818161094d01528181610dab01528181610f1201526110ab01526120635ff3fe608060405260043610610089575f3560e01c806351b2faf61161005857806351b2faf61461033a578063853828b614610364578063b85220431461036e578063c999117614610398578063dc7154cb146103c05761021c565b806312065fe01461029057806312f56410146102ba5780632532b598146102f65780632e1a7d4d1461031e5761021c565b3661021c57610097336103e8565b3460025f3373ffffffffffffffffffffffffffffffffffffffff1673ffffffffffffffffffffffffffffffffffffffff1681526020019081526020015f205f015f8282546100e591906117f0565b9250508190555060025f3373ffffffffffffffffffffffffffffffffffffffff1673ffffffffffffffffffffffffffffffffffffffff1681526020019081526020015f2060010160405180606001604052804281526020016040518060400160405280600781526020017f6465706f73697400000000000000000000000000000000000000000000000000815250815260200134815250908060018154018082558091505060019003905f5260205f2090600302015f909190919091505f820151815f015560208201518160010190816101bf9190611a54565b506040820151816002015550503373ffffffffffffffffffffffffffffffffffffffff167fe1fffcc4923d04b559f4d29a8bfc6cda04eb5b0d3c460751c2402c5c5cc9109c346040516102129190611b32565b60405180910390a2005b348015610227575f80fd5b50427fcd144e787ad9720024b4575b2983b8b7065772b9723503e3c0a2b1c30c1478b560405160405180910390a26040517f08c379a000000000000000000000000000000000000000000000000000000000815260040161028790611ba5565b60405180910390fd5b34801561029b575f80fd5b506102a4610496565b6040516102b19190611b32565b60405180910390f35b3480156102c5575f80fd5b506102e060048036038101906102db9190611c21565b61049d565b6040516102ed9190611b32565b60405180910390f35b348015610301575f80fd5b5061031c60048036038101906103179190611c21565b6104b7565b005b61033860048036038101906103339190611c76565b610647565b005b348015610345575f80fd5b5061034e610949565b60405161035b9190611d58565b60405180910390f35b61036c610ab2565b005b348015610379575f80fd5b50610382610da7565b60405161038f9190611d58565b60405180910390f35b3480156103a3575f80fd5b506103be60048036038101906103b99190611c21565b610f10565b005b3480156103cb575f80fd5b506103e660048036038101906103e19190611c21565b6110a9565b005b5f60025f8373ffffffffffffffffffffffffffffffffffffffff1673ffffffffffffffffffffffffffffffffffffffff1681526020019081526020015f20600101805490500361049357600381908060018154018082558091505060019003905f5260205f20015f9091909190916101000a81548173ffffffffffffffffffffffffffffffffffffffff021916908373ffffffffffffffffffffffffffffffffffffffff1602179055505b50565b5f47905090565b6002602052805f5260405f205f91509050805f0154905081565b7f000000000000000000000000000000000000000000000000000000000000000073ffffffffffffffffffffffffffffffffffffffff163373ffffffffffffffffffffffffffffffffffffffff1614610545576040517f08c379a000000000000000000000000000000000000000000000000000000000815260040161053c90611dc2565b60405180910390fd5b5f60025f8373ffffffffffffffffffffffffffffffffffffffff1673ffffffffffffffffffffffffffffffffffffffff1681526020019081526020015f205f015490505f81111561063a575f8273ffffffffffffffffffffffffffffffffffffffff16826040516105b590611e0d565b5f6040518083038185875af1925050503d805f81146105ef576040519150601f19603f3d011682016040523d82523d5f602084013e6105f4565b606091505b5050905080610638576040517f08c379a000000000000000000000000000000000000000000000000000000000815260040161062f90611e6b565b60405180910390fd5b505b61064382611418565b5050565b5f6001541461068b576040517f08c379a000000000000000000000000000000000000000000000000000000000815260040161068290611ed3565b60405180910390fd5b600180819055505f60025f3373ffffffffffffffffffffffffffffffffffffffff1673ffffffffffffffffffffffffffffffffffffffff1681526020019081526020015f205f0154905081811015610718576040517f08c379a000000000000000000000000000000000000000000000000000000000815260040161070f90611f3b565b60405180910390fd5b5f3373ffffffffffffffffffffffffffffffffffffffff168360405161073d90611e0d565b5f6040518083038185875af1925050503d805f8114610777576040519150601f19603f3d011682016040523d82523d5f602084013e61077c565b606091505b50509050806107c0576040517f08c379a00000000000000000000000000000000000000000000000000000000081526004016107b790611e6b565b60405180910390fd5b82826107cc9190611f59565b60025f3373ffffffffffffffffffffffffffffffffffffffff1673ffffffffffffffffffffffffffffffffffffffff1681526020019081526020015f205f018190555060025f3373ffffffffffffffffffffffffffffffffffffffff1673ffffffffffffffffffffffffffffffffffffffff1681526020019081526020015f2060010160405180606001604052804281526020016040518060400160405280600881526020017f7769746864726177000000000000000000000000000000000000000000000000815250815260200185815250908060018154018082558091505060019003905f5260205f2090600302015f909190919091505f820151815f015560208201518160010190816108e29190611a54565b506040820151816002015550503373ffffffffffffffffffffffffffffffffffffffff167f884edad9ce6fa2440d8a54cc123490eb96d2768479d49ff9c7366125a9424364846040516109359190611b32565b60405180910390a250505f60018190555050565b60607f000000000000000000000000000000000000000000000000000000000000000073ffffffffffffffffffffffffffffffffffffffff163373ffffffffffffffffffffffffffffffffffffffff1614806109ea57505f803373ffffffffffffffffffffffffffffffffffffffff1673ffffffffffffffffffffffffffffffffffffffff1681526020019081526020015f205f9054906101000a900460ff165b610a29576040517f08c379a0000000000000000000000000000000000000000000000000000000008152600401610a2090611dc2565b60405180910390fd5b6004805480602002602001604051908101604052809291908181526020018280548015610aa857602002820191905f5260205f20905b815f9054906101000a900473ffffffffffffffffffffffffffffffffffffffff1673ffffffffffffffffffffffffffffffffffffffff1681526020019060010190808311610a5f575b5050505050905090565b5f60015414610af6576040517f08c379a0000000000000000000000000000000000000000000000000000000008152600401610aed90611ed3565b60405180910390fd5b600180819055505f60025f3373ffffffffffffffffffffffffffffffffffffffff1673ffffffffffffffffffffffffffffffffffffffff1681526020019081526020015f205f015490505f8111610b82576040517f08c379a0000000000000000000000000000000000000000000000000000000008152600401610b7990611f3b565b60405180910390fd5b5f3373ffffffffffffffffffffffffffffffffffffffff1682604051610ba790611e0d565b5f6040518083038185875af1925050503d805f8114610be1576040519150601f19603f3d011682016040523d82523d5f602084013e610be6565b606091505b5050905080610c2a576040517f08c379a0000000000000000000000000000000000000000000000000000000008152600401610c2190611e6b565b60405180910390fd5b5f60025f3373ffffffffffffffffffffffffffffffffffffffff1673ffffffffffffffffffffffffffffffffffffffff1681526020019081526020015f205f018190555060025f3373ffffffffffffffffffffffffffffffffffffffff1673ffffffffffffffffffffffffffffffffffffffff1681526020019081526020015f2060010160405180606001604052804281526020016040518060400160405280600881526020017f7769746864726177000000000000000000000000000000000000000000000000815250815260200184815250908060018154018082558091505060019003905f5260205f2090600302015f909190919091505f820151815f01556020820151816001019081610d419190611a54565b506040820151816002015550503373ffffffffffffffffffffffffffffffffffffffff167f884edad9ce6fa2440d8a54cc123490eb96d2768479d49ff9c7366125a942436483604051610d949190611b32565b60405180910390a250505f600181905550565b60607f000000000000000000000000000000000000000000000000000000000000000073ffffffffffffffffffffffffffffffffffffffff163373ffffffffffffffffffffffffffffffffffffffff161480610e4857505f803373ffffffffffffffffffffffffffffffffffffffff1673ffffffffffffffffffffffffffffffffffffffff1681526020019081526020015f205f9054906101000a900460ff165b610e87576040517f08c379a0000000000000000000000000000000000000000000000000000000008152600401610e7e90611dc2565b60405180910390fd5b6003805480602002602001604051908101604052809291908181526020018280548015610f0657602002820191905f5260205f20905b815f9054906101000a900473ffffffffffffffffffffffffffffffffffffffff1673ffffffffffffffffffffffffffffffffffffffff1681526020019060010190808311610ebd575b5050505050905090565b7f000000000000000000000000000000000000000000000000000000000000000073ffffffffffffffffffffffffffffffffffffffff163373ffffffffffffffffffffffffffffffffffffffff1614610f9e576040517f08c379a0000000000000000000000000000000000000000000000000000000008152600401610f9590611dc2565b60405180910390fd5b5f15155f808373ffffffffffffffffffffffffffffffffffffffff1673ffffffffffffffffffffffffffffffffffffffff1681526020019081526020015f205f9054906101000a900460ff161515036110a657600481908060018154018082558091505060019003905f5260205f20015f9091909190916101000a81548173ffffffffffffffffffffffffffffffffffffffff021916908373ffffffffffffffffffffffffffffffffffffffff16021790555060015f808373ffffffffffffffffffffffffffffffffffffffff1673ffffffffffffffffffffffffffffffffffffffff1681526020019081526020015f205f6101000a81548160ff0219169083151502179055505b50565b7f000000000000000000000000000000000000000000000000000000000000000073ffffffffffffffffffffffffffffffffffffffff163373ffffffffffffffffffffffffffffffffffffffff1614611137576040517f08c379a000000000000000000000000000000000000000000000000000000000815260040161112e90611dc2565b60405180910390fd5b600115155f808373ffffffffffffffffffffffffffffffffffffffff1673ffffffffffffffffffffffffffffffffffffffff1681526020019081526020015f205f9054906101000a900460ff16151503611415575f6004805490509050600181036111ae5760045f6111a991906116f0565b6113c8565b5f600460016004805490506111c39190611f59565b815481106111d4576111d3611f8c565b5b905f5260205f20015f9054906101000a900473ffffffffffffffffffffffffffffffffffffffff1690505f5b8373ffffffffffffffffffffffffffffffffffffffff166004828154811061122b5761122a611f8c565b5b905f5260205f20015f9054906101000a900473ffffffffffffffffffffffffffffffffffffffff1673ffffffffffffffffffffffffffffffffffffffff161461128157808061127990611fb9565b915050611200565b6004818154811061129557611294611f8c565b5b905f5260205f20015f9054906101000a900473ffffffffffffffffffffffffffffffffffffffff16600460016004805490506112d19190611f59565b815481106112e2576112e1611f8c565b5b905f5260205f20015f6101000a81548173ffffffffffffffffffffffffffffffffffffffff021916908373ffffffffffffffffffffffffffffffffffffffff160217905550816004828154811061133c5761133b611f8c565b5b905f5260205f20015f6101000a81548173ffffffffffffffffffffffffffffffffffffffff021916908373ffffffffffffffffffffffffffffffffffffffff160217905550600480548061139357611392612000565b5b600190038181905f5260205f20015f6101000a81549073ffffffffffffffffffffffffffffffffffffffff0219169055905550505b5f808373ffffffffffffffffffffffffffffffffffffffff1673ffffffffffffffffffffffffffffffffffffffff1681526020019081526020015f205f6101000a81549060ff0219169055505b50565b5f60025f8373ffffffffffffffffffffffffffffffffffffffff1673ffffffffffffffffffffffffffffffffffffffff1681526020019081526020015f206001018054905011156116ed575f6003805490509050600181036114865760035f61148191906116f0565b611696565b5f60036001836114969190611f59565b815481106114a7576114a6611f8c565b5b905f5260205f20015f9054906101000a900473ffffffffffffffffffffffffffffffffffffffff1690505f5b8373ffffffffffffffffffffffffffffffffffffffff16600382815481106114fe576114fd611f8c565b5b905f5260205f20015f9054906101000a900473ffffffffffffffffffffffffffffffffffffffff1673ffffffffffffffffffffffffffffffffffffffff161461155457808061154c90611fb9565b9150506114d3565b6003818154811061156857611567611f8c565b5b905f5260205f20015f9054906101000a900473ffffffffffffffffffffffffffffffffffffffff16600360018561159f9190611f59565b815481106115b0576115af611f8c565b5b905f5260205f20015f6101000a81548173ffffffffffffffffffffffffffffffffffffffff021916908373ffffffffffffffffffffffffffffffffffffffff160217905550816003828154811061160a57611609611f8c565b5b905f5260205f20015f6101000a81548173ffffffffffffffffffffffffffffffffffffffff021916908373ffffffffffffffffffffffffffffffffffffffff160217905550600380548061166157611660612000565b5b600190038181905f5260205f20015f6101000a81549073ffffffffffffffffffffffffffffffffffffffff0219169055905550505b60025f8373ffffffffffffffffffffffffffffffffffffffff1673ffffffffffffffffffffffffffffffffffffffff1681526020019081526020015f205f8082015f9055600182015f6116e9919061170e565b5050505b50565b5080545f8255905f5260205f209081019061170b919061172f565b50565b5080545f8255600302905f5260205f209081019061172c919061174a565b50565b5b80821115611746575f815f905550600101611730565b5090565b5b80821115611779575f8082015f9055600182015f611769919061177d565b600282015f90555060030161174b565b5090565b50805461178990611887565b5f825580601f1061179a57506117b7565b601f0160209004905f5260205f20908101906117b6919061172f565b5b50565b5f819050919050565b7f4e487b71000000000000000000000000000000000000000000000000000000005f52601160045260245ffd5b5f6117fa826117ba565b9150611805836117ba565b925082820190508082111561181d5761181c6117c3565b5b92915050565b5f81519050919050565b7f4e487b71000000000000000000000000000000000000000000000000000000005f52604160045260245ffd5b7f4e487b71000000000000000000000000000000000000000000000000000000005f52602260045260245ffd5b5f600282049050600182168061189e57607f821691505b6020821081036118b1576118b061185a565b5b50919050565b5f819050815f5260205f209050919050565b5f6020601f8301049050919050565b5f82821b905092915050565b5f600883026119137fffffffffffffffffffffffffffffffffffffffffffffffffffffffffffffffff826118d8565b61191d86836118d8565b95508019841693508086168417925050509392505050565b5f819050919050565b5f61195861195361194e846117ba565b611935565b6117ba565b9050919050565b5f819050919050565b6119718361193e565b61198561197d8261195f565b8484546118e4565b825550505050565b5f90565b61199961198d565b6119a4818484611968565b505050565b5b818110156119c7576119bc5f82611991565b6001810190506119aa565b5050565b601f821115611a0c576119dd816118b7565b6119e6846118c9565b810160208510156119f5578190505b611a09611a01856118c9565b8301826119a9565b50505b505050565b5f82821c905092915050565b5f611a2c5f1984600802611a11565b1980831691505092915050565b5f611a448383611a1d565b9150826002028217905092915050565b611a5d82611823565b67ffffffffffffffff811115611a7657611a7561182d565b5b611a808254611887565b611a8b8282856119cb565b5f60209050601f831160018114611abc575f8415611aaa578287015190505b611ab48582611a39565b865550611b1b565b601f198416611aca866118b7565b5f5b82811015611af157848901518255600182019150602085019450602081019050611acc565b86831015611b0e5784890151611b0a601f891682611a1d565b8355505b6001600288020188555050505b505050505050565b611b2c816117ba565b82525050565b5f602082019050611b455f830184611b23565b92915050565b5f82825260208201905092915050565b7f6572726f7220696e206f7065726174696f6e00000000000000000000000000005f82015250565b5f611b8f601283611b4b565b9150611b9a82611b5b565b602082019050919050565b5f6020820190508181035f830152611bbc81611b83565b9050919050565b5f80fd5b5f73ffffffffffffffffffffffffffffffffffffffff82169050919050565b5f611bf082611bc7565b9050919050565b611c0081611be6565b8114611c0a575f80fd5b50565b5f81359050611c1b81611bf7565b92915050565b5f60208284031215611c3657611c35611bc3565b5b5f611c4384828501611c0d565b91505092915050565b611c55816117ba565b8114611c5f575f80fd5b50565b5f81359050611c7081611c4c565b92915050565b5f60208284031215611c8b57611c8a611bc3565b5b5f611c9884828501611c62565b91505092915050565b5f81519050919050565b5f82825260208201905092915050565b5f819050602082019050919050565b611cd381611be6565b82525050565b5f611ce48383611cca565b60208301905092915050565b5f602082019050919050565b5f611d0682611ca1565b611d108185611cab565b9350611d1b83611cbb565b805f5b83811015611d4b578151611d328882611cd9565b9750611d3d83611cf0565b925050600181019050611d1e565b5085935050505092915050565b5f6020820190508181035f830152611d708184611cfc565b905092915050565b7f466f7262696464656e2e000000000000000000000000000000000000000000005f82015250565b5f611dac600a83611b4b565b9150611db782611d78565b602082019050919050565b5f6020820190508181035f830152611dd981611da0565b9050919050565b5f81905092915050565b50565b5f611df85f83611de0565b9150611e0382611dea565b5f82019050919050565b5f611e1782611ded565b9150819050919050565b7f5472616e73666572206661696c656400000000000000000000000000000000005f82015250565b5f611e55600f83611b4b565b9150611e6082611e21565b602082019050919050565b5f6020820190508181035f830152611e8281611e49565b9050919050565b7f5265656e7472616e637947756172643a207265656e7472616e742063616c6c005f82015250565b5f611ebd601f83611b4b565b9150611ec882611e89565b602082019050919050565b5f6020820190508181035f830152611eea81611eb1565b9050919050565b7f6e6f742073756666696369656e742066756e64730000000000000000000000005f82015250565b5f611f25601483611b4b565b9150611f3082611ef1565b602082019050919050565b5f6020820190508181035f830152611f5281611f19565b9050919050565b5f611f63826117ba565b9150611f6e836117ba565b9250828203905081811115611f8657611f856117c3565b5b92915050565b7f4e487b71000000000000000000000000000000000000000000000000000000005f52603260045260245ffd5b5f611fc3826117ba565b91507fffffffffffffffffffffffffffffffffffffffffffffffffffffffffffffffff8203611ff557611ff46117c3565b5b600182019050919050565b7f4e487b71000000000000000000000000000000000000000000000000000000005f52603160045260245ffdfea26469706673582212200f49736adedb11dd616464d3c6826aca15e6429154d3d8684ec2c4f13d12929f64736f6c63430008180033",
					"opcodes": "PUSH1 0xA0 PUSH1 0x40 MSTORE CALLVALUE DUP1 ISZERO PUSH2 0xF JUMPI PUSH0 DUP1 REVERT JUMPDEST POP CALLER PUSH20 0xFFFFFFFFFFFFFFFFFFFFFFFFFFFFFFFFFFFFFFFF AND PUSH1 0x80 DUP2 PUSH20 0xFFFFFFFFFFFFFFFFFFFFFFFFFFFFFFFFFFFFFFFF AND DUP2 MSTORE POP POP PUSH1 0x80 MLOAD PUSH2 0x2063 PUSH2 0x78 PUSH0 CODECOPY PUSH0 DUP2 DUP2 PUSH2 0x4B9 ADD MSTORE DUP2 DUP2 PUSH2 0x94D ADD MSTORE DUP2 DUP2 PUSH2 0xDAB ADD MSTORE DUP2 DUP2 PUSH2 0xF12 ADD MSTORE PUSH2 0x10AB ADD MSTORE PUSH2 0x2063 PUSH0 RETURN INVALID PUSH1 0x80 PUSH1 0x40 MSTORE PUSH1 0x4 CALLDATASIZE LT PUSH2 0x89 JUMPI PUSH0 CALLDATALOAD PUSH1 0xE0 SHR DUP1 PUSH4 0x51B2FAF6 GT PUSH2 0x58 JUMPI DUP1 PUSH4 0x51B2FAF6 EQ PUSH2 0x33A JUMPI DUP1 PUSH4 0x853828B6 EQ PUSH2 0x364 JUMPI DUP1 PUSH4 0xB8522043 EQ PUSH2 0x36E JUMPI DUP1 PUSH4 0xC9991176 EQ PUSH2 0x398 JUMPI DUP1 PUSH4 0xDC7154CB EQ PUSH2 0x3C0 JUMPI PUSH2 0x21C JUMP JUMPDEST DUP1 PUSH4 0x12065FE0 EQ PUSH2 0x290 JUMPI DUP1 PUSH4 0x12F56410 EQ PUSH2 0x2BA JUMPI DUP1 PUSH4 0x2532B598 EQ PUSH2 0x2F6 JUMPI DUP1 PUSH4 0x2E1A7D4D EQ PUSH2 0x31E JUMPI PUSH2 0x21C JUMP JUMPDEST CALLDATASIZE PUSH2 0x21C JUMPI PUSH2 0x97 CALLER PUSH2 0x3E8 JUMP JUMPDEST CALLVALUE PUSH1 0x2 PUSH0 CALLER PUSH20 0xFFFFFFFFFFFFFFFFFFFFFFFFFFFFFFFFFFFFFFFF AND PUSH20 0xFFFFFFFFFFFFFFFFFFFFFFFFFFFFFFFFFFFFFFFF AND DUP2 MSTORE PUSH1 0x20 ADD SWAP1 DUP2 MSTORE PUSH1 0x20 ADD PUSH0 KECCAK256 PUSH0 ADD PUSH0 DUP3 DUP3 SLOAD PUSH2 0xE5 SWAP2 SWAP1 PUSH2 0x17F0 JUMP JUMPDEST SWAP3 POP POP DUP2 SWAP1 SSTORE POP PUSH1 0x2 PUSH0 CALLER PUSH20 0xFFFFFFFFFFFFFFFFFFFFFFFFFFFFFFFFFFFFFFFF AND PUSH20 0xFFFFFFFFFFFFFFFFFFFFFFFFFFFFFFFFFFFFFFFF AND DUP2 MSTORE PUSH1 0x20 ADD SWAP1 DUP2 MSTORE PUSH1 0x20 ADD PUSH0 KECCAK256 PUSH1 0x1 ADD PUSH1 0x40 MLOAD DUP1 PUSH1 0x60 ADD PUSH1 0x40 MSTORE DUP1 TIMESTAMP DUP2 MSTORE PUSH1 0x20 ADD PUSH1 0x40 MLOAD DUP1 PUSH1 0x40 ADD PUSH1 0x40 MSTORE DUP1 PUSH1 0x7 DUP2 MSTORE PUSH1 0x20 ADD PUSH32 0x6465706F73697400000000000000000000000000000000000000000000000000 DUP2 MSTORE POP DUP2 MSTORE PUSH1 0x20 ADD CALLVALUE DUP2 MSTORE POP SWAP1 DUP1 PUSH1 0x1 DUP2 SLOAD ADD DUP1 DUP3 SSTORE DUP1 SWAP2 POP POP PUSH1 0x1 SWAP1 SUB SWAP1 PUSH0 MSTORE PUSH1 0x20 PUSH0 KECCAK256 SWAP1 PUSH1 0x3 MUL ADD PUSH0 SWAP1 SWAP2 SWAP1 SWAP2 SWAP1 SWAP2 POP PUSH0 DUP3 ADD MLOAD DUP2 PUSH0 ADD SSTORE PUSH1 0x20 DUP3 ADD MLOAD DUP2 PUSH1 0x1 ADD SWAP1 DUP2 PUSH2 0x1BF SWAP2 SWAP1 PUSH2 0x1A54 JUMP JUMPDEST POP PUSH1 0x40 DUP3 ADD MLOAD DUP2 PUSH1 0x2 ADD SSTORE POP POP CALLER PUSH20 0xFFFFFFFFFFFFFFFFFFFFFFFFFFFFFFFFFFFFFFFF AND PUSH32 0xE1FFFCC4923D04B559F4D29A8BFC6CDA04EB5B0D3C460751C2402C5C5CC9109C CALLVALUE PUSH1 0x40 MLOAD PUSH2 0x212 SWAP2 SWAP1 PUSH2 0x1B32 JUMP JUMPDEST PUSH1 0x40 MLOAD DUP1 SWAP2 SUB SWAP1 LOG2 STOP JUMPDEST CALLVALUE DUP1 ISZERO PUSH2 0x227 JUMPI PUSH0 DUP1 REVERT JUMPDEST POP TIMESTAMP PUSH32 0xCD144E787AD9720024B4575B2983B8B7065772B9723503E3C0A2B1C30C1478B5 PUSH1 0x40 MLOAD PUSH1 0x40 MLOAD DUP1 SWAP2 SUB SWAP1 LOG2 PUSH1 0x40 MLOAD PUSH32 0x8C379A000000000000000000000000000000000000000000000000000000000 DUP2 MSTORE PUSH1 0x4 ADD PUSH2 0x287 SWAP1 PUSH2 0x1BA5 JUMP JUMPDEST PUSH1 0x40 MLOAD DUP1 SWAP2 SUB SWAP1 REVERT JUMPDEST CALLVALUE DUP1 ISZERO PUSH2 0x29B JUMPI PUSH0 DUP1 REVERT JUMPDEST POP PUSH2 0x2A4 PUSH2 0x496 JUMP JUMPDEST PUSH1 0x40 MLOAD PUSH2 0x2B1 SWAP2 SWAP1 PUSH2 0x1B32 JUMP JUMPDEST PUSH1 0x40 MLOAD DUP1 SWAP2 SUB SWAP1 RETURN JUMPDEST CALLVALUE DUP1 ISZERO PUSH2 0x2C5 JUMPI PUSH0 DUP1 REVERT JUMPDEST POP PUSH2 0x2E0 PUSH1 0x4 DUP1 CALLDATASIZE SUB DUP2 ADD SWAP1 PUSH2 0x2DB SWAP2 SWAP1 PUSH2 0x1C21 JUMP JUMPDEST PUSH2 0x49D JUMP JUMPDEST PUSH1 0x40 MLOAD PUSH2 0x2ED SWAP2 SWAP1 PUSH2 0x1B32 JUMP JUMPDEST PUSH1 0x40 MLOAD DUP1 SWAP2 SUB SWAP1 RETURN JUMPDEST CALLVALUE DUP1 ISZERO PUSH2 0x301 JUMPI PUSH0 DUP1 REVERT JUMPDEST POP PUSH2 0x31C PUSH1 0x4 DUP1 CALLDATASIZE SUB DUP2 ADD SWAP1 PUSH2 0x317 SWAP2 SWAP1 PUSH2 0x1C21 JUMP JUMPDEST PUSH2 0x4B7 JUMP JUMPDEST STOP JUMPDEST PUSH2 0x338 PUSH1 0x4 DUP1 CALLDATASIZE SUB DUP2 ADD SWAP1 PUSH2 0x333 SWAP2 SWAP1 PUSH2 0x1C76 JUMP JUMPDEST PUSH2 0x647 JUMP JUMPDEST STOP JUMPDEST CALLVALUE DUP1 ISZERO PUSH2 0x345 JUMPI PUSH0 DUP1 REVERT JUMPDEST POP PUSH2 0x34E PUSH2 0x949 JUMP JUMPDEST PUSH1 0x40 MLOAD PUSH2 0x35B SWAP2 SWAP1 PUSH2 0x1D58 JUMP JUMPDEST PUSH1 0x40 MLOAD DUP1 SWAP2 SUB SWAP1 RETURN JUMPDEST PUSH2 0x36C PUSH2 0xAB2 JUMP JUMPDEST STOP JUMPDEST CALLVALUE DUP1 ISZERO PUSH2 0x379 JUMPI PUSH0 DUP1 REVERT JUMPDEST POP PUSH2 0x382 PUSH2 0xDA7 JUMP JUMPDEST PUSH1 0x40 MLOAD PUSH2 0x38F SWAP2 SWAP1 PUSH2 0x1D58 JUMP JUMPDEST PUSH1 0x40 MLOAD DUP1 SWAP2 SUB SWAP1 RETURN JUMPDEST CALLVALUE DUP1 ISZERO PUSH2 0x3A3 JUMPI PUSH0 DUP1 REVERT JUMPDEST POP PUSH2 0x3BE PUSH1 0x4 DUP1 CALLDATASIZE SUB DUP2 ADD SWAP1 PUSH2 0x3B9 SWAP2 SWAP1 PUSH2 0x1C21 JUMP JUMPDEST PUSH2 0xF10 JUMP JUMPDEST STOP JUMPDEST CALLVALUE DUP1 ISZERO PUSH2 0x3CB JUMPI PUSH0 DUP1 REVERT JUMPDEST POP PUSH2 0x3E6 PUSH1 0x4 DUP1 CALLDATASIZE SUB DUP2 ADD SWAP1 PUSH2 0x3E1 SWAP2 SWAP1 PUSH2 0x1C21 JUMP JUMPDEST PUSH2 0x10A9 JUMP JUMPDEST STOP JUMPDEST PUSH0 PUSH1 0x2 PUSH0 DUP4 PUSH20 0xFFFFFFFFFFFFFFFFFFFFFFFFFFFFFFFFFFFFFFFF AND PUSH20 0xFFFFFFFFFFFFFFFFFFFFFFFFFFFFFFFFFFFFFFFF AND DUP2 MSTORE PUSH1 0x20 ADD SWAP1 DUP2 MSTORE PUSH1 0x20 ADD PUSH0 KECCAK256 PUSH1 0x1 ADD DUP1 SLOAD SWAP1 POP SUB PUSH2 0x493 JUMPI PUSH1 0x3 DUP2 SWAP1 DUP1 PUSH1 0x1 DUP2 SLOAD ADD DUP1 DUP3 SSTORE DUP1 SWAP2 POP POP PUSH1 0x1 SWAP1 SUB SWAP1 PUSH0 MSTORE PUSH1 0x20 PUSH0 KECCAK256 ADD PUSH0 SWAP1 SWAP2 SWAP1 SWAP2 SWAP1 SWAP2 PUSH2 0x100 EXP DUP2 SLOAD DUP2 PUSH20 0xFFFFFFFFFFFFFFFFFFFFFFFFFFFFFFFFFFFFFFFF MUL NOT AND SWAP1 DUP4 PUSH20 0xFFFFFFFFFFFFFFFFFFFFFFFFFFFFFFFFFFFFFFFF AND MUL OR SWAP1 SSTORE POP JUMPDEST POP JUMP JUMPDEST PUSH0 SELFBALANCE SWAP1 POP SWAP1 JUMP JUMPDEST PUSH1 0x2 PUSH1 0x20 MSTORE DUP1 PUSH0 MSTORE PUSH1 0x40 PUSH0 KECCAK256 PUSH0 SWAP2 POP SWAP1 POP DUP1 PUSH0 ADD SLOAD SWAP1 POP DUP2 JUMP JUMPDEST PUSH32 0x0 PUSH20 0xFFFFFFFFFFFFFFFFFFFFFFFFFFFFFFFFFFFFFFFF AND CALLER PUSH20 0xFFFFFFFFFFFFFFFFFFFFFFFFFFFFFFFFFFFFFFFF AND EQ PUSH2 0x545 JUMPI PUSH1 0x40 MLOAD PUSH32 0x8C379A000000000000000000000000000000000000000000000000000000000 DUP2 MSTORE PUSH1 0x4 ADD PUSH2 0x53C SWAP1 PUSH2 0x1DC2 JUMP JUMPDEST PUSH1 0x40 MLOAD DUP1 SWAP2 SUB SWAP1 REVERT JUMPDEST PUSH0 PUSH1 0x2 PUSH0 DUP4 PUSH20 0xFFFFFFFFFFFFFFFFFFFFFFFFFFFFFFFFFFFFFFFF AND PUSH20 0xFFFFFFFFFFFFFFFFFFFFFFFFFFFFFFFFFFFFFFFF AND DUP2 MSTORE PUSH1 0x20 ADD SWAP1 DUP2 MSTORE PUSH1 0x20 ADD PUSH0 KECCAK256 PUSH0 ADD SLOAD SWAP1 POP PUSH0 DUP2 GT ISZERO PUSH2 0x63A JUMPI PUSH0 DUP3 PUSH20 0xFFFFFFFFFFFFFFFFFFFFFFFFFFFFFFFFFFFFFFFF AND DUP3 PUSH1 0x40 MLOAD PUSH2 0x5B5 SWAP1 PUSH2 0x1E0D JUMP JUMPDEST PUSH0 PUSH1 0x40 MLOAD DUP1 DUP4 SUB DUP2 DUP6 DUP8 GAS CALL SWAP3 POP POP POP RETURNDATASIZE DUP1 PUSH0 DUP2 EQ PUSH2 0x5EF JUMPI PUSH1 0x40 MLOAD SWAP2 POP PUSH1 0x1F NOT PUSH1 0x3F RETURNDATASIZE ADD AND DUP3 ADD PUSH1 0x40 MSTORE RETURNDATASIZE DUP3 MSTORE RETURNDATASIZE PUSH0 PUSH1 0x20 DUP5 ADD RETURNDATACOPY PUSH2 0x5F4 JUMP JUMPDEST PUSH1 0x60 SWAP2 POP JUMPDEST POP POP SWAP1 POP DUP1 PUSH2 0x638 JUMPI PUSH1 0x40 MLOAD PUSH32 0x8C379A000000000000000000000000000000000000000000000000000000000 DUP2 MSTORE PUSH1 0x4 ADD PUSH2 0x62F SWAP1 PUSH2 0x1E6B JUMP JUMPDEST PUSH1 0x40 MLOAD DUP1 SWAP2 SUB SWAP1 REVERT JUMPDEST POP JUMPDEST PUSH2 0x643 DUP3 PUSH2 0x1418 JUMP JUMPDEST POP POP JUMP JUMPDEST PUSH0 PUSH1 0x1 SLOAD EQ PUSH2 0x68B JUMPI PUSH1 0x40 MLOAD PUSH32 0x8C379A000000000000000000000000000000000000000000000000000000000 DUP2 MSTORE PUSH1 0x4 ADD PUSH2 0x682 SWAP1 PUSH2 0x1ED3 JUMP JUMPDEST PUSH1 0x40 MLOAD DUP1 SWAP2 SUB SWAP1 REVERT JUMPDEST PUSH1 0x1 DUP1 DUP2 SWAP1 SSTORE POP PUSH0 PUSH1 0x2 PUSH0 CALLER PUSH20 0xFFFFFFFFFFFFFFFFFFFFFFFFFFFFFFFFFFFFFFFF AND PUSH20 0xFFFFFFFFFFFFFFFFFFFFFFFFFFFFFFFFFFFFFFFF AND DUP2 MSTORE PUSH1 0x20 ADD SWAP1 DUP2 MSTORE PUSH1 0x20 ADD PUSH0 KECCAK256 PUSH0 ADD SLOAD SWAP1 POP DUP2 DUP2 LT ISZERO PUSH2 0x718 JUMPI PUSH1 0x40 MLOAD PUSH32 0x8C379A000000000000000000000000000000000000000000000000000000000 DUP2 MSTORE PUSH1 0x4 ADD PUSH2 0x70F SWAP1 PUSH2 0x1F3B JUMP JUMPDEST PUSH1 0x40 MLOAD DUP1 SWAP2 SUB SWAP1 REVERT JUMPDEST PUSH0 CALLER PUSH20 0xFFFFFFFFFFFFFFFFFFFFFFFFFFFFFFFFFFFFFFFF AND DUP4 PUSH1 0x40 MLOAD PUSH2 0x73D SWAP1 PUSH2 0x1E0D JUMP JUMPDEST PUSH0 PUSH1 0x40 MLOAD DUP1 DUP4 SUB DUP2 DUP6 DUP8 GAS CALL SWAP3 POP POP POP RETURNDATASIZE DUP1 PUSH0 DUP2 EQ PUSH2 0x777 JUMPI PUSH1 0x40 MLOAD SWAP2 POP PUSH1 0x1F NOT PUSH1 0x3F RETURNDATASIZE ADD AND DUP3 ADD PUSH1 0x40 MSTORE RETURNDATASIZE DUP3 MSTORE RETURNDATASIZE PUSH0 PUSH1 0x20 DUP5 ADD RETURNDATACOPY PUSH2 0x77C JUMP JUMPDEST PUSH1 0x60 SWAP2 POP JUMPDEST POP POP SWAP1 POP DUP1 PUSH2 0x7C0 JUMPI PUSH1 0x40 MLOAD PUSH32 0x8C379A000000000000000000000000000000000000000000000000000000000 DUP2 MSTORE PUSH1 0x4 ADD PUSH2 0x7B7 SWAP1 PUSH2 0x1E6B JUMP JUMPDEST PUSH1 0x40 MLOAD DUP1 SWAP2 SUB SWAP1 REVERT JUMPDEST DUP3 DUP3 PUSH2 0x7CC SWAP2 SWAP1 PUSH2 0x1F59 JUMP JUMPDEST PUSH1 0x2 PUSH0 CALLER PUSH20 0xFFFFFFFFFFFFFFFFFFFFFFFFFFFFFFFFFFFFFFFF AND PUSH20 0xFFFFFFFFFFFFFFFFFFFFFFFFFFFFFFFFFFFFFFFF AND DUP2 MSTORE PUSH1 0x20 ADD SWAP1 DUP2 MSTORE PUSH1 0x20 ADD PUSH0 KECCAK256 PUSH0 ADD DUP2 SWAP1 SSTORE POP PUSH1 0x2 PUSH0 CALLER PUSH20 0xFFFFFFFFFFFFFFFFFFFFFFFFFFFFFFFFFFFFFFFF AND PUSH20 0xFFFFFFFFFFFFFFFFFFFFFFFFFFFFFFFFFFFFFFFF AND DUP2 MSTORE PUSH1 0x20 ADD SWAP1 DUP2 MSTORE PUSH1 0x20 ADD PUSH0 KECCAK256 PUSH1 0x1 ADD PUSH1 0x40 MLOAD DUP1 PUSH1 0x60 ADD PUSH1 0x40 MSTORE DUP1 TIMESTAMP DUP2 MSTORE PUSH1 0x20 ADD PUSH1 0x40 MLOAD DUP1 PUSH1 0x40 ADD PUSH1 0x40 MSTORE DUP1 PUSH1 0x8 DUP2 MSTORE PUSH1 0x20 ADD PUSH32 0x7769746864726177000000000000000000000000000000000000000000000000 DUP2 MSTORE POP DUP2 MSTORE PUSH1 0x20 ADD DUP6 DUP2 MSTORE POP SWAP1 DUP1 PUSH1 0x1 DUP2 SLOAD ADD DUP1 DUP3 SSTORE DUP1 SWAP2 POP POP PUSH1 0x1 SWAP1 SUB SWAP1 PUSH0 MSTORE PUSH1 0x20 PUSH0 KECCAK256 SWAP1 PUSH1 0x3 MUL ADD PUSH0 SWAP1 SWAP2 SWAP1 SWAP2 SWAP1 SWAP2 POP PUSH0 DUP3 ADD MLOAD DUP2 PUSH0 ADD SSTORE PUSH1 0x20 DUP3 ADD MLOAD DUP2 PUSH1 0x1 ADD SWAP1 DUP2 PUSH2 0x8E2 SWAP2 SWAP1 PUSH2 0x1A54 JUMP JUMPDEST POP PUSH1 0x40 DUP3 ADD MLOAD DUP2 PUSH1 0x2 ADD SSTORE POP POP CALLER PUSH20 0xFFFFFFFFFFFFFFFFFFFFFFFFFFFFFFFFFFFFFFFF AND PUSH32 0x884EDAD9CE6FA2440D8A54CC123490EB96D2768479D49FF9C7366125A9424364 DUP5 PUSH1 0x40 MLOAD PUSH2 0x935 SWAP2 SWAP1 PUSH2 0x1B32 JUMP JUMPDEST PUSH1 0x40 MLOAD DUP1 SWAP2 SUB SWAP1 LOG2 POP POP PUSH0 PUSH1 0x1 DUP2 SWAP1 SSTORE POP POP JUMP JUMPDEST PUSH1 0x60 PUSH32 0x0 PUSH20 0xFFFFFFFFFFFFFFFFFFFFFFFFFFFFFFFFFFFFFFFF AND CALLER PUSH20 0xFFFFFFFFFFFFFFFFFFFFFFFFFFFFFFFFFFFFFFFF AND EQ DUP1 PUSH2 0x9EA JUMPI POP PUSH0 DUP1 CALLER PUSH20 0xFFFFFFFFFFFFFFFFFFFFFFFFFFFFFFFFFFFFFFFF AND PUSH20 0xFFFFFFFFFFFFFFFFFFFFFFFFFFFFFFFFFFFFFFFF AND DUP2 MSTORE PUSH1 0x20 ADD SWAP1 DUP2 MSTORE PUSH1 0x20 ADD PUSH0 KECCAK256 PUSH0 SWAP1 SLOAD SWAP1 PUSH2 0x100 EXP SWAP1 DIV PUSH1 0xFF AND JUMPDEST PUSH2 0xA29 JUMPI PUSH1 0x40 MLOAD PUSH32 0x8C379A000000000000000000000000000000000000000000000000000000000 DUP2 MSTORE PUSH1 0x4 ADD PUSH2 0xA20 SWAP1 PUSH2 0x1DC2 JUMP JUMPDEST PUSH1 0x40 MLOAD DUP1 SWAP2 SUB SWAP1 REVERT JUMPDEST PUSH1 0x4 DUP1 SLOAD DUP1 PUSH1 0x20 MUL PUSH1 0x20 ADD PUSH1 0x40 MLOAD SWAP1 DUP2 ADD PUSH1 0x40 MSTORE DUP1 SWAP3 SWAP2 SWAP1 DUP2 DUP2 MSTORE PUSH1 0x20 ADD DUP3 DUP1 SLOAD DUP1 ISZERO PUSH2 0xAA8 JUMPI PUSH1 0x20 MUL DUP3 ADD SWAP2 SWAP1 PUSH0 MSTORE PUSH1 0x20 PUSH0 KECCAK256 SWAP1 JUMPDEST DUP2 PUSH0 SWAP1 SLOAD SWAP1 PUSH2 0x100 EXP SWAP1 DIV PUSH20 0xFFFFFFFFFFFFFFFFFFFFFFFFFFFFFFFFFFFFFFFF AND PUSH20 0xFFFFFFFFFFFFFFFFFFFFFFFFFFFFFFFFFFFFFFFF AND DUP2 MSTORE PUSH1 0x20 ADD SWAP1 PUSH1 0x1 ADD SWAP1 DUP1 DUP4 GT PUSH2 0xA5F JUMPI JUMPDEST POP POP POP POP POP SWAP1 POP SWAP1 JUMP JUMPDEST PUSH0 PUSH1 0x1 SLOAD EQ PUSH2 0xAF6 JUMPI PUSH1 0x40 MLOAD PUSH32 0x8C379A000000000000000000000000000000000000000000000000000000000 DUP2 MSTORE PUSH1 0x4 ADD PUSH2 0xAED SWAP1 PUSH2 0x1ED3 JUMP JUMPDEST PUSH1 0x40 MLOAD DUP1 SWAP2 SUB SWAP1 REVERT JUMPDEST PUSH1 0x1 DUP1 DUP2 SWAP1 SSTORE POP PUSH0 PUSH1 0x2 PUSH0 CALLER PUSH20 0xFFFFFFFFFFFFFFFFFFFFFFFFFFFFFFFFFFFFFFFF AND PUSH20 0xFFFFFFFFFFFFFFFFFFFFFFFFFFFFFFFFFFFFFFFF AND DUP2 MSTORE PUSH1 0x20 ADD SWAP1 DUP2 MSTORE PUSH1 0x20 ADD PUSH0 KECCAK256 PUSH0 ADD SLOAD SWAP1 POP PUSH0 DUP2 GT PUSH2 0xB82 JUMPI PUSH1 0x40 MLOAD PUSH32 0x8C379A000000000000000000000000000000000000000000000000000000000 DUP2 MSTORE PUSH1 0x4 ADD PUSH2 0xB79 SWAP1 PUSH2 0x1F3B JUMP JUMPDEST PUSH1 0x40 MLOAD DUP1 SWAP2 SUB SWAP1 REVERT JUMPDEST PUSH0 CALLER PUSH20 0xFFFFFFFFFFFFFFFFFFFFFFFFFFFFFFFFFFFFFFFF AND DUP3 PUSH1 0x40 MLOAD PUSH2 0xBA7 SWAP1 PUSH2 0x1E0D JUMP JUMPDEST PUSH0 PUSH1 0x40 MLOAD DUP1 DUP4 SUB DUP2 DUP6 DUP8 GAS CALL SWAP3 POP POP POP RETURNDATASIZE DUP1 PUSH0 DUP2 EQ PUSH2 0xBE1 JUMPI PUSH1 0x40 MLOAD SWAP2 POP PUSH1 0x1F NOT PUSH1 0x3F RETURNDATASIZE ADD AND DUP3 ADD PUSH1 0x40 MSTORE RETURNDATASIZE DUP3 MSTORE RETURNDATASIZE PUSH0 PUSH1 0x20 DUP5 ADD RETURNDATACOPY PUSH2 0xBE6 JUMP JUMPDEST PUSH1 0x60 SWAP2 POP JUMPDEST POP POP SWAP1 POP DUP1 PUSH2 0xC2A JUMPI PUSH1 0x40 MLOAD PUSH32 0x8C379A000000000000000000000000000000000000000000000000000000000 DUP2 MSTORE PUSH1 0x4 ADD PUSH2 0xC21 SWAP1 PUSH2 0x1E6B JUMP JUMPDEST PUSH1 0x40 MLOAD DUP1 SWAP2 SUB SWAP1 REVERT JUMPDEST PUSH0 PUSH1 0x2 PUSH0 CALLER PUSH20 0xFFFFFFFFFFFFFFFFFFFFFFFFFFFFFFFFFFFFFFFF AND PUSH20 0xFFFFFFFFFFFFFFFFFFFFFFFFFFFFFFFFFFFFFFFF AND DUP2 MSTORE PUSH1 0x20 ADD SWAP1 DUP2 MSTORE PUSH1 0x20 ADD PUSH0 KECCAK256 PUSH0 ADD DUP2 SWAP1 SSTORE POP PUSH1 0x2 PUSH0 CALLER PUSH20 0xFFFFFFFFFFFFFFFFFFFFFFFFFFFFFFFFFFFFFFFF AND PUSH20 0xFFFFFFFFFFFFFFFFFFFFFFFFFFFFFFFFFFFFFFFF AND DUP2 MSTORE PUSH1 0x20 ADD SWAP1 DUP2 MSTORE PUSH1 0x20 ADD PUSH0 KECCAK256 PUSH1 0x1 ADD PUSH1 0x40 MLOAD DUP1 PUSH1 0x60 ADD PUSH1 0x40 MSTORE DUP1 TIMESTAMP DUP2 MSTORE PUSH1 0x20 ADD PUSH1 0x40 MLOAD DUP1 PUSH1 0x40 ADD PUSH1 0x40 MSTORE DUP1 PUSH1 0x8 DUP2 MSTORE PUSH1 0x20 ADD PUSH32 0x7769746864726177000000000000000000000000000000000000000000000000 DUP2 MSTORE POP DUP2 MSTORE PUSH1 0x20 ADD DUP5 DUP2 MSTORE POP SWAP1 DUP1 PUSH1 0x1 DUP2 SLOAD ADD DUP1 DUP3 SSTORE DUP1 SWAP2 POP POP PUSH1 0x1 SWAP1 SUB SWAP1 PUSH0 MSTORE PUSH1 0x20 PUSH0 KECCAK256 SWAP1 PUSH1 0x3 MUL ADD PUSH0 SWAP1 SWAP2 SWAP1 SWAP2 SWAP1 SWAP2 POP PUSH0 DUP3 ADD MLOAD DUP2 PUSH0 ADD SSTORE PUSH1 0x20 DUP3 ADD MLOAD DUP2 PUSH1 0x1 ADD SWAP1 DUP2 PUSH2 0xD41 SWAP2 SWAP1 PUSH2 0x1A54 JUMP JUMPDEST POP PUSH1 0x40 DUP3 ADD MLOAD DUP2 PUSH1 0x2 ADD SSTORE POP POP CALLER PUSH20 0xFFFFFFFFFFFFFFFFFFFFFFFFFFFFFFFFFFFFFFFF AND PUSH32 0x884EDAD9CE6FA2440D8A54CC123490EB96D2768479D49FF9C7366125A9424364 DUP4 PUSH1 0x40 MLOAD PUSH2 0xD94 SWAP2 SWAP1 PUSH2 0x1B32 JUMP JUMPDEST PUSH1 0x40 MLOAD DUP1 SWAP2 SUB SWAP1 LOG2 POP POP PUSH0 PUSH1 0x1 DUP2 SWAP1 SSTORE POP JUMP JUMPDEST PUSH1 0x60 PUSH32 0x0 PUSH20 0xFFFFFFFFFFFFFFFFFFFFFFFFFFFFFFFFFFFFFFFF AND CALLER PUSH20 0xFFFFFFFFFFFFFFFFFFFFFFFFFFFFFFFFFFFFFFFF AND EQ DUP1 PUSH2 0xE48 JUMPI POP PUSH0 DUP1 CALLER PUSH20 0xFFFFFFFFFFFFFFFFFFFFFFFFFFFFFFFFFFFFFFFF AND PUSH20 0xFFFFFFFFFFFFFFFFFFFFFFFFFFFFFFFFFFFFFFFF AND DUP2 MSTORE PUSH1 0x20 ADD SWAP1 DUP2 MSTORE PUSH1 0x20 ADD PUSH0 KECCAK256 PUSH0 SWAP1 SLOAD SWAP1 PUSH2 0x100 EXP SWAP1 DIV PUSH1 0xFF AND JUMPDEST PUSH2 0xE87 JUMPI PUSH1 0x40 MLOAD PUSH32 0x8C379A000000000000000000000000000000000000000000000000000000000 DUP2 MSTORE PUSH1 0x4 ADD PUSH2 0xE7E SWAP1 PUSH2 0x1DC2 JUMP JUMPDEST PUSH1 0x40 MLOAD DUP1 SWAP2 SUB SWAP1 REVERT JUMPDEST PUSH1 0x3 DUP1 SLOAD DUP1 PUSH1 0x20 MUL PUSH1 0x20 ADD PUSH1 0x40 MLOAD SWAP1 DUP2 ADD PUSH1 0x40 MSTORE DUP1 SWAP3 SWAP2 SWAP1 DUP2 DUP2 MSTORE PUSH1 0x20 ADD DUP3 DUP1 SLOAD DUP1 ISZERO PUSH2 0xF06 JUMPI PUSH1 0x20 MUL DUP3 ADD SWAP2 SWAP1 PUSH0 MSTORE PUSH1 0x20 PUSH0 KECCAK256 SWAP1 JUMPDEST DUP2 PUSH0 SWAP1 SLOAD SWAP1 PUSH2 0x100 EXP SWAP1 DIV PUSH20 0xFFFFFFFFFFFFFFFFFFFFFFFFFFFFFFFFFFFFFFFF AND PUSH20 0xFFFFFFFFFFFFFFFFFFFFFFFFFFFFFFFFFFFFFFFF AND DUP2 MSTORE PUSH1 0x20 ADD SWAP1 PUSH1 0x1 ADD SWAP1 DUP1 DUP4 GT PUSH2 0xEBD JUMPI JUMPDEST POP POP POP POP POP SWAP1 POP SWAP1 JUMP JUMPDEST PUSH32 0x0 PUSH20 0xFFFFFFFFFFFFFFFFFFFFFFFFFFFFFFFFFFFFFFFF AND CALLER PUSH20 0xFFFFFFFFFFFFFFFFFFFFFFFFFFFFFFFFFFFFFFFF AND EQ PUSH2 0xF9E JUMPI PUSH1 0x40 MLOAD PUSH32 0x8C379A000000000000000000000000000000000000000000000000000000000 DUP2 MSTORE PUSH1 0x4 ADD PUSH2 0xF95 SWAP1 PUSH2 0x1DC2 JUMP JUMPDEST PUSH1 0x40 MLOAD DUP1 SWAP2 SUB SWAP1 REVERT JUMPDEST PUSH0 ISZERO ISZERO PUSH0 DUP1 DUP4 PUSH20 0xFFFFFFFFFFFFFFFFFFFFFFFFFFFFFFFFFFFFFFFF AND PUSH20 0xFFFFFFFFFFFFFFFFFFFFFFFFFFFFFFFFFFFFFFFF AND DUP2 MSTORE PUSH1 0x20 ADD SWAP1 DUP2 MSTORE PUSH1 0x20 ADD PUSH0 KECCAK256 PUSH0 SWAP1 SLOAD SWAP1 PUSH2 0x100 EXP SWAP1 DIV PUSH1 0xFF AND ISZERO ISZERO SUB PUSH2 0x10A6 JUMPI PUSH1 0x4 DUP2 SWAP1 DUP1 PUSH1 0x1 DUP2 SLOAD ADD DUP1 DUP3 SSTORE DUP1 SWAP2 POP POP PUSH1 0x1 SWAP1 SUB SWAP1 PUSH0 MSTORE PUSH1 0x20 PUSH0 KECCAK256 ADD PUSH0 SWAP1 SWAP2 SWAP1 SWAP2 SWAP1 SWAP2 PUSH2 0x100 EXP DUP2 SLOAD DUP2 PUSH20 0xFFFFFFFFFFFFFFFFFFFFFFFFFFFFFFFFFFFFFFFF MUL NOT AND SWAP1 DUP4 PUSH20 0xFFFFFFFFFFFFFFFFFFFFFFFFFFFFFFFFFFFFFFFF AND MUL OR SWAP1 SSTORE POP PUSH1 0x1 PUSH0 DUP1 DUP4 PUSH20 0xFFFFFFFFFFFFFFFFFFFFFFFFFFFFFFFFFFFFFFFF AND PUSH20 0xFFFFFFFFFFFFFFFFFFFFFFFFFFFFFFFFFFFFFFFF AND DUP2 MSTORE PUSH1 0x20 ADD SWAP1 DUP2 MSTORE PUSH1 0x20 ADD PUSH0 KECCAK256 PUSH0 PUSH2 0x100 EXP DUP2 SLOAD DUP2 PUSH1 0xFF MUL NOT AND SWAP1 DUP4 ISZERO ISZERO MUL OR SWAP1 SSTORE POP JUMPDEST POP JUMP JUMPDEST PUSH32 0x0 PUSH20 0xFFFFFFFFFFFFFFFFFFFFFFFFFFFFFFFFFFFFFFFF AND CALLER PUSH20 0xFFFFFFFFFFFFFFFFFFFFFFFFFFFFFFFFFFFFFFFF AND EQ PUSH2 0x1137 JUMPI PUSH1 0x40 MLOAD PUSH32 0x8C379A000000000000000000000000000000000000000000000000000000000 DUP2 MSTORE PUSH1 0x4 ADD PUSH2 0x112E SWAP1 PUSH2 0x1DC2 JUMP JUMPDEST PUSH1 0x40 MLOAD DUP1 SWAP2 SUB SWAP1 REVERT JUMPDEST PUSH1 0x1 ISZERO ISZERO PUSH0 DUP1 DUP4 PUSH20 0xFFFFFFFFFFFFFFFFFFFFFFFFFFFFFFFFFFFFFFFF AND PUSH20 0xFFFFFFFFFFFFFFFFFFFFFFFFFFFFFFFFFFFFFFFF AND DUP2 MSTORE PUSH1 0x20 ADD SWAP1 DUP2 MSTORE PUSH1 0x20 ADD PUSH0 KECCAK256 PUSH0 SWAP1 SLOAD SWAP1 PUSH2 0x100 EXP SWAP1 DIV PUSH1 0xFF AND ISZERO ISZERO SUB PUSH2 0x1415 JUMPI PUSH0 PUSH1 0x4 DUP1 SLOAD SWAP1 POP SWAP1 POP PUSH1 0x1 DUP2 SUB PUSH2 0x11AE JUMPI PUSH1 0x4 PUSH0 PUSH2 0x11A9 SWAP2 SWAP1 PUSH2 0x16F0 JUMP JUMPDEST PUSH2 0x13C8 JUMP JUMPDEST PUSH0 PUSH1 0x4 PUSH1 0x1 PUSH1 0x4 DUP1 SLOAD SWAP1 POP PUSH2 0x11C3 SWAP2 SWAP1 PUSH2 0x1F59 JUMP JUMPDEST DUP2 SLOAD DUP2 LT PUSH2 0x11D4 JUMPI PUSH2 0x11D3 PUSH2 0x1F8C JUMP JUMPDEST JUMPDEST SWAP1 PUSH0 MSTORE PUSH1 0x20 PUSH0 KECCAK256 ADD PUSH0 SWAP1 SLOAD SWAP1 PUSH2 0x100 EXP SWAP1 DIV PUSH20 0xFFFFFFFFFFFFFFFFFFFFFFFFFFFFFFFFFFFFFFFF AND SWAP1 POP PUSH0 JUMPDEST DUP4 PUSH20 0xFFFFFFFFFFFFFFFFFFFFFFFFFFFFFFFFFFFFFFFF AND PUSH1 0x4 DUP3 DUP2 SLOAD DUP2 LT PUSH2 0x122B JUMPI PUSH2 0x122A PUSH2 0x1F8C JUMP JUMPDEST JUMPDEST SWAP1 PUSH0 MSTORE PUSH1 0x20 PUSH0 KECCAK256 ADD PUSH0 SWAP1 SLOAD SWAP1 PUSH2 0x100 EXP SWAP1 DIV PUSH20 0xFFFFFFFFFFFFFFFFFFFFFFFFFFFFFFFFFFFFFFFF AND PUSH20 0xFFFFFFFFFFFFFFFFFFFFFFFFFFFFFFFFFFFFFFFF AND EQ PUSH2 0x1281 JUMPI DUP1 DUP1 PUSH2 0x1279 SWAP1 PUSH2 0x1FB9 JUMP JUMPDEST SWAP2 POP POP PUSH2 0x1200 JUMP JUMPDEST PUSH1 0x4 DUP2 DUP2 SLOAD DUP2 LT PUSH2 0x1295 JUMPI PUSH2 0x1294 PUSH2 0x1F8C JUMP JUMPDEST JUMPDEST SWAP1 PUSH0 MSTORE PUSH1 0x20 PUSH0 KECCAK256 ADD PUSH0 SWAP1 SLOAD SWAP1 PUSH2 0x100 EXP SWAP1 DIV PUSH20 0xFFFFFFFFFFFFFFFFFFFFFFFFFFFFFFFFFFFFFFFF AND PUSH1 0x4 PUSH1 0x1 PUSH1 0x4 DUP1 SLOAD SWAP1 POP PUSH2 0x12D1 SWAP2 SWAP1 PUSH2 0x1F59 JUMP JUMPDEST DUP2 SLOAD DUP2 LT PUSH2 0x12E2 JUMPI PUSH2 0x12E1 PUSH2 0x1F8C JUMP JUMPDEST JUMPDEST SWAP1 PUSH0 MSTORE PUSH1 0x20 PUSH0 KECCAK256 ADD PUSH0 PUSH2 0x100 EXP DUP2 SLOAD DUP2 PUSH20 0xFFFFFFFFFFFFFFFFFFFFFFFFFFFFFFFFFFFFFFFF MUL NOT AND SWAP1 DUP4 PUSH20 0xFFFFFFFFFFFFFFFFFFFFFFFFFFFFFFFFFFFFFFFF AND MUL OR SWAP1 SSTORE POP DUP2 PUSH1 0x4 DUP3 DUP2 SLOAD DUP2 LT PUSH2 0x133C JUMPI PUSH2 0x133B PUSH2 0x1F8C JUMP JUMPDEST JUMPDEST SWAP1 PUSH0 MSTORE PUSH1 0x20 PUSH0 KECCAK256 ADD PUSH0 PUSH2 0x100 EXP DUP2 SLOAD DUP2 PUSH20 0xFFFFFFFFFFFFFFFFFFFFFFFFFFFFFFFFFFFFFFFF MUL NOT AND SWAP1 DUP4 PUSH20 0xFFFFFFFFFFFFFFFFFFFFFFFFFFFFFFFFFFFFFFFF AND MUL OR SWAP1 SSTORE POP PUSH1 0x4 DUP1 SLOAD DUP1 PUSH2 0x1393 JUMPI PUSH2 0x1392 PUSH2 0x2000 JUMP JUMPDEST JUMPDEST PUSH1 0x1 SWAP1 SUB DUP2 DUP2 SWAP1 PUSH0 MSTORE PUSH1 0x20 PUSH0 KECCAK256 ADD PUSH0 PUSH2 0x100 EXP DUP2 SLOAD SWAP1 PUSH20 0xFFFFFFFFFFFFFFFFFFFFFFFFFFFFFFFFFFFFFFFF MUL NOT AND SWAP1 SSTORE SWAP1 SSTORE POP POP JUMPDEST PUSH0 DUP1 DUP4 PUSH20 0xFFFFFFFFFFFFFFFFFFFFFFFFFFFFFFFFFFFFFFFF AND PUSH20 0xFFFFFFFFFFFFFFFFFFFFFFFFFFFFFFFFFFFFFFFF AND DUP2 MSTORE PUSH1 0x20 ADD SWAP1 DUP2 MSTORE PUSH1 0x20 ADD PUSH0 KECCAK256 PUSH0 PUSH2 0x100 EXP DUP2 SLOAD SWAP1 PUSH1 0xFF MUL NOT AND SWAP1 SSTORE POP JUMPDEST POP JUMP JUMPDEST PUSH0 PUSH1 0x2 PUSH0 DUP4 PUSH20 0xFFFFFFFFFFFFFFFFFFFFFFFFFFFFFFFFFFFFFFFF AND PUSH20 0xFFFFFFFFFFFFFFFFFFFFFFFFFFFFFFFFFFFFFFFF AND DUP2 MSTORE PUSH1 0x20 ADD SWAP1 DUP2 MSTORE PUSH1 0x20 ADD PUSH0 KECCAK256 PUSH1 0x1 ADD DUP1 SLOAD SWAP1 POP GT ISZERO PUSH2 0x16ED JUMPI PUSH0 PUSH1 0x3 DUP1 SLOAD SWAP1 POP SWAP1 POP PUSH1 0x1 DUP2 SUB PUSH2 0x1486 JUMPI PUSH1 0x3 PUSH0 PUSH2 0x1481 SWAP2 SWAP1 PUSH2 0x16F0 JUMP JUMPDEST PUSH2 0x1696 JUMP JUMPDEST PUSH0 PUSH1 0x3 PUSH1 0x1 DUP4 PUSH2 0x1496 SWAP2 SWAP1 PUSH2 0x1F59 JUMP JUMPDEST DUP2 SLOAD DUP2 LT PUSH2 0x14A7 JUMPI PUSH2 0x14A6 PUSH2 0x1F8C JUMP JUMPDEST JUMPDEST SWAP1 PUSH0 MSTORE PUSH1 0x20 PUSH0 KECCAK256 ADD PUSH0 SWAP1 SLOAD SWAP1 PUSH2 0x100 EXP SWAP1 DIV PUSH20 0xFFFFFFFFFFFFFFFFFFFFFFFFFFFFFFFFFFFFFFFF AND SWAP1 POP PUSH0 JUMPDEST DUP4 PUSH20 0xFFFFFFFFFFFFFFFFFFFFFFFFFFFFFFFFFFFFFFFF AND PUSH1 0x3 DUP3 DUP2 SLOAD DUP2 LT PUSH2 0x14FE JUMPI PUSH2 0x14FD PUSH2 0x1F8C JUMP JUMPDEST JUMPDEST SWAP1 PUSH0 MSTORE PUSH1 0x20 PUSH0 KECCAK256 ADD PUSH0 SWAP1 SLOAD SWAP1 PUSH2 0x100 EXP SWAP1 DIV PUSH20 0xFFFFFFFFFFFFFFFFFFFFFFFFFFFFFFFFFFFFFFFF AND PUSH20 0xFFFFFFFFFFFFFFFFFFFFFFFFFFFFFFFFFFFFFFFF AND EQ PUSH2 0x1554 JUMPI DUP1 DUP1 PUSH2 0x154C SWAP1 PUSH2 0x1FB9 JUMP JUMPDEST SWAP2 POP POP PUSH2 0x14D3 JUMP JUMPDEST PUSH1 0x3 DUP2 DUP2 SLOAD DUP2 LT PUSH2 0x1568 JUMPI PUSH2 0x1567 PUSH2 0x1F8C JUMP JUMPDEST JUMPDEST SWAP1 PUSH0 MSTORE PUSH1 0x20 PUSH0 KECCAK256 ADD PUSH0 SWAP1 SLOAD SWAP1 PUSH2 0x100 EXP SWAP1 DIV PUSH20 0xFFFFFFFFFFFFFFFFFFFFFFFFFFFFFFFFFFFFFFFF AND PUSH1 0x3 PUSH1 0x1 DUP6 PUSH2 0x159F SWAP2 SWAP1 PUSH2 0x1F59 JUMP JUMPDEST DUP2 SLOAD DUP2 LT PUSH2 0x15B0 JUMPI PUSH2 0x15AF PUSH2 0x1F8C JUMP JUMPDEST JUMPDEST SWAP1 PUSH0 MSTORE PUSH1 0x20 PUSH0 KECCAK256 ADD PUSH0 PUSH2 0x100 EXP DUP2 SLOAD DUP2 PUSH20 0xFFFFFFFFFFFFFFFFFFFFFFFFFFFFFFFFFFFFFFFF MUL NOT AND SWAP1 DUP4 PUSH20 0xFFFFFFFFFFFFFFFFFFFFFFFFFFFFFFFFFFFFFFFF AND MUL OR SWAP1 SSTORE POP DUP2 PUSH1 0x3 DUP3 DUP2 SLOAD DUP2 LT PUSH2 0x160A JUMPI PUSH2 0x1609 PUSH2 0x1F8C JUMP JUMPDEST JUMPDEST SWAP1 PUSH0 MSTORE PUSH1 0x20 PUSH0 KECCAK256 ADD PUSH0 PUSH2 0x100 EXP DUP2 SLOAD DUP2 PUSH20 0xFFFFFFFFFFFFFFFFFFFFFFFFFFFFFFFFFFFFFFFF MUL NOT AND SWAP1 DUP4 PUSH20 0xFFFFFFFFFFFFFFFFFFFFFFFFFFFFFFFFFFFFFFFF AND MUL OR SWAP1 SSTORE POP PUSH1 0x3 DUP1 SLOAD DUP1 PUSH2 0x1661 JUMPI PUSH2 0x1660 PUSH2 0x2000 JUMP JUMPDEST JUMPDEST PUSH1 0x1 SWAP1 SUB DUP2 DUP2 SWAP1 PUSH0 MSTORE PUSH1 0x20 PUSH0 KECCAK256 ADD PUSH0 PUSH2 0x100 EXP DUP2 SLOAD SWAP1 PUSH20 0xFFFFFFFFFFFFFFFFFFFFFFFFFFFFFFFFFFFFFFFF MUL NOT AND SWAP1 SSTORE SWAP1 SSTORE POP POP JUMPDEST PUSH1 0x2 PUSH0 DUP4 PUSH20 0xFFFFFFFFFFFFFFFFFFFFFFFFFFFFFFFFFFFFFFFF AND PUSH20 0xFFFFFFFFFFFFFFFFFFFFFFFFFFFFFFFFFFFFFFFF AND DUP2 MSTORE PUSH1 0x20 ADD SWAP1 DUP2 MSTORE PUSH1 0x20 ADD PUSH0 KECCAK256 PUSH0 DUP1 DUP3 ADD PUSH0 SWAP1 SSTORE PUSH1 0x1 DUP3 ADD PUSH0 PUSH2 0x16E9 SWAP2 SWAP1 PUSH2 0x170E JUMP JUMPDEST POP POP POP JUMPDEST POP JUMP JUMPDEST POP DUP1 SLOAD PUSH0 DUP3 SSTORE SWAP1 PUSH0 MSTORE PUSH1 0x20 PUSH0 KECCAK256 SWAP1 DUP2 ADD SWAP1 PUSH2 0x170B SWAP2 SWAP1 PUSH2 0x172F JUMP JUMPDEST POP JUMP JUMPDEST POP DUP1 SLOAD PUSH0 DUP3 SSTORE PUSH1 0x3 MUL SWAP1 PUSH0 MSTORE PUSH1 0x20 PUSH0 KECCAK256 SWAP1 DUP2 ADD SWAP1 PUSH2 0x172C SWAP2 SWAP1 PUSH2 0x174A JUMP JUMPDEST POP JUMP JUMPDEST JUMPDEST DUP1 DUP3 GT ISZERO PUSH2 0x1746 JUMPI PUSH0 DUP2 PUSH0 SWAP1 SSTORE POP PUSH1 0x1 ADD PUSH2 0x1730 JUMP JUMPDEST POP SWAP1 JUMP JUMPDEST JUMPDEST DUP1 DUP3 GT ISZERO PUSH2 0x1779 JUMPI PUSH0 DUP1 DUP3 ADD PUSH0 SWAP1 SSTORE PUSH1 0x1 DUP3 ADD PUSH0 PUSH2 0x1769 SWAP2 SWAP1 PUSH2 0x177D JUMP JUMPDEST PUSH1 0x2 DUP3 ADD PUSH0 SWAP1 SSTORE POP PUSH1 0x3 ADD PUSH2 0x174B JUMP JUMPDEST POP SWAP1 JUMP JUMPDEST POP DUP1 SLOAD PUSH2 0x1789 SWAP1 PUSH2 0x1887 JUMP JUMPDEST PUSH0 DUP3 SSTORE DUP1 PUSH1 0x1F LT PUSH2 0x179A JUMPI POP PUSH2 0x17B7 JUMP JUMPDEST PUSH1 0x1F ADD PUSH1 0x20 SWAP1 DIV SWAP1 PUSH0 MSTORE PUSH1 0x20 PUSH0 KECCAK256 SWAP1 DUP2 ADD SWAP1 PUSH2 0x17B6 SWAP2 SWAP1 PUSH2 0x172F JUMP JUMPDEST JUMPDEST POP JUMP JUMPDEST PUSH0 DUP2 SWAP1 POP SWAP2 SWAP1 POP JUMP JUMPDEST PUSH32 0x4E487B7100000000000000000000000000000000000000000000000000000000 PUSH0 MSTORE PUSH1 0x11 PUSH1 0x4 MSTORE PUSH1 0x24 PUSH0 REVERT JUMPDEST PUSH0 PUSH2 0x17FA DUP3 PUSH2 0x17BA JUMP JUMPDEST SWAP2 POP PUSH2 0x1805 DUP4 PUSH2 0x17BA JUMP JUMPDEST SWAP3 POP DUP3 DUP3 ADD SWAP1 POP DUP1 DUP3 GT ISZERO PUSH2 0x181D JUMPI PUSH2 0x181C PUSH2 0x17C3 JUMP JUMPDEST JUMPDEST SWAP3 SWAP2 POP POP JUMP JUMPDEST PUSH0 DUP2 MLOAD SWAP1 POP SWAP2 SWAP1 POP JUMP JUMPDEST PUSH32 0x4E487B7100000000000000000000000000000000000000000000000000000000 PUSH0 MSTORE PUSH1 0x41 PUSH1 0x4 MSTORE PUSH1 0x24 PUSH0 REVERT JUMPDEST PUSH32 0x4E487B7100000000000000000000000000000000000000000000000000000000 PUSH0 MSTORE PUSH1 0x22 PUSH1 0x4 MSTORE PUSH1 0x24 PUSH0 REVERT JUMPDEST PUSH0 PUSH1 0x2 DUP3 DIV SWAP1 POP PUSH1 0x1 DUP3 AND DUP1 PUSH2 0x189E JUMPI PUSH1 0x7F DUP3 AND SWAP2 POP JUMPDEST PUSH1 0x20 DUP3 LT DUP2 SUB PUSH2 0x18B1 JUMPI PUSH2 0x18B0 PUSH2 0x185A JUMP JUMPDEST JUMPDEST POP SWAP2 SWAP1 POP JUMP JUMPDEST PUSH0 DUP2 SWAP1 POP DUP2 PUSH0 MSTORE PUSH1 0x20 PUSH0 KECCAK256 SWAP1 POP SWAP2 SWAP1 POP JUMP JUMPDEST PUSH0 PUSH1 0x20 PUSH1 0x1F DUP4 ADD DIV SWAP1 POP SWAP2 SWAP1 POP JUMP JUMPDEST PUSH0 DUP3 DUP3 SHL SWAP1 POP SWAP3 SWAP2 POP POP JUMP JUMPDEST PUSH0 PUSH1 0x8 DUP4 MUL PUSH2 0x1913 PUSH32 0xFFFFFFFFFFFFFFFFFFFFFFFFFFFFFFFFFFFFFFFFFFFFFFFFFFFFFFFFFFFFFFFF DUP3 PUSH2 0x18D8 JUMP JUMPDEST PUSH2 0x191D DUP7 DUP4 PUSH2 0x18D8 JUMP JUMPDEST SWAP6 POP DUP1 NOT DUP5 AND SWAP4 POP DUP1 DUP7 AND DUP5 OR SWAP3 POP POP POP SWAP4 SWAP3 POP POP POP JUMP JUMPDEST PUSH0 DUP2 SWAP1 POP SWAP2 SWAP1 POP JUMP JUMPDEST PUSH0 PUSH2 0x1958 PUSH2 0x1953 PUSH2 0x194E DUP5 PUSH2 0x17BA JUMP JUMPDEST PUSH2 0x1935 JUMP JUMPDEST PUSH2 0x17BA JUMP JUMPDEST SWAP1 POP SWAP2 SWAP1 POP JUMP JUMPDEST PUSH0 DUP2 SWAP1 POP SWAP2 SWAP1 POP JUMP JUMPDEST PUSH2 0x1971 DUP4 PUSH2 0x193E JUMP JUMPDEST PUSH2 0x1985 PUSH2 0x197D DUP3 PUSH2 0x195F JUMP JUMPDEST DUP5 DUP5 SLOAD PUSH2 0x18E4 JUMP JUMPDEST DUP3 SSTORE POP POP POP POP JUMP JUMPDEST PUSH0 SWAP1 JUMP JUMPDEST PUSH2 0x1999 PUSH2 0x198D JUMP JUMPDEST PUSH2 0x19A4 DUP2 DUP5 DUP5 PUSH2 0x1968 JUMP JUMPDEST POP POP POP JUMP JUMPDEST JUMPDEST DUP2 DUP2 LT ISZERO PUSH2 0x19C7 JUMPI PUSH2 0x19BC PUSH0 DUP3 PUSH2 0x1991 JUMP JUMPDEST PUSH1 0x1 DUP2 ADD SWAP1 POP PUSH2 0x19AA JUMP JUMPDEST POP POP JUMP JUMPDEST PUSH1 0x1F DUP3 GT ISZERO PUSH2 0x1A0C JUMPI PUSH2 0x19DD DUP2 PUSH2 0x18B7 JUMP JUMPDEST PUSH2 0x19E6 DUP5 PUSH2 0x18C9 JUMP JUMPDEST DUP2 ADD PUSH1 0x20 DUP6 LT ISZERO PUSH2 0x19F5 JUMPI DUP2 SWAP1 POP JUMPDEST PUSH2 0x1A09 PUSH2 0x1A01 DUP6 PUSH2 0x18C9 JUMP JUMPDEST DUP4 ADD DUP3 PUSH2 0x19A9 JUMP JUMPDEST POP POP JUMPDEST POP POP POP JUMP JUMPDEST PUSH0 DUP3 DUP3 SHR SWAP1 POP SWAP3 SWAP2 POP POP JUMP JUMPDEST PUSH0 PUSH2 0x1A2C PUSH0 NOT DUP5 PUSH1 0x8 MUL PUSH2 0x1A11 JUMP JUMPDEST NOT DUP1 DUP4 AND SWAP2 POP POP SWAP3 SWAP2 POP POP JUMP JUMPDEST PUSH0 PUSH2 0x1A44 DUP4 DUP4 PUSH2 0x1A1D JUMP JUMPDEST SWAP2 POP DUP3 PUSH1 0x2 MUL DUP3 OR SWAP1 POP SWAP3 SWAP2 POP POP JUMP JUMPDEST PUSH2 0x1A5D DUP3 PUSH2 0x1823 JUMP JUMPDEST PUSH8 0xFFFFFFFFFFFFFFFF DUP2 GT ISZERO PUSH2 0x1A76 JUMPI PUSH2 0x1A75 PUSH2 0x182D JUMP JUMPDEST JUMPDEST PUSH2 0x1A80 DUP3 SLOAD PUSH2 0x1887 JUMP JUMPDEST PUSH2 0x1A8B DUP3 DUP3 DUP6 PUSH2 0x19CB JUMP JUMPDEST PUSH0 PUSH1 0x20 SWAP1 POP PUSH1 0x1F DUP4 GT PUSH1 0x1 DUP2 EQ PUSH2 0x1ABC JUMPI PUSH0 DUP5 ISZERO PUSH2 0x1AAA JUMPI DUP3 DUP8 ADD MLOAD SWAP1 POP JUMPDEST PUSH2 0x1AB4 DUP6 DUP3 PUSH2 0x1A39 JUMP JUMPDEST DUP7 SSTORE POP PUSH2 0x1B1B JUMP JUMPDEST PUSH1 0x1F NOT DUP5 AND PUSH2 0x1ACA DUP7 PUSH2 0x18B7 JUMP JUMPDEST PUSH0 JUMPDEST DUP3 DUP2 LT ISZERO PUSH2 0x1AF1 JUMPI DUP5 DUP10 ADD MLOAD DUP3 SSTORE PUSH1 0x1 DUP3 ADD SWAP2 POP PUSH1 0x20 DUP6 ADD SWAP5 POP PUSH1 0x20 DUP2 ADD SWAP1 POP PUSH2 0x1ACC JUMP JUMPDEST DUP7 DUP4 LT ISZERO PUSH2 0x1B0E JUMPI DUP5 DUP10 ADD MLOAD PUSH2 0x1B0A PUSH1 0x1F DUP10 AND DUP3 PUSH2 0x1A1D JUMP JUMPDEST DUP4 SSTORE POP JUMPDEST PUSH1 0x1 PUSH1 0x2 DUP9 MUL ADD DUP9 SSTORE POP POP POP JUMPDEST POP POP POP POP POP POP JUMP JUMPDEST PUSH2 0x1B2C DUP2 PUSH2 0x17BA JUMP JUMPDEST DUP3 MSTORE POP POP JUMP JUMPDEST PUSH0 PUSH1 0x20 DUP3 ADD SWAP1 POP PUSH2 0x1B45 PUSH0 DUP4 ADD DUP5 PUSH2 0x1B23 JUMP JUMPDEST SWAP3 SWAP2 POP POP JUMP JUMPDEST PUSH0 DUP3 DUP3 MSTORE PUSH1 0x20 DUP3 ADD SWAP1 POP SWAP3 SWAP2 POP POP JUMP JUMPDEST PUSH32 0x6572726F7220696E206F7065726174696F6E0000000000000000000000000000 PUSH0 DUP3 ADD MSTORE POP JUMP JUMPDEST PUSH0 PUSH2 0x1B8F PUSH1 0x12 DUP4 PUSH2 0x1B4B JUMP JUMPDEST SWAP2 POP PUSH2 0x1B9A DUP3 PUSH2 0x1B5B JUMP JUMPDEST PUSH1 0x20 DUP3 ADD SWAP1 POP SWAP2 SWAP1 POP JUMP JUMPDEST PUSH0 PUSH1 0x20 DUP3 ADD SWAP1 POP DUP2 DUP2 SUB PUSH0 DUP4 ADD MSTORE PUSH2 0x1BBC DUP2 PUSH2 0x1B83 JUMP JUMPDEST SWAP1 POP SWAP2 SWAP1 POP JUMP JUMPDEST PUSH0 DUP1 REVERT JUMPDEST PUSH0 PUSH20 0xFFFFFFFFFFFFFFFFFFFFFFFFFFFFFFFFFFFFFFFF DUP3 AND SWAP1 POP SWAP2 SWAP1 POP JUMP JUMPDEST PUSH0 PUSH2 0x1BF0 DUP3 PUSH2 0x1BC7 JUMP JUMPDEST SWAP1 POP SWAP2 SWAP1 POP JUMP JUMPDEST PUSH2 0x1C00 DUP2 PUSH2 0x1BE6 JUMP JUMPDEST DUP2 EQ PUSH2 0x1C0A JUMPI PUSH0 DUP1 REVERT JUMPDEST POP JUMP JUMPDEST PUSH0 DUP2 CALLDATALOAD SWAP1 POP PUSH2 0x1C1B DUP2 PUSH2 0x1BF7 JUMP JUMPDEST SWAP3 SWAP2 POP POP JUMP JUMPDEST PUSH0 PUSH1 0x20 DUP3 DUP5 SUB SLT ISZERO PUSH2 0x1C36 JUMPI PUSH2 0x1C35 PUSH2 0x1BC3 JUMP JUMPDEST JUMPDEST PUSH0 PUSH2 0x1C43 DUP5 DUP3 DUP6 ADD PUSH2 0x1C0D JUMP JUMPDEST SWAP2 POP POP SWAP3 SWAP2 POP POP JUMP JUMPDEST PUSH2 0x1C55 DUP2 PUSH2 0x17BA JUMP JUMPDEST DUP2 EQ PUSH2 0x1C5F JUMPI PUSH0 DUP1 REVERT JUMPDEST POP JUMP JUMPDEST PUSH0 DUP2 CALLDATALOAD SWAP1 POP PUSH2 0x1C70 DUP2 PUSH2 0x1C4C JUMP JUMPDEST SWAP3 SWAP2 POP POP JUMP JUMPDEST PUSH0 PUSH1 0x20 DUP3 DUP5 SUB SLT ISZERO PUSH2 0x1C8B JUMPI PUSH2 0x1C8A PUSH2 0x1BC3 JUMP JUMPDEST JUMPDEST PUSH0 PUSH2 0x1C98 DUP5 DUP3 DUP6 ADD PUSH2 0x1C62 JUMP JUMPDEST SWAP2 POP POP SWAP3 SWAP2 POP POP JUMP JUMPDEST PUSH0 DUP2 MLOAD SWAP1 POP SWAP2 SWAP1 POP JUMP JUMPDEST PUSH0 DUP3 DUP3 MSTORE PUSH1 0x20 DUP3 ADD SWAP1 POP SWAP3 SWAP2 POP POP JUMP JUMPDEST PUSH0 DUP2 SWAP1 POP PUSH1 0x20 DUP3 ADD SWAP1 POP SWAP2 SWAP1 POP JUMP JUMPDEST PUSH2 0x1CD3 DUP2 PUSH2 0x1BE6 JUMP JUMPDEST DUP3 MSTORE POP POP JUMP JUMPDEST PUSH0 PUSH2 0x1CE4 DUP4 DUP4 PUSH2 0x1CCA JUMP JUMPDEST PUSH1 0x20 DUP4 ADD SWAP1 POP SWAP3 SWAP2 POP POP JUMP JUMPDEST PUSH0 PUSH1 0x20 DUP3 ADD SWAP1 POP SWAP2 SWAP1 POP JUMP JUMPDEST PUSH0 PUSH2 0x1D06 DUP3 PUSH2 0x1CA1 JUMP JUMPDEST PUSH2 0x1D10 DUP2 DUP6 PUSH2 0x1CAB JUMP JUMPDEST SWAP4 POP PUSH2 0x1D1B DUP4 PUSH2 0x1CBB JUMP JUMPDEST DUP1 PUSH0 JUMPDEST DUP4 DUP2 LT ISZERO PUSH2 0x1D4B JUMPI DUP2 MLOAD PUSH2 0x1D32 DUP9 DUP3 PUSH2 0x1CD9 JUMP JUMPDEST SWAP8 POP PUSH2 0x1D3D DUP4 PUSH2 0x1CF0 JUMP JUMPDEST SWAP3 POP POP PUSH1 0x1 DUP2 ADD SWAP1 POP PUSH2 0x1D1E JUMP JUMPDEST POP DUP6 SWAP4 POP POP POP POP SWAP3 SWAP2 POP POP JUMP JUMPDEST PUSH0 PUSH1 0x20 DUP3 ADD SWAP1 POP DUP2 DUP2 SUB PUSH0 DUP4 ADD MSTORE PUSH2 0x1D70 DUP2 DUP5 PUSH2 0x1CFC JUMP JUMPDEST SWAP1 POP SWAP3 SWAP2 POP POP JUMP JUMPDEST PUSH32 0x466F7262696464656E2E00000000000000000000000000000000000000000000 PUSH0 DUP3 ADD MSTORE POP JUMP JUMPDEST PUSH0 PUSH2 0x1DAC PUSH1 0xA DUP4 PUSH2 0x1B4B JUMP JUMPDEST SWAP2 POP PUSH2 0x1DB7 DUP3 PUSH2 0x1D78 JUMP JUMPDEST PUSH1 0x20 DUP3 ADD SWAP1 POP SWAP2 SWAP1 POP JUMP JUMPDEST PUSH0 PUSH1 0x20 DUP3 ADD SWAP1 POP DUP2 DUP2 SUB PUSH0 DUP4 ADD MSTORE PUSH2 0x1DD9 DUP2 PUSH2 0x1DA0 JUMP JUMPDEST SWAP1 POP SWAP2 SWAP1 POP JUMP JUMPDEST PUSH0 DUP2 SWAP1 POP SWAP3 SWAP2 POP POP JUMP JUMPDEST POP JUMP JUMPDEST PUSH0 PUSH2 0x1DF8 PUSH0 DUP4 PUSH2 0x1DE0 JUMP JUMPDEST SWAP2 POP PUSH2 0x1E03 DUP3 PUSH2 0x1DEA JUMP JUMPDEST PUSH0 DUP3 ADD SWAP1 POP SWAP2 SWAP1 POP JUMP JUMPDEST PUSH0 PUSH2 0x1E17 DUP3 PUSH2 0x1DED JUMP JUMPDEST SWAP2 POP DUP2 SWAP1 POP SWAP2 SWAP1 POP JUMP JUMPDEST PUSH32 0x5472616E73666572206661696C65640000000000000000000000000000000000 PUSH0 DUP3 ADD MSTORE POP JUMP JUMPDEST PUSH0 PUSH2 0x1E55 PUSH1 0xF DUP4 PUSH2 0x1B4B JUMP JUMPDEST SWAP2 POP PUSH2 0x1E60 DUP3 PUSH2 0x1E21 JUMP JUMPDEST PUSH1 0x20 DUP3 ADD SWAP1 POP SWAP2 SWAP1 POP JUMP JUMPDEST PUSH0 PUSH1 0x20 DUP3 ADD SWAP1 POP DUP2 DUP2 SUB PUSH0 DUP4 ADD MSTORE PUSH2 0x1E82 DUP2 PUSH2 0x1E49 JUMP JUMPDEST SWAP1 POP SWAP2 SWAP1 POP JUMP JUMPDEST PUSH32 0x5265656E7472616E637947756172643A207265656E7472616E742063616C6C00 PUSH0 DUP3 ADD MSTORE POP JUMP JUMPDEST PUSH0 PUSH2 0x1EBD PUSH1 0x1F DUP4 PUSH2 0x1B4B JUMP JUMPDEST SWAP2 POP PUSH2 0x1EC8 DUP3 PUSH2 0x1E89 JUMP JUMPDEST PUSH1 0x20 DUP3 ADD SWAP1 POP SWAP2 SWAP1 POP JUMP JUMPDEST PUSH0 PUSH1 0x20 DUP3 ADD SWAP1 POP DUP2 DUP2 SUB PUSH0 DUP4 ADD MSTORE PUSH2 0x1EEA DUP2 PUSH2 0x1EB1 JUMP JUMPDEST SWAP1 POP SWAP2 SWAP1 POP JUMP JUMPDEST PUSH32 0x6E6F742073756666696369656E742066756E6473000000000000000000000000 PUSH0 DUP3 ADD MSTORE POP JUMP JUMPDEST PUSH0 PUSH2 0x1F25 PUSH1 0x14 DUP4 PUSH2 0x1B4B JUMP JUMPDEST SWAP2 POP PUSH2 0x1F30 DUP3 PUSH2 0x1EF1 JUMP JUMPDEST PUSH1 0x20 DUP3 ADD SWAP1 POP SWAP2 SWAP1 POP JUMP JUMPDEST PUSH0 PUSH1 0x20 DUP3 ADD SWAP1 POP DUP2 DUP2 SUB PUSH0 DUP4 ADD MSTORE PUSH2 0x1F52 DUP2 PUSH2 0x1F19 JUMP JUMPDEST SWAP1 POP SWAP2 SWAP1 POP JUMP JUMPDEST PUSH0 PUSH2 0x1F63 DUP3 PUSH2 0x17BA JUMP JUMPDEST SWAP2 POP PUSH2 0x1F6E DUP4 PUSH2 0x17BA JUMP JUMPDEST SWAP3 POP DUP3 DUP3 SUB SWAP1 POP DUP2 DUP2 GT ISZERO PUSH2 0x1F86 JUMPI PUSH2 0x1F85 PUSH2 0x17C3 JUMP JUMPDEST JUMPDEST SWAP3 SWAP2 POP POP JUMP JUMPDEST PUSH32 0x4E487B7100000000000000000000000000000000000000000000000000000000 PUSH0 MSTORE PUSH1 0x32 PUSH1 0x4 MSTORE PUSH1 0x24 PUSH0 REVERT JUMPDEST PUSH0 PUSH2 0x1FC3 DUP3 PUSH2 0x17BA JUMP JUMPDEST SWAP2 POP PUSH32 0xFFFFFFFFFFFFFFFFFFFFFFFFFFFFFFFFFFFFFFFFFFFFFFFFFFFFFFFFFFFFFFFF DUP3 SUB PUSH2 0x1FF5 JUMPI PUSH2 0x1FF4 PUSH2 0x17C3 JUMP JUMPDEST JUMPDEST PUSH1 0x1 DUP3 ADD SWAP1 POP SWAP2 SWAP1 POP JUMP JUMPDEST PUSH32 0x4E487B7100000000000000000000000000000000000000000000000000000000 PUSH0 MSTORE PUSH1 0x31 PUSH1 0x4 MSTORE PUSH1 0x24 PUSH0 REVERT INVALID LOG2 PUSH5 0x6970667358 0x22 SLT KECCAK256 0xF BLOBHASH PUSH20 0x6ADEDB11DD616464D3C6826ACA15E6429154D3D8 PUSH9 0x4EC2C4F13D12929F64 PUSH20 0x6F6C634300081800330000000000000000000000 "
				},
				"gasEstimates": {
					"creation": {
						"codeDepositCost": "1658200",
						"executionCost": "infinite",
						"totalCost": "infinite"
					},
					"external": {
						"": "1645",
						"DestroyingAccount(address)": "infinite",
						"addAdministrator(address)": "infinite",
						"dataBase(address)": "2838",
						"deleteAdministrator(address)": "infinite",
						"getAdministratorList()": "infinite",
						"getBalance()": "335",
						"getUserList()": "infinite",
						"withdraw(uint256)": "infinite",
						"withdrawAll()": "infinite"
					},
					"internal": {
						"addUserAddress(address)": "50817",
						"delUserAddresses(address)": "infinite"
					}
				},
				"methodIdentifiers": {
					"DestroyingAccount(address)": "2532b598",
					"addAdministrator(address)": "c9991176",
					"dataBase(address)": "12f56410",
					"deleteAdministrator(address)": "dc7154cb",
					"getAdministratorList()": "51b2faf6",
					"getBalance()": "12065fe0",
					"getUserList()": "b8522043",
					"withdraw(uint256)": "2e1a7d4d",
					"withdrawAll()": "853828b6"
				}
			},
			"storageLayout": {
				"storage": [
					{
						"astId": 7,
						"contract": "contracts/contract3/bank.sol:Bank",
						"label": "administrators",
						"offset": 0,
						"slot": "0",
						"type": "t_mapping(t_address,t_bool)"
					},
					{
						"astId": 23,
						"contract": "contracts/contract3/bank.sol:Bank",
						"label": "_status",
						"offset": 0,
						"slot": "1",
						"type": "t_uint256"
					},
					{
						"astId": 28,
						"contract": "contracts/contract3/bank.sol:Bank",
						"label": "dataBase",
						"offset": 0,
						"slot": "2",
						"type": "t_mapping(t_address,t_struct(UserInfo)21_storage)"
					},
					{
						"astId": 31,
						"contract": "contracts/contract3/bank.sol:Bank",
						"label": "allUserAddresses",
						"offset": 0,
						"slot": "3",
						"type": "t_array(t_address)dyn_storage"
					},
					{
						"astId": 34,
						"contract": "contracts/contract3/bank.sol:Bank",
						"label": "allAdminAddresses",
						"offset": 0,
						"slot": "4",
						"type": "t_array(t_address)dyn_storage"
					}
				],
				"types": {
					"t_address": {
						"encoding": "inplace",
						"label": "address",
						"numberOfBytes": "20"
					},
					"t_array(t_address)dyn_storage": {
						"base": "t_address",
						"encoding": "dynamic_array",
						"label": "address[]",
						"numberOfBytes": "32"
					},
					"t_array(t_struct(TransactionInfo)14_storage)dyn_storage": {
						"base": "t_struct(TransactionInfo)14_storage",
						"encoding": "dynamic_array",
						"label": "struct Bank.TransactionInfo[]",
						"numberOfBytes": "32"
					},
					"t_bool": {
						"encoding": "inplace",
						"label": "bool",
						"numberOfBytes": "1"
					},
					"t_mapping(t_address,t_bool)": {
						"encoding": "mapping",
						"key": "t_address",
						"label": "mapping(address => bool)",
						"numberOfBytes": "32",
						"value": "t_bool"
					},
					"t_mapping(t_address,t_struct(UserInfo)21_storage)": {
						"encoding": "mapping",
						"key": "t_address",
						"label": "mapping(address => struct Bank.UserInfo)",
						"numberOfBytes": "32",
						"value": "t_struct(UserInfo)21_storage"
					},
					"t_string_storage": {
						"encoding": "bytes",
						"label": "string",
						"numberOfBytes": "32"
					},
					"t_struct(TransactionInfo)14_storage": {
						"encoding": "inplace",
						"label": "struct Bank.TransactionInfo",
						"members": [
							{
								"astId": 9,
								"contract": "contracts/contract3/bank.sol:Bank",
								"label": "timestamp",
								"offset": 0,
								"slot": "0",
								"type": "t_uint256"
							},
							{
								"astId": 11,
								"contract": "contracts/contract3/bank.sol:Bank",
								"label": "category",
								"offset": 0,
								"slot": "1",
								"type": "t_string_storage"
							},
							{
								"astId": 13,
								"contract": "contracts/contract3/bank.sol:Bank",
								"label": "value",
								"offset": 0,
								"slot": "2",
								"type": "t_uint256"
							}
						],
						"numberOfBytes": "96"
					},
					"t_struct(UserInfo)21_storage": {
						"encoding": "inplace",
						"label": "struct Bank.UserInfo",
						"members": [
							{
								"astId": 16,
								"contract": "contracts/contract3/bank.sol:Bank",
								"label": "balance",
								"offset": 0,
								"slot": "0",
								"type": "t_uint256"
							},
							{
								"astId": 20,
								"contract": "contracts/contract3/bank.sol:Bank",
								"label": "transactionLog",
								"offset": 0,
								"slot": "1",
								"type": "t_array(t_struct(TransactionInfo)14_storage)dyn_storage"
							}
						],
						"numberOfBytes": "64"
					},
					"t_uint256": {
						"encoding": "inplace",
						"label": "uint256",
						"numberOfBytes": "32"
					}
				}
			},
			"userdoc": {
				"kind": "user",
				"methods": {},
				"version": 1
			}
		}
	}
}