{
	"contracts/contract2/comments.sol": {
		"Comment": {
			"abi": [
				{
					"inputs": [
						{
							"internalType": "uint256",
							"name": "",
							"type": "uint256"
						}
					],
					"name": "comments",
					"outputs": [
						{
							"internalType": "address",
							"name": "addr",
							"type": "address"
						},
						{
							"internalType": "string",
							"name": "comment",
							"type": "string"
						},
						{
							"internalType": "uint256",
							"name": "timestamp",
							"type": "uint256"
						}
					],
					"stateMutability": "view",
					"type": "function"
				},
				{
					"inputs": [],
					"name": "getComments",
					"outputs": [
						{
							"components": [
								{
									"internalType": "address",
									"name": "addr",
									"type": "address"
								},
								{
									"internalType": "string",
									"name": "comment",
									"type": "string"
								},
								{
									"internalType": "uint256",
									"name": "timestamp",
									"type": "uint256"
								}
							],
							"internalType": "struct Comment.User[]",
							"name": "",
							"type": "tuple[]"
						}
					],
					"stateMutability": "view",
					"type": "function"
				},
				{
					"inputs": [
						{
							"internalType": "string",
							"name": "content",
							"type": "string"
						}
					],
					"name": "sendComment",
					"outputs": [],
					"stateMutability": "nonpayable",
					"type": "function"
				}
			],
			"devdoc": {
				"kind": "dev",
				"methods": {},
				"version": 1
			},
			"evm": {
				"assembly": "    /* \"contracts/contract2/comments.sol\":61:574  contract Comment {... */\n  mstore(0x40, 0x80)\n  callvalue\n  dup1\n  iszero\n  tag_1\n  jumpi\n  0x00\n  dup1\n  revert\ntag_1:\n  pop\n  dataSize(sub_0)\n  dup1\n  dataOffset(sub_0)\n  0x00\n  codecopy\n  0x00\n  return\nstop\n\nsub_0: assembly {\n        /* \"contracts/contract2/comments.sol\":61:574  contract Comment {... */\n      mstore(0x40, 0x80)\n      callvalue\n      dup1\n      iszero\n      tag_1\n      jumpi\n      0x00\n      dup1\n      revert\n    tag_1:\n      pop\n      jumpi(tag_2, lt(calldatasize, 0x04))\n      shr(0xe0, calldataload(0x00))\n      dup1\n      0x8ebb4c15\n      eq\n      tag_3\n      jumpi\n      dup1\n      0x91f3410c\n      eq\n      tag_4\n      jumpi\n      dup1\n      0xb741aa51\n      eq\n      tag_5\n      jumpi\n    tag_2:\n      0x00\n      dup1\n      revert\n        /* \"contracts/contract2/comments.sol\":206:228  User[] public comments */\n    tag_3:\n      tag_6\n      0x04\n      dup1\n      calldatasize\n      sub\n      dup2\n      add\n      swap1\n      tag_7\n      swap2\n      swap1\n      tag_8\n      jump\t// in\n    tag_7:\n      tag_9\n      jump\t// in\n    tag_6:\n      mload(0x40)\n      tag_10\n      swap4\n      swap3\n      swap2\n      swap1\n      tag_11\n      jump\t// in\n    tag_10:\n      mload(0x40)\n      dup1\n      swap2\n      sub\n      swap1\n      return\n        /* \"contracts/contract2/comments.sol\":481:572  function getComments() public view returns (User[] memory) {... */\n    tag_4:\n      tag_12\n      tag_13\n      jump\t// in\n    tag_12:\n      mload(0x40)\n      tag_14\n      swap2\n      swap1\n      tag_15\n      jump\t// in\n    tag_14:\n      mload(0x40)\n      dup1\n      swap2\n      sub\n      swap1\n      return\n        /* \"contracts/contract2/comments.sol\":235:475  function sendComment(string calldata content) public {... */\n    tag_5:\n      tag_16\n      0x04\n      dup1\n      calldatasize\n      sub\n      dup2\n      add\n      swap1\n      tag_17\n      swap2\n      swap1\n      tag_18\n      jump\t// in\n    tag_17:\n      tag_19\n      jump\t// in\n    tag_16:\n      stop\n        /* \"contracts/contract2/comments.sol\":206:228  User[] public comments */\n    tag_9:\n      0x00\n      dup2\n      dup2\n      sload\n      dup2\n      lt\n      tag_20\n      jumpi\n      0x00\n      dup1\n      revert\n    tag_20:\n      swap1\n      0x00\n      mstore\n      keccak256(0x00, 0x20)\n      swap1\n      0x03\n      mul\n      add\n      0x00\n      swap2\n      pop\n      swap1\n      pop\n      dup1\n      0x00\n      add\n      0x00\n      swap1\n      sload\n      swap1\n      0x0100\n      exp\n      swap1\n      div\n      0xffffffffffffffffffffffffffffffffffffffff\n      and\n      swap1\n      dup1\n      0x01\n      add\n      dup1\n      sload\n      tag_22\n      swap1\n      tag_23\n      jump\t// in\n    tag_22:\n      dup1\n      0x1f\n      add\n      0x20\n      dup1\n      swap2\n      div\n      mul\n      0x20\n      add\n      mload(0x40)\n      swap1\n      dup2\n      add\n      0x40\n      mstore\n      dup1\n      swap3\n      swap2\n      swap1\n      dup2\n      dup2\n      mstore\n      0x20\n      add\n      dup3\n      dup1\n      sload\n      tag_24\n      swap1\n      tag_23\n      jump\t// in\n    tag_24:\n      dup1\n      iszero\n      tag_25\n      jumpi\n      dup1\n      0x1f\n      lt\n      tag_26\n      jumpi\n      0x0100\n      dup1\n      dup4\n      sload\n      div\n      mul\n      dup4\n      mstore\n      swap2\n      0x20\n      add\n      swap2\n      jump(tag_25)\n    tag_26:\n      dup3\n      add\n      swap2\n      swap1\n      0x00\n      mstore\n      keccak256(0x00, 0x20)\n      swap1\n    tag_27:\n      dup2\n      sload\n      dup2\n      mstore\n      swap1\n      0x01\n      add\n      swap1\n      0x20\n      add\n      dup1\n      dup4\n      gt\n      tag_27\n      jumpi\n      dup3\n      swap1\n      sub\n      0x1f\n      and\n      dup3\n      add\n      swap2\n    tag_25:\n      pop\n      pop\n      pop\n      pop\n      pop\n      swap1\n      dup1\n      0x02\n      add\n      sload\n      swap1\n      pop\n      dup4\n      jump\t// out\n        /* \"contracts/contract2/comments.sol\":481:572  function getComments() public view returns (User[] memory) {... */\n    tag_13:\n        /* \"contracts/contract2/comments.sol\":525:538  User[] memory */\n      0x60\n        /* \"contracts/contract2/comments.sol\":557:565  comments */\n      0x00\n        /* \"contracts/contract2/comments.sol\":550:565  return comments */\n      dup1\n      sload\n      dup1\n      0x20\n      mul\n      0x20\n      add\n      mload(0x40)\n      swap1\n      dup2\n      add\n      0x40\n      mstore\n      dup1\n      swap3\n      swap2\n      swap1\n      dup2\n      dup2\n      mstore\n      0x20\n      add\n      0x00\n      swap1\n    tag_29:\n      dup3\n      dup3\n      lt\n      iszero\n      tag_30\n      jumpi\n      dup4\n      dup3\n      swap1\n      0x00\n      mstore\n      keccak256(0x00, 0x20)\n      swap1\n      0x03\n      mul\n      add\n      mload(0x40)\n      dup1\n      0x60\n      add\n      0x40\n      mstore\n      swap1\n      dup2\n      0x00\n      dup3\n      add\n      0x00\n      swap1\n      sload\n      swap1\n      0x0100\n      exp\n      swap1\n      div\n      0xffffffffffffffffffffffffffffffffffffffff\n      and\n      0xffffffffffffffffffffffffffffffffffffffff\n      and\n      0xffffffffffffffffffffffffffffffffffffffff\n      and\n      dup2\n      mstore\n      0x20\n      add\n      0x01\n      dup3\n      add\n      dup1\n      sload\n      tag_32\n      swap1\n      tag_23\n      jump\t// in\n    tag_32:\n      dup1\n      0x1f\n      add\n      0x20\n      dup1\n      swap2\n      div\n      mul\n      0x20\n      add\n      mload(0x40)\n      swap1\n      dup2\n      add\n      0x40\n      mstore\n      dup1\n      swap3\n      swap2\n      swap1\n      dup2\n      dup2\n      mstore\n      0x20\n      add\n      dup3\n      dup1\n      sload\n      tag_33\n      swap1\n      tag_23\n      jump\t// in\n    tag_33:\n      dup1\n      iszero\n      tag_34\n      jumpi\n      dup1\n      0x1f\n      lt\n      tag_35\n      jumpi\n      0x0100\n      dup1\n      dup4\n      sload\n      div\n      mul\n      dup4\n      mstore\n      swap2\n      0x20\n      add\n      swap2\n      jump(tag_34)\n    tag_35:\n      dup3\n      add\n      swap2\n      swap1\n      0x00\n      mstore\n      keccak256(0x00, 0x20)\n      swap1\n    tag_36:\n      dup2\n      sload\n      dup2\n      mstore\n      swap1\n      0x01\n      add\n      swap1\n      0x20\n      add\n      dup1\n      dup4\n      gt\n      tag_36\n      jumpi\n      dup3\n      swap1\n      sub\n      0x1f\n      and\n      dup3\n      add\n      swap2\n    tag_34:\n      pop\n      pop\n      pop\n      pop\n      pop\n      dup2\n      mstore\n      0x20\n      add\n      0x02\n      dup3\n      add\n      sload\n      dup2\n      mstore\n      pop\n      pop\n      dup2\n      mstore\n      0x20\n      add\n      swap1\n      0x01\n      add\n      swap1\n      jump(tag_29)\n    tag_30:\n      pop\n      pop\n      pop\n      pop\n      swap1\n      pop\n        /* \"contracts/contract2/comments.sol\":481:572  function getComments() public view returns (User[] memory) {... */\n      swap1\n      jump\t// out\n        /* \"contracts/contract2/comments.sol\":235:475  function sendComment(string calldata content) public {... */\n    tag_19:\n        /* \"contracts/contract2/comments.sol\":298:317  User memory current */\n      0x00\n        /* \"contracts/contract2/comments.sol\":320:436  User({... */\n      mload(0x40)\n      dup1\n      0x60\n      add\n      0x40\n      mstore\n      dup1\n        /* \"contracts/contract2/comments.sol\":345:355  msg.sender */\n      caller\n        /* \"contracts/contract2/comments.sol\":320:436  User({... */\n      0xffffffffffffffffffffffffffffffffffffffff\n      and\n      dup2\n      mstore\n      0x20\n      add\n        /* \"contracts/contract2/comments.sol\":378:385  content */\n      dup5\n      dup5\n        /* \"contracts/contract2/comments.sol\":320:436  User({... */\n      dup1\n      dup1\n      0x1f\n      add\n      0x20\n      dup1\n      swap2\n      div\n      mul\n      0x20\n      add\n      mload(0x40)\n      swap1\n      dup2\n      add\n      0x40\n      mstore\n      dup1\n      swap4\n      swap3\n      swap2\n      swap1\n      dup2\n      dup2\n      mstore\n      0x20\n      add\n      dup4\n      dup4\n      dup1\n      dup3\n      dup5\n      calldatacopy\n      0x00\n      dup2\n      dup5\n      add\n      mstore\n      not(0x1f)\n      0x1f\n      dup3\n      add\n      and\n      swap1\n      pop\n      dup1\n      dup4\n      add\n      swap3\n      pop\n      pop\n      pop\n      pop\n      pop\n      pop\n      pop\n      dup2\n      mstore\n      0x20\n      add\n        /* \"contracts/contract2/comments.sol\":410:425  block.timestamp */\n      timestamp\n        /* \"contracts/contract2/comments.sol\":320:436  User({... */\n      dup2\n      mstore\n      pop\n        /* \"contracts/contract2/comments.sol\":298:436  User memory current = User({... */\n      swap1\n      pop\n        /* \"contracts/contract2/comments.sol\":446:454  comments */\n      0x00\n        /* \"contracts/contract2/comments.sol\":460:467  current */\n      dup2\n        /* \"contracts/contract2/comments.sol\":446:468  comments.push(current) */\n      swap1\n      dup1\n      0x01\n      dup2\n      sload\n      add\n      dup1\n      dup3\n      sstore\n      dup1\n      swap2\n      pop\n      pop\n      0x01\n      swap1\n      sub\n      swap1\n      0x00\n      mstore\n      keccak256(0x00, 0x20)\n      swap1\n      0x03\n      mul\n      add\n      0x00\n      swap1\n      swap2\n      swap1\n      swap2\n      swap1\n      swap2\n      pop\n      0x00\n      dup3\n      add\n      mload\n      dup2\n      0x00\n      add\n      exp(0x0100, 0x00)\n      dup2\n      sload\n      dup2\n      0xffffffffffffffffffffffffffffffffffffffff\n      mul\n      not\n      and\n      swap1\n      dup4\n      0xffffffffffffffffffffffffffffffffffffffff\n      and\n      mul\n      or\n      swap1\n      sstore\n      pop\n      0x20\n      dup3\n      add\n      mload\n      dup2\n      0x01\n      add\n      swap1\n      dup2\n      tag_39\n      swap2\n      swap1\n      tag_40\n      jump\t// in\n    tag_39:\n      pop\n      0x40\n      dup3\n      add\n      mload\n      dup2\n      0x02\n      add\n      sstore\n      pop\n      pop\n        /* \"contracts/contract2/comments.sol\":288:475  {... */\n      pop\n        /* \"contracts/contract2/comments.sol\":235:475  function sendComment(string calldata content) public {... */\n      pop\n      pop\n      jump\t// out\n        /* \"#utility.yul\":88:205   */\n    tag_42:\n        /* \"#utility.yul\":197:198   */\n      0x00\n        /* \"#utility.yul\":194:195   */\n      dup1\n        /* \"#utility.yul\":187:199   */\n      revert\n        /* \"#utility.yul\":211:328   */\n    tag_43:\n        /* \"#utility.yul\":320:321   */\n      0x00\n        /* \"#utility.yul\":317:318   */\n      dup1\n        /* \"#utility.yul\":310:322   */\n      revert\n        /* \"#utility.yul\":334:411   */\n    tag_44:\n        /* \"#utility.yul\":371:378   */\n      0x00\n        /* \"#utility.yul\":400:405   */\n      dup2\n        /* \"#utility.yul\":389:405   */\n      swap1\n      pop\n        /* \"#utility.yul\":334:411   */\n      swap2\n      swap1\n      pop\n      jump\t// out\n        /* \"#utility.yul\":417:539   */\n    tag_45:\n        /* \"#utility.yul\":490:514   */\n      tag_94\n        /* \"#utility.yul\":508:513   */\n      dup2\n        /* \"#utility.yul\":490:514   */\n      tag_44\n      jump\t// in\n    tag_94:\n        /* \"#utility.yul\":483:488   */\n      dup2\n        /* \"#utility.yul\":480:515   */\n      eq\n        /* \"#utility.yul\":470:533   */\n      tag_95\n      jumpi\n        /* \"#utility.yul\":529:530   */\n      0x00\n        /* \"#utility.yul\":526:527   */\n      dup1\n        /* \"#utility.yul\":519:531   */\n      revert\n        /* \"#utility.yul\":470:533   */\n    tag_95:\n        /* \"#utility.yul\":417:539   */\n      pop\n      jump\t// out\n        /* \"#utility.yul\":545:684   */\n    tag_46:\n        /* \"#utility.yul\":591:596   */\n      0x00\n        /* \"#utility.yul\":629:635   */\n      dup2\n        /* \"#utility.yul\":616:636   */\n      calldataload\n        /* \"#utility.yul\":607:636   */\n      swap1\n      pop\n        /* \"#utility.yul\":645:678   */\n      tag_97\n        /* \"#utility.yul\":672:677   */\n      dup2\n        /* \"#utility.yul\":645:678   */\n      tag_45\n      jump\t// in\n    tag_97:\n        /* \"#utility.yul\":545:684   */\n      swap3\n      swap2\n      pop\n      pop\n      jump\t// out\n        /* \"#utility.yul\":690:1019   */\n    tag_8:\n        /* \"#utility.yul\":749:755   */\n      0x00\n        /* \"#utility.yul\":798:800   */\n      0x20\n        /* \"#utility.yul\":786:795   */\n      dup3\n        /* \"#utility.yul\":777:784   */\n      dup5\n        /* \"#utility.yul\":773:796   */\n      sub\n        /* \"#utility.yul\":769:801   */\n      slt\n        /* \"#utility.yul\":766:885   */\n      iszero\n      tag_99\n      jumpi\n        /* \"#utility.yul\":804:883   */\n      tag_100\n      tag_42\n      jump\t// in\n    tag_100:\n        /* \"#utility.yul\":766:885   */\n    tag_99:\n        /* \"#utility.yul\":924:925   */\n      0x00\n        /* \"#utility.yul\":949:1002   */\n      tag_101\n        /* \"#utility.yul\":994:1001   */\n      dup5\n        /* \"#utility.yul\":985:991   */\n      dup3\n        /* \"#utility.yul\":974:983   */\n      dup6\n        /* \"#utility.yul\":970:992   */\n      add\n        /* \"#utility.yul\":949:1002   */\n      tag_46\n      jump\t// in\n    tag_101:\n        /* \"#utility.yul\":939:1002   */\n      swap2\n      pop\n        /* \"#utility.yul\":895:1012   */\n      pop\n        /* \"#utility.yul\":690:1019   */\n      swap3\n      swap2\n      pop\n      pop\n      jump\t// out\n        /* \"#utility.yul\":1025:1151   */\n    tag_47:\n        /* \"#utility.yul\":1062:1069   */\n      0x00\n        /* \"#utility.yul\":1102:1144   */\n      0xffffffffffffffffffffffffffffffffffffffff\n        /* \"#utility.yul\":1095:1100   */\n      dup3\n        /* \"#utility.yul\":1091:1145   */\n      and\n        /* \"#utility.yul\":1080:1145   */\n      swap1\n      pop\n        /* \"#utility.yul\":1025:1151   */\n      swap2\n      swap1\n      pop\n      jump\t// out\n        /* \"#utility.yul\":1157:1253   */\n    tag_48:\n        /* \"#utility.yul\":1194:1201   */\n      0x00\n        /* \"#utility.yul\":1223:1247   */\n      tag_104\n        /* \"#utility.yul\":1241:1246   */\n      dup3\n        /* \"#utility.yul\":1223:1247   */\n      tag_47\n      jump\t// in\n    tag_104:\n        /* \"#utility.yul\":1212:1247   */\n      swap1\n      pop\n        /* \"#utility.yul\":1157:1253   */\n      swap2\n      swap1\n      pop\n      jump\t// out\n        /* \"#utility.yul\":1259:1377   */\n    tag_49:\n        /* \"#utility.yul\":1346:1370   */\n      tag_106\n        /* \"#utility.yul\":1364:1369   */\n      dup2\n        /* \"#utility.yul\":1346:1370   */\n      tag_48\n      jump\t// in\n    tag_106:\n        /* \"#utility.yul\":1341:1344   */\n      dup3\n        /* \"#utility.yul\":1334:1371   */\n      mstore\n        /* \"#utility.yul\":1259:1377   */\n      pop\n      pop\n      jump\t// out\n        /* \"#utility.yul\":1383:1482   */\n    tag_50:\n        /* \"#utility.yul\":1435:1441   */\n      0x00\n        /* \"#utility.yul\":1469:1474   */\n      dup2\n        /* \"#utility.yul\":1463:1475   */\n      mload\n        /* \"#utility.yul\":1453:1475   */\n      swap1\n      pop\n        /* \"#utility.yul\":1383:1482   */\n      swap2\n      swap1\n      pop\n      jump\t// out\n        /* \"#utility.yul\":1488:1657   */\n    tag_51:\n        /* \"#utility.yul\":1572:1583   */\n      0x00\n        /* \"#utility.yul\":1606:1612   */\n      dup3\n        /* \"#utility.yul\":1601:1604   */\n      dup3\n        /* \"#utility.yul\":1594:1613   */\n      mstore\n        /* \"#utility.yul\":1646:1650   */\n      0x20\n        /* \"#utility.yul\":1641:1644   */\n      dup3\n        /* \"#utility.yul\":1637:1651   */\n      add\n        /* \"#utility.yul\":1622:1651   */\n      swap1\n      pop\n        /* \"#utility.yul\":1488:1657   */\n      swap3\n      swap2\n      pop\n      pop\n      jump\t// out\n        /* \"#utility.yul\":1663:1909   */\n    tag_52:\n        /* \"#utility.yul\":1744:1745   */\n      0x00\n        /* \"#utility.yul\":1754:1867   */\n    tag_110:\n        /* \"#utility.yul\":1768:1774   */\n      dup4\n        /* \"#utility.yul\":1765:1766   */\n      dup2\n        /* \"#utility.yul\":1762:1775   */\n      lt\n        /* \"#utility.yul\":1754:1867   */\n      iszero\n      tag_112\n      jumpi\n        /* \"#utility.yul\":1853:1854   */\n      dup1\n        /* \"#utility.yul\":1848:1851   */\n      dup3\n        /* \"#utility.yul\":1844:1855   */\n      add\n        /* \"#utility.yul\":1838:1856   */\n      mload\n        /* \"#utility.yul\":1834:1835   */\n      dup2\n        /* \"#utility.yul\":1829:1832   */\n      dup5\n        /* \"#utility.yul\":1825:1836   */\n      add\n        /* \"#utility.yul\":1818:1857   */\n      mstore\n        /* \"#utility.yul\":1790:1792   */\n      0x20\n        /* \"#utility.yul\":1787:1788   */\n      dup2\n        /* \"#utility.yul\":1783:1793   */\n      add\n        /* \"#utility.yul\":1778:1793   */\n      swap1\n      pop\n        /* \"#utility.yul\":1754:1867   */\n      jump(tag_110)\n    tag_112:\n        /* \"#utility.yul\":1901:1902   */\n      0x00\n        /* \"#utility.yul\":1892:1898   */\n      dup5\n        /* \"#utility.yul\":1887:1890   */\n      dup5\n        /* \"#utility.yul\":1883:1899   */\n      add\n        /* \"#utility.yul\":1876:1903   */\n      mstore\n        /* \"#utility.yul\":1725:1909   */\n      pop\n        /* \"#utility.yul\":1663:1909   */\n      pop\n      pop\n      pop\n      jump\t// out\n        /* \"#utility.yul\":1915:2017   */\n    tag_53:\n        /* \"#utility.yul\":1956:1962   */\n      0x00\n        /* \"#utility.yul\":2007:2009   */\n      0x1f\n        /* \"#utility.yul\":2003:2010   */\n      not\n        /* \"#utility.yul\":1998:2000   */\n      0x1f\n        /* \"#utility.yul\":1991:1996   */\n      dup4\n        /* \"#utility.yul\":1987:2001   */\n      add\n        /* \"#utility.yul\":1983:2011   */\n      and\n        /* \"#utility.yul\":1973:2011   */\n      swap1\n      pop\n        /* \"#utility.yul\":1915:2017   */\n      swap2\n      swap1\n      pop\n      jump\t// out\n        /* \"#utility.yul\":2023:2400   */\n    tag_54:\n        /* \"#utility.yul\":2111:2114   */\n      0x00\n        /* \"#utility.yul\":2139:2178   */\n      tag_115\n        /* \"#utility.yul\":2172:2177   */\n      dup3\n        /* \"#utility.yul\":2139:2178   */\n      tag_50\n      jump\t// in\n    tag_115:\n        /* \"#utility.yul\":2194:2265   */\n      tag_116\n        /* \"#utility.yul\":2258:2264   */\n      dup2\n        /* \"#utility.yul\":2253:2256   */\n      dup6\n        /* \"#utility.yul\":2194:2265   */\n      tag_51\n      jump\t// in\n    tag_116:\n        /* \"#utility.yul\":2187:2265   */\n      swap4\n      pop\n        /* \"#utility.yul\":2274:2339   */\n      tag_117\n        /* \"#utility.yul\":2332:2338   */\n      dup2\n        /* \"#utility.yul\":2327:2330   */\n      dup6\n        /* \"#utility.yul\":2320:2324   */\n      0x20\n        /* \"#utility.yul\":2313:2318   */\n      dup7\n        /* \"#utility.yul\":2309:2325   */\n      add\n        /* \"#utility.yul\":2274:2339   */\n      tag_52\n      jump\t// in\n    tag_117:\n        /* \"#utility.yul\":2364:2393   */\n      tag_118\n        /* \"#utility.yul\":2386:2392   */\n      dup2\n        /* \"#utility.yul\":2364:2393   */\n      tag_53\n      jump\t// in\n    tag_118:\n        /* \"#utility.yul\":2359:2362   */\n      dup5\n        /* \"#utility.yul\":2355:2394   */\n      add\n        /* \"#utility.yul\":2348:2394   */\n      swap2\n      pop\n        /* \"#utility.yul\":2115:2400   */\n      pop\n        /* \"#utility.yul\":2023:2400   */\n      swap3\n      swap2\n      pop\n      pop\n      jump\t// out\n        /* \"#utility.yul\":2406:2524   */\n    tag_55:\n        /* \"#utility.yul\":2493:2517   */\n      tag_120\n        /* \"#utility.yul\":2511:2516   */\n      dup2\n        /* \"#utility.yul\":2493:2517   */\n      tag_44\n      jump\t// in\n    tag_120:\n        /* \"#utility.yul\":2488:2491   */\n      dup3\n        /* \"#utility.yul\":2481:2518   */\n      mstore\n        /* \"#utility.yul\":2406:2524   */\n      pop\n      pop\n      jump\t// out\n        /* \"#utility.yul\":2530:3063   */\n    tag_11:\n        /* \"#utility.yul\":2699:2703   */\n      0x00\n        /* \"#utility.yul\":2737:2739   */\n      0x60\n        /* \"#utility.yul\":2726:2735   */\n      dup3\n        /* \"#utility.yul\":2722:2740   */\n      add\n        /* \"#utility.yul\":2714:2740   */\n      swap1\n      pop\n        /* \"#utility.yul\":2750:2821   */\n      tag_122\n        /* \"#utility.yul\":2818:2819   */\n      0x00\n        /* \"#utility.yul\":2807:2816   */\n      dup4\n        /* \"#utility.yul\":2803:2820   */\n      add\n        /* \"#utility.yul\":2794:2800   */\n      dup7\n        /* \"#utility.yul\":2750:2821   */\n      tag_49\n      jump\t// in\n    tag_122:\n        /* \"#utility.yul\":2868:2877   */\n      dup2\n        /* \"#utility.yul\":2862:2866   */\n      dup2\n        /* \"#utility.yul\":2858:2878   */\n      sub\n        /* \"#utility.yul\":2853:2855   */\n      0x20\n        /* \"#utility.yul\":2842:2851   */\n      dup4\n        /* \"#utility.yul\":2838:2856   */\n      add\n        /* \"#utility.yul\":2831:2879   */\n      mstore\n        /* \"#utility.yul\":2896:2974   */\n      tag_123\n        /* \"#utility.yul\":2969:2973   */\n      dup2\n        /* \"#utility.yul\":2960:2966   */\n      dup6\n        /* \"#utility.yul\":2896:2974   */\n      tag_54\n      jump\t// in\n    tag_123:\n        /* \"#utility.yul\":2888:2974   */\n      swap1\n      pop\n        /* \"#utility.yul\":2984:3056   */\n      tag_124\n        /* \"#utility.yul\":3052:3054   */\n      0x40\n        /* \"#utility.yul\":3041:3050   */\n      dup4\n        /* \"#utility.yul\":3037:3055   */\n      add\n        /* \"#utility.yul\":3028:3034   */\n      dup5\n        /* \"#utility.yul\":2984:3056   */\n      tag_55\n      jump\t// in\n    tag_124:\n        /* \"#utility.yul\":2530:3063   */\n      swap5\n      swap4\n      pop\n      pop\n      pop\n      pop\n      jump\t// out\n        /* \"#utility.yul\":3069:3202   */\n    tag_56:\n        /* \"#utility.yul\":3155:3161   */\n      0x00\n        /* \"#utility.yul\":3189:3194   */\n      dup2\n        /* \"#utility.yul\":3183:3195   */\n      mload\n        /* \"#utility.yul\":3173:3195   */\n      swap1\n      pop\n        /* \"#utility.yul\":3069:3202   */\n      swap2\n      swap1\n      pop\n      jump\t// out\n        /* \"#utility.yul\":3208:3411   */\n    tag_57:\n        /* \"#utility.yul\":3326:3337   */\n      0x00\n        /* \"#utility.yul\":3360:3366   */\n      dup3\n        /* \"#utility.yul\":3355:3358   */\n      dup3\n        /* \"#utility.yul\":3348:3367   */\n      mstore\n        /* \"#utility.yul\":3400:3404   */\n      0x20\n        /* \"#utility.yul\":3395:3398   */\n      dup3\n        /* \"#utility.yul\":3391:3405   */\n      add\n        /* \"#utility.yul\":3376:3405   */\n      swap1\n      pop\n        /* \"#utility.yul\":3208:3411   */\n      swap3\n      swap2\n      pop\n      pop\n      jump\t// out\n        /* \"#utility.yul\":3417:3568   */\n    tag_58:\n        /* \"#utility.yul\":3503:3507   */\n      0x00\n        /* \"#utility.yul\":3526:3529   */\n      dup2\n        /* \"#utility.yul\":3518:3529   */\n      swap1\n      pop\n        /* \"#utility.yul\":3556:3560   */\n      0x20\n        /* \"#utility.yul\":3551:3554   */\n      dup3\n        /* \"#utility.yul\":3547:3561   */\n      add\n        /* \"#utility.yul\":3539:3561   */\n      swap1\n      pop\n        /* \"#utility.yul\":3417:3568   */\n      swap2\n      swap1\n      pop\n      jump\t// out\n        /* \"#utility.yul\":3574:3682   */\n    tag_59:\n        /* \"#utility.yul\":3651:3675   */\n      tag_129\n        /* \"#utility.yul\":3669:3674   */\n      dup2\n        /* \"#utility.yul\":3651:3675   */\n      tag_48\n      jump\t// in\n    tag_129:\n        /* \"#utility.yul\":3646:3649   */\n      dup3\n        /* \"#utility.yul\":3639:3676   */\n      mstore\n        /* \"#utility.yul\":3574:3682   */\n      pop\n      pop\n      jump\t// out\n        /* \"#utility.yul\":3688:3847   */\n    tag_60:\n        /* \"#utility.yul\":3762:3773   */\n      0x00\n        /* \"#utility.yul\":3796:3802   */\n      dup3\n        /* \"#utility.yul\":3791:3794   */\n      dup3\n        /* \"#utility.yul\":3784:3803   */\n      mstore\n        /* \"#utility.yul\":3836:3840   */\n      0x20\n        /* \"#utility.yul\":3831:3834   */\n      dup3\n        /* \"#utility.yul\":3827:3841   */\n      add\n        /* \"#utility.yul\":3812:3841   */\n      swap1\n      pop\n        /* \"#utility.yul\":3688:3847   */\n      swap3\n      swap2\n      pop\n      pop\n      jump\t// out\n        /* \"#utility.yul\":3853:4210   */\n    tag_61:\n        /* \"#utility.yul\":3931:3934   */\n      0x00\n        /* \"#utility.yul\":3959:3998   */\n      tag_132\n        /* \"#utility.yul\":3992:3997   */\n      dup3\n        /* \"#utility.yul\":3959:3998   */\n      tag_50\n      jump\t// in\n    tag_132:\n        /* \"#utility.yul\":4014:4075   */\n      tag_133\n        /* \"#utility.yul\":4068:4074   */\n      dup2\n        /* \"#utility.yul\":4063:4066   */\n      dup6\n        /* \"#utility.yul\":4014:4075   */\n      tag_60\n      jump\t// in\n    tag_133:\n        /* \"#utility.yul\":4007:4075   */\n      swap4\n      pop\n        /* \"#utility.yul\":4084:4149   */\n      tag_134\n        /* \"#utility.yul\":4142:4148   */\n      dup2\n        /* \"#utility.yul\":4137:4140   */\n      dup6\n        /* \"#utility.yul\":4130:4134   */\n      0x20\n        /* \"#utility.yul\":4123:4128   */\n      dup7\n        /* \"#utility.yul\":4119:4135   */\n      add\n        /* \"#utility.yul\":4084:4149   */\n      tag_52\n      jump\t// in\n    tag_134:\n        /* \"#utility.yul\":4174:4203   */\n      tag_135\n        /* \"#utility.yul\":4196:4202   */\n      dup2\n        /* \"#utility.yul\":4174:4203   */\n      tag_53\n      jump\t// in\n    tag_135:\n        /* \"#utility.yul\":4169:4172   */\n      dup5\n        /* \"#utility.yul\":4165:4204   */\n      add\n        /* \"#utility.yul\":4158:4204   */\n      swap2\n      pop\n        /* \"#utility.yul\":3935:4210   */\n      pop\n        /* \"#utility.yul\":3853:4210   */\n      swap3\n      swap2\n      pop\n      pop\n      jump\t// out\n        /* \"#utility.yul\":4216:4324   */\n    tag_62:\n        /* \"#utility.yul\":4293:4317   */\n      tag_137\n        /* \"#utility.yul\":4311:4316   */\n      dup2\n        /* \"#utility.yul\":4293:4317   */\n      tag_44\n      jump\t// in\n    tag_137:\n        /* \"#utility.yul\":4288:4291   */\n      dup3\n        /* \"#utility.yul\":4281:4318   */\n      mstore\n        /* \"#utility.yul\":4216:4324   */\n      pop\n      pop\n      jump\t// out\n        /* \"#utility.yul\":4380:5146   */\n    tag_63:\n        /* \"#utility.yul\":4477:4480   */\n      0x00\n        /* \"#utility.yul\":4513:4517   */\n      0x60\n        /* \"#utility.yul\":4508:4511   */\n      dup4\n        /* \"#utility.yul\":4504:4518   */\n      add\n        /* \"#utility.yul\":4600:4604   */\n      0x00\n        /* \"#utility.yul\":4593:4598   */\n      dup4\n        /* \"#utility.yul\":4589:4605   */\n      add\n        /* \"#utility.yul\":4583:4606   */\n      mload\n        /* \"#utility.yul\":4619:4682   */\n      tag_139\n        /* \"#utility.yul\":4676:4680   */\n      0x00\n        /* \"#utility.yul\":4671:4674   */\n      dup7\n        /* \"#utility.yul\":4667:4681   */\n      add\n        /* \"#utility.yul\":4653:4665   */\n      dup3\n        /* \"#utility.yul\":4619:4682   */\n      tag_59\n      jump\t// in\n    tag_139:\n        /* \"#utility.yul\":4528:4692   */\n      pop\n        /* \"#utility.yul\":4777:4781   */\n      0x20\n        /* \"#utility.yul\":4770:4775   */\n      dup4\n        /* \"#utility.yul\":4766:4782   */\n      add\n        /* \"#utility.yul\":4760:4783   */\n      mload\n        /* \"#utility.yul\":4830:4833   */\n      dup5\n        /* \"#utility.yul\":4824:4828   */\n      dup3\n        /* \"#utility.yul\":4820:4834   */\n      sub\n        /* \"#utility.yul\":4813:4817   */\n      0x20\n        /* \"#utility.yul\":4808:4811   */\n      dup7\n        /* \"#utility.yul\":4804:4818   */\n      add\n        /* \"#utility.yul\":4797:4835   */\n      mstore\n        /* \"#utility.yul\":4856:4929   */\n      tag_140\n        /* \"#utility.yul\":4924:4928   */\n      dup3\n        /* \"#utility.yul\":4910:4922   */\n      dup3\n        /* \"#utility.yul\":4856:4929   */\n      tag_61\n      jump\t// in\n    tag_140:\n        /* \"#utility.yul\":4848:4929   */\n      swap2\n      pop\n        /* \"#utility.yul\":4702:4940   */\n      pop\n        /* \"#utility.yul\":5027:5031   */\n      0x40\n        /* \"#utility.yul\":5020:5025   */\n      dup4\n        /* \"#utility.yul\":5016:5032   */\n      add\n        /* \"#utility.yul\":5010:5033   */\n      mload\n        /* \"#utility.yul\":5046:5109   */\n      tag_141\n        /* \"#utility.yul\":5103:5107   */\n      0x40\n        /* \"#utility.yul\":5098:5101   */\n      dup7\n        /* \"#utility.yul\":5094:5108   */\n      add\n        /* \"#utility.yul\":5080:5092   */\n      dup3\n        /* \"#utility.yul\":5046:5109   */\n      tag_62\n      jump\t// in\n    tag_141:\n        /* \"#utility.yul\":4950:5119   */\n      pop\n        /* \"#utility.yul\":5136:5140   */\n      dup1\n        /* \"#utility.yul\":5129:5140   */\n      swap2\n      pop\n        /* \"#utility.yul\":4482:5146   */\n      pop\n        /* \"#utility.yul\":4380:5146   */\n      swap3\n      swap2\n      pop\n      pop\n      jump\t// out\n        /* \"#utility.yul\":5152:5384   */\n    tag_64:\n        /* \"#utility.yul\":5259:5269   */\n      0x00\n        /* \"#utility.yul\":5294:5378   */\n      tag_143\n        /* \"#utility.yul\":5374:5377   */\n      dup4\n        /* \"#utility.yul\":5366:5372   */\n      dup4\n        /* \"#utility.yul\":5294:5378   */\n      tag_63\n      jump\t// in\n    tag_143:\n        /* \"#utility.yul\":5280:5378   */\n      swap1\n      pop\n        /* \"#utility.yul\":5152:5384   */\n      swap3\n      swap2\n      pop\n      pop\n      jump\t// out\n        /* \"#utility.yul\":5390:5522   */\n    tag_65:\n        /* \"#utility.yul\":5479:5483   */\n      0x00\n        /* \"#utility.yul\":5511:5515   */\n      0x20\n        /* \"#utility.yul\":5506:5509   */\n      dup3\n        /* \"#utility.yul\":5502:5516   */\n      add\n        /* \"#utility.yul\":5494:5516   */\n      swap1\n      pop\n        /* \"#utility.yul\":5390:5522   */\n      swap2\n      swap1\n      pop\n      jump\t// out\n        /* \"#utility.yul\":5582:6645   */\n    tag_66:\n        /* \"#utility.yul\":5739:5742   */\n      0x00\n        /* \"#utility.yul\":5768:5841   */\n      tag_146\n        /* \"#utility.yul\":5835:5840   */\n      dup3\n        /* \"#utility.yul\":5768:5841   */\n      tag_56\n      jump\t// in\n    tag_146:\n        /* \"#utility.yul\":5857:5962   */\n      tag_147\n        /* \"#utility.yul\":5955:5961   */\n      dup2\n        /* \"#utility.yul\":5950:5953   */\n      dup6\n        /* \"#utility.yul\":5857:5962   */\n      tag_57\n      jump\t// in\n    tag_147:\n        /* \"#utility.yul\":5850:5962   */\n      swap4\n      pop\n        /* \"#utility.yul\":5988:5991   */\n      dup4\n        /* \"#utility.yul\":6033:6037   */\n      0x20\n        /* \"#utility.yul\":6025:6031   */\n      dup3\n        /* \"#utility.yul\":6021:6038   */\n      mul\n        /* \"#utility.yul\":6016:6019   */\n      dup6\n        /* \"#utility.yul\":6012:6039   */\n      add\n        /* \"#utility.yul\":6063:6138   */\n      tag_148\n        /* \"#utility.yul\":6132:6137   */\n      dup6\n        /* \"#utility.yul\":6063:6138   */\n      tag_58\n      jump\t// in\n    tag_148:\n        /* \"#utility.yul\":6161:6168   */\n      dup1\n        /* \"#utility.yul\":6192:6193   */\n      0x00\n        /* \"#utility.yul\":6177:6600   */\n    tag_149:\n        /* \"#utility.yul\":6202:6208   */\n      dup6\n        /* \"#utility.yul\":6199:6200   */\n      dup2\n        /* \"#utility.yul\":6196:6209   */\n      lt\n        /* \"#utility.yul\":6177:6600   */\n      iszero\n      tag_151\n      jumpi\n        /* \"#utility.yul\":6273:6282   */\n      dup5\n        /* \"#utility.yul\":6267:6271   */\n      dup5\n        /* \"#utility.yul\":6263:6283   */\n      sub\n        /* \"#utility.yul\":6258:6261   */\n      dup10\n        /* \"#utility.yul\":6251:6284   */\n      mstore\n        /* \"#utility.yul\":6324:6330   */\n      dup2\n        /* \"#utility.yul\":6318:6331   */\n      mload\n        /* \"#utility.yul\":6352:6454   */\n      tag_152\n        /* \"#utility.yul\":6449:6453   */\n      dup6\n        /* \"#utility.yul\":6434:6447   */\n      dup3\n        /* \"#utility.yul\":6352:6454   */\n      tag_64\n      jump\t// in\n    tag_152:\n        /* \"#utility.yul\":6344:6454   */\n      swap5\n      pop\n        /* \"#utility.yul\":6477:6556   */\n      tag_153\n        /* \"#utility.yul\":6549:6555   */\n      dup4\n        /* \"#utility.yul\":6477:6556   */\n      tag_65\n      jump\t// in\n    tag_153:\n        /* \"#utility.yul\":6467:6556   */\n      swap3\n      pop\n        /* \"#utility.yul\":6585:6589   */\n      0x20\n        /* \"#utility.yul\":6580:6583   */\n      dup11\n        /* \"#utility.yul\":6576:6590   */\n      add\n        /* \"#utility.yul\":6569:6590   */\n      swap10\n      pop\n        /* \"#utility.yul\":6237:6600   */\n      pop\n        /* \"#utility.yul\":6224:6225   */\n      0x01\n        /* \"#utility.yul\":6221:6222   */\n      dup2\n        /* \"#utility.yul\":6217:6226   */\n      add\n        /* \"#utility.yul\":6212:6226   */\n      swap1\n      pop\n        /* \"#utility.yul\":6177:6600   */\n      jump(tag_149)\n    tag_151:\n        /* \"#utility.yul\":6181:6195   */\n      pop\n        /* \"#utility.yul\":6616:6620   */\n      dup3\n        /* \"#utility.yul\":6609:6620   */\n      swap8\n      pop\n        /* \"#utility.yul\":6636:6639   */\n      dup8\n        /* \"#utility.yul\":6629:6639   */\n      swap6\n      pop\n        /* \"#utility.yul\":5744:6645   */\n      pop\n      pop\n      pop\n      pop\n      pop\n        /* \"#utility.yul\":5582:6645   */\n      swap3\n      swap2\n      pop\n      pop\n      jump\t// out\n        /* \"#utility.yul\":6651:7100   */\n    tag_15:\n        /* \"#utility.yul\":6832:6836   */\n      0x00\n        /* \"#utility.yul\":6870:6872   */\n      0x20\n        /* \"#utility.yul\":6859:6868   */\n      dup3\n        /* \"#utility.yul\":6855:6873   */\n      add\n        /* \"#utility.yul\":6847:6873   */\n      swap1\n      pop\n        /* \"#utility.yul\":6919:6928   */\n      dup2\n        /* \"#utility.yul\":6913:6917   */\n      dup2\n        /* \"#utility.yul\":6909:6929   */\n      sub\n        /* \"#utility.yul\":6905:6906   */\n      0x00\n        /* \"#utility.yul\":6894:6903   */\n      dup4\n        /* \"#utility.yul\":6890:6907   */\n      add\n        /* \"#utility.yul\":6883:6930   */\n      mstore\n        /* \"#utility.yul\":6947:7093   */\n      tag_155\n        /* \"#utility.yul\":7088:7092   */\n      dup2\n        /* \"#utility.yul\":7079:7085   */\n      dup5\n        /* \"#utility.yul\":6947:7093   */\n      tag_66\n      jump\t// in\n    tag_155:\n        /* \"#utility.yul\":6939:7093   */\n      swap1\n      pop\n        /* \"#utility.yul\":6651:7100   */\n      swap3\n      swap2\n      pop\n      pop\n      jump\t// out\n        /* \"#utility.yul\":7106:7223   */\n    tag_67:\n        /* \"#utility.yul\":7215:7216   */\n      0x00\n        /* \"#utility.yul\":7212:7213   */\n      dup1\n        /* \"#utility.yul\":7205:7217   */\n      revert\n        /* \"#utility.yul\":7229:7346   */\n    tag_68:\n        /* \"#utility.yul\":7338:7339   */\n      0x00\n        /* \"#utility.yul\":7335:7336   */\n      dup1\n        /* \"#utility.yul\":7328:7340   */\n      revert\n        /* \"#utility.yul\":7352:7469   */\n    tag_69:\n        /* \"#utility.yul\":7461:7462   */\n      0x00\n        /* \"#utility.yul\":7458:7459   */\n      dup1\n        /* \"#utility.yul\":7451:7463   */\n      revert\n        /* \"#utility.yul\":7489:8042   */\n    tag_70:\n        /* \"#utility.yul\":7547:7555   */\n      0x00\n        /* \"#utility.yul\":7557:7563   */\n      dup1\n        /* \"#utility.yul\":7607:7610   */\n      dup4\n        /* \"#utility.yul\":7600:7604   */\n      0x1f\n        /* \"#utility.yul\":7592:7598   */\n      dup5\n        /* \"#utility.yul\":7588:7605   */\n      add\n        /* \"#utility.yul\":7584:7611   */\n      slt\n        /* \"#utility.yul\":7574:7696   */\n      tag_160\n      jumpi\n        /* \"#utility.yul\":7615:7694   */\n      tag_161\n      tag_67\n      jump\t// in\n    tag_161:\n        /* \"#utility.yul\":7574:7696   */\n    tag_160:\n        /* \"#utility.yul\":7728:7734   */\n      dup3\n        /* \"#utility.yul\":7715:7735   */\n      calldataload\n        /* \"#utility.yul\":7705:7735   */\n      swap1\n      pop\n        /* \"#utility.yul\":7758:7776   */\n      0xffffffffffffffff\n        /* \"#utility.yul\":7750:7756   */\n      dup2\n        /* \"#utility.yul\":7747:7777   */\n      gt\n        /* \"#utility.yul\":7744:7861   */\n      iszero\n      tag_162\n      jumpi\n        /* \"#utility.yul\":7780:7859   */\n      tag_163\n      tag_68\n      jump\t// in\n    tag_163:\n        /* \"#utility.yul\":7744:7861   */\n    tag_162:\n        /* \"#utility.yul\":7894:7898   */\n      0x20\n        /* \"#utility.yul\":7886:7892   */\n      dup4\n        /* \"#utility.yul\":7882:7899   */\n      add\n        /* \"#utility.yul\":7870:7899   */\n      swap2\n      pop\n        /* \"#utility.yul\":7948:7951   */\n      dup4\n        /* \"#utility.yul\":7940:7944   */\n      0x01\n        /* \"#utility.yul\":7932:7938   */\n      dup3\n        /* \"#utility.yul\":7928:7945   */\n      mul\n        /* \"#utility.yul\":7918:7926   */\n      dup4\n        /* \"#utility.yul\":7914:7946   */\n      add\n        /* \"#utility.yul\":7911:7952   */\n      gt\n        /* \"#utility.yul\":7908:8036   */\n      iszero\n      tag_164\n      jumpi\n        /* \"#utility.yul\":7955:8034   */\n      tag_165\n      tag_69\n      jump\t// in\n    tag_165:\n        /* \"#utility.yul\":7908:8036   */\n    tag_164:\n        /* \"#utility.yul\":7489:8042   */\n      swap3\n      pop\n      swap3\n      swap1\n      pop\n      jump\t// out\n        /* \"#utility.yul\":8048:8577   */\n    tag_18:\n        /* \"#utility.yul\":8119:8125   */\n      0x00\n        /* \"#utility.yul\":8127:8133   */\n      dup1\n        /* \"#utility.yul\":8176:8178   */\n      0x20\n        /* \"#utility.yul\":8164:8173   */\n      dup4\n        /* \"#utility.yul\":8155:8162   */\n      dup6\n        /* \"#utility.yul\":8151:8174   */\n      sub\n        /* \"#utility.yul\":8147:8179   */\n      slt\n        /* \"#utility.yul\":8144:8263   */\n      iszero\n      tag_167\n      jumpi\n        /* \"#utility.yul\":8182:8261   */\n      tag_168\n      tag_42\n      jump\t// in\n    tag_168:\n        /* \"#utility.yul\":8144:8263   */\n    tag_167:\n        /* \"#utility.yul\":8330:8331   */\n      0x00\n        /* \"#utility.yul\":8319:8328   */\n      dup4\n        /* \"#utility.yul\":8315:8332   */\n      add\n        /* \"#utility.yul\":8302:8333   */\n      calldataload\n        /* \"#utility.yul\":8360:8378   */\n      0xffffffffffffffff\n        /* \"#utility.yul\":8352:8358   */\n      dup2\n        /* \"#utility.yul\":8349:8379   */\n      gt\n        /* \"#utility.yul\":8346:8463   */\n      iszero\n      tag_169\n      jumpi\n        /* \"#utility.yul\":8382:8461   */\n      tag_170\n      tag_43\n      jump\t// in\n    tag_170:\n        /* \"#utility.yul\":8346:8463   */\n    tag_169:\n        /* \"#utility.yul\":8495:8560   */\n      tag_171\n        /* \"#utility.yul\":8552:8559   */\n      dup6\n        /* \"#utility.yul\":8543:8549   */\n      dup3\n        /* \"#utility.yul\":8532:8541   */\n      dup7\n        /* \"#utility.yul\":8528:8550   */\n      add\n        /* \"#utility.yul\":8495:8560   */\n      tag_70\n      jump\t// in\n    tag_171:\n        /* \"#utility.yul\":8477:8560   */\n      swap3\n      pop\n      swap3\n      pop\n        /* \"#utility.yul\":8273:8570   */\n      pop\n        /* \"#utility.yul\":8048:8577   */\n      swap3\n      pop\n      swap3\n      swap1\n      pop\n      jump\t// out\n        /* \"#utility.yul\":8583:8763   */\n    tag_71:\n        /* \"#utility.yul\":8631:8708   */\n      0x4e487b7100000000000000000000000000000000000000000000000000000000\n        /* \"#utility.yul\":8628:8629   */\n      0x00\n        /* \"#utility.yul\":8621:8709   */\n      mstore\n        /* \"#utility.yul\":8728:8732   */\n      0x22\n        /* \"#utility.yul\":8725:8726   */\n      0x04\n        /* \"#utility.yul\":8718:8733   */\n      mstore\n        /* \"#utility.yul\":8752:8756   */\n      0x24\n        /* \"#utility.yul\":8749:8750   */\n      0x00\n        /* \"#utility.yul\":8742:8757   */\n      revert\n        /* \"#utility.yul\":8769:9089   */\n    tag_23:\n        /* \"#utility.yul\":8813:8819   */\n      0x00\n        /* \"#utility.yul\":8850:8851   */\n      0x02\n        /* \"#utility.yul\":8844:8848   */\n      dup3\n        /* \"#utility.yul\":8840:8852   */\n      div\n        /* \"#utility.yul\":8830:8852   */\n      swap1\n      pop\n        /* \"#utility.yul\":8897:8898   */\n      0x01\n        /* \"#utility.yul\":8891:8895   */\n      dup3\n        /* \"#utility.yul\":8887:8899   */\n      and\n        /* \"#utility.yul\":8918:8936   */\n      dup1\n        /* \"#utility.yul\":8908:8989   */\n      tag_174\n      jumpi\n        /* \"#utility.yul\":8974:8978   */\n      0x7f\n        /* \"#utility.yul\":8966:8972   */\n      dup3\n        /* \"#utility.yul\":8962:8979   */\n      and\n        /* \"#utility.yul\":8952:8979   */\n      swap2\n      pop\n        /* \"#utility.yul\":8908:8989   */\n    tag_174:\n        /* \"#utility.yul\":9036:9038   */\n      0x20\n        /* \"#utility.yul\":9028:9034   */\n      dup3\n        /* \"#utility.yul\":9025:9039   */\n      lt\n        /* \"#utility.yul\":9005:9023   */\n      dup2\n        /* \"#utility.yul\":9002:9040   */\n      sub\n        /* \"#utility.yul\":8999:9083   */\n      tag_175\n      jumpi\n        /* \"#utility.yul\":9055:9073   */\n      tag_176\n      tag_71\n      jump\t// in\n    tag_176:\n        /* \"#utility.yul\":8999:9083   */\n    tag_175:\n        /* \"#utility.yul\":8820:9089   */\n      pop\n        /* \"#utility.yul\":8769:9089   */\n      swap2\n      swap1\n      pop\n      jump\t// out\n        /* \"#utility.yul\":9095:9275   */\n    tag_72:\n        /* \"#utility.yul\":9143:9220   */\n      0x4e487b7100000000000000000000000000000000000000000000000000000000\n        /* \"#utility.yul\":9140:9141   */\n      0x00\n        /* \"#utility.yul\":9133:9221   */\n      mstore\n        /* \"#utility.yul\":9240:9244   */\n      0x41\n        /* \"#utility.yul\":9237:9238   */\n      0x04\n        /* \"#utility.yul\":9230:9245   */\n      mstore\n        /* \"#utility.yul\":9264:9268   */\n      0x24\n        /* \"#utility.yul\":9261:9262   */\n      0x00\n        /* \"#utility.yul\":9254:9269   */\n      revert\n        /* \"#utility.yul\":9281:9422   */\n    tag_73:\n        /* \"#utility.yul\":9330:9334   */\n      0x00\n        /* \"#utility.yul\":9353:9356   */\n      dup2\n        /* \"#utility.yul\":9345:9356   */\n      swap1\n      pop\n        /* \"#utility.yul\":9376:9379   */\n      dup2\n        /* \"#utility.yul\":9373:9374   */\n      0x00\n        /* \"#utility.yul\":9366:9380   */\n      mstore\n        /* \"#utility.yul\":9410:9414   */\n      0x20\n        /* \"#utility.yul\":9407:9408   */\n      0x00\n        /* \"#utility.yul\":9397:9415   */\n      keccak256\n        /* \"#utility.yul\":9389:9415   */\n      swap1\n      pop\n        /* \"#utility.yul\":9281:9422   */\n      swap2\n      swap1\n      pop\n      jump\t// out\n        /* \"#utility.yul\":9428:9521   */\n    tag_74:\n        /* \"#utility.yul\":9465:9471   */\n      0x00\n        /* \"#utility.yul\":9512:9514   */\n      0x20\n        /* \"#utility.yul\":9507:9509   */\n      0x1f\n        /* \"#utility.yul\":9500:9505   */\n      dup4\n        /* \"#utility.yul\":9496:9510   */\n      add\n        /* \"#utility.yul\":9492:9515   */\n      div\n        /* \"#utility.yul\":9482:9515   */\n      swap1\n      pop\n        /* \"#utility.yul\":9428:9521   */\n      swap2\n      swap1\n      pop\n      jump\t// out\n        /* \"#utility.yul\":9527:9634   */\n    tag_75:\n        /* \"#utility.yul\":9571:9579   */\n      0x00\n        /* \"#utility.yul\":9621:9626   */\n      dup3\n        /* \"#utility.yul\":9615:9619   */\n      dup3\n        /* \"#utility.yul\":9611:9627   */\n      shl\n        /* \"#utility.yul\":9590:9627   */\n      swap1\n      pop\n        /* \"#utility.yul\":9527:9634   */\n      swap3\n      swap2\n      pop\n      pop\n      jump\t// out\n        /* \"#utility.yul\":9640:10033   */\n    tag_76:\n        /* \"#utility.yul\":9709:9715   */\n      0x00\n        /* \"#utility.yul\":9759:9760   */\n      0x08\n        /* \"#utility.yul\":9747:9757   */\n      dup4\n        /* \"#utility.yul\":9743:9761   */\n      mul\n        /* \"#utility.yul\":9782:9879   */\n      tag_182\n        /* \"#utility.yul\":9812:9878   */\n      0xffffffffffffffffffffffffffffffffffffffffffffffffffffffffffffffff\n        /* \"#utility.yul\":9801:9810   */\n      dup3\n        /* \"#utility.yul\":9782:9879   */\n      tag_75\n      jump\t// in\n    tag_182:\n        /* \"#utility.yul\":9900:9939   */\n      tag_183\n        /* \"#utility.yul\":9930:9938   */\n      dup7\n        /* \"#utility.yul\":9919:9928   */\n      dup4\n        /* \"#utility.yul\":9900:9939   */\n      tag_75\n      jump\t// in\n    tag_183:\n        /* \"#utility.yul\":9888:9939   */\n      swap6\n      pop\n        /* \"#utility.yul\":9972:9976   */\n      dup1\n        /* \"#utility.yul\":9968:9977   */\n      not\n        /* \"#utility.yul\":9961:9966   */\n      dup5\n        /* \"#utility.yul\":9957:9978   */\n      and\n        /* \"#utility.yul\":9948:9978   */\n      swap4\n      pop\n        /* \"#utility.yul\":10021:10025   */\n      dup1\n        /* \"#utility.yul\":10011:10019   */\n      dup7\n        /* \"#utility.yul\":10007:10026   */\n      and\n        /* \"#utility.yul\":10000:10005   */\n      dup5\n        /* \"#utility.yul\":9997:10027   */\n      or\n        /* \"#utility.yul\":9987:10027   */\n      swap3\n      pop\n        /* \"#utility.yul\":9716:10033   */\n      pop\n      pop\n        /* \"#utility.yul\":9640:10033   */\n      swap4\n      swap3\n      pop\n      pop\n      pop\n      jump\t// out\n        /* \"#utility.yul\":10039:10099   */\n    tag_77:\n        /* \"#utility.yul\":10067:10070   */\n      0x00\n        /* \"#utility.yul\":10088:10093   */\n      dup2\n        /* \"#utility.yul\":10081:10093   */\n      swap1\n      pop\n        /* \"#utility.yul\":10039:10099   */\n      swap2\n      swap1\n      pop\n      jump\t// out\n        /* \"#utility.yul\":10105:10247   */\n    tag_78:\n        /* \"#utility.yul\":10155:10164   */\n      0x00\n        /* \"#utility.yul\":10188:10241   */\n      tag_186\n        /* \"#utility.yul\":10206:10240   */\n      tag_187\n        /* \"#utility.yul\":10215:10239   */\n      tag_188\n        /* \"#utility.yul\":10233:10238   */\n      dup5\n        /* \"#utility.yul\":10215:10239   */\n      tag_44\n      jump\t// in\n    tag_188:\n        /* \"#utility.yul\":10206:10240   */\n      tag_77\n      jump\t// in\n    tag_187:\n        /* \"#utility.yul\":10188:10241   */\n      tag_44\n      jump\t// in\n    tag_186:\n        /* \"#utility.yul\":10175:10241   */\n      swap1\n      pop\n        /* \"#utility.yul\":10105:10247   */\n      swap2\n      swap1\n      pop\n      jump\t// out\n        /* \"#utility.yul\":10253:10328   */\n    tag_79:\n        /* \"#utility.yul\":10296:10299   */\n      0x00\n        /* \"#utility.yul\":10317:10322   */\n      dup2\n        /* \"#utility.yul\":10310:10322   */\n      swap1\n      pop\n        /* \"#utility.yul\":10253:10328   */\n      swap2\n      swap1\n      pop\n      jump\t// out\n        /* \"#utility.yul\":10334:10603   */\n    tag_80:\n        /* \"#utility.yul\":10444:10483   */\n      tag_191\n        /* \"#utility.yul\":10475:10482   */\n      dup4\n        /* \"#utility.yul\":10444:10483   */\n      tag_78\n      jump\t// in\n    tag_191:\n        /* \"#utility.yul\":10505:10596   */\n      tag_192\n        /* \"#utility.yul\":10554:10595   */\n      tag_193\n        /* \"#utility.yul\":10578:10594   */\n      dup3\n        /* \"#utility.yul\":10554:10595   */\n      tag_79\n      jump\t// in\n    tag_193:\n        /* \"#utility.yul\":10546:10552   */\n      dup5\n        /* \"#utility.yul\":10539:10543   */\n      dup5\n        /* \"#utility.yul\":10533:10544   */\n      sload\n        /* \"#utility.yul\":10505:10596   */\n      tag_76\n      jump\t// in\n    tag_192:\n        /* \"#utility.yul\":10499:10503   */\n      dup3\n        /* \"#utility.yul\":10492:10597   */\n      sstore\n        /* \"#utility.yul\":10410:10603   */\n      pop\n        /* \"#utility.yul\":10334:10603   */\n      pop\n      pop\n      pop\n      jump\t// out\n        /* \"#utility.yul\":10609:10682   */\n    tag_81:\n        /* \"#utility.yul\":10654:10657   */\n      0x00\n        /* \"#utility.yul\":10609:10682   */\n      swap1\n      jump\t// out\n        /* \"#utility.yul\":10688:10877   */\n    tag_82:\n        /* \"#utility.yul\":10765:10797   */\n      tag_196\n      tag_81\n      jump\t// in\n    tag_196:\n        /* \"#utility.yul\":10806:10871   */\n      tag_197\n        /* \"#utility.yul\":10864:10870   */\n      dup2\n        /* \"#utility.yul\":10856:10862   */\n      dup5\n        /* \"#utility.yul\":10850:10854   */\n      dup5\n        /* \"#utility.yul\":10806:10871   */\n      tag_80\n      jump\t// in\n    tag_197:\n        /* \"#utility.yul\":10741:10877   */\n      pop\n        /* \"#utility.yul\":10688:10877   */\n      pop\n      pop\n      jump\t// out\n        /* \"#utility.yul\":10883:11069   */\n    tag_83:\n        /* \"#utility.yul\":10943:11063   */\n    tag_199:\n        /* \"#utility.yul\":10960:10963   */\n      dup2\n        /* \"#utility.yul\":10953:10958   */\n      dup2\n        /* \"#utility.yul\":10950:10964   */\n      lt\n        /* \"#utility.yul\":10943:11063   */\n      iszero\n      tag_201\n      jumpi\n        /* \"#utility.yul\":11014:11053   */\n      tag_202\n        /* \"#utility.yul\":11051:11052   */\n      0x00\n        /* \"#utility.yul\":11044:11049   */\n      dup3\n        /* \"#utility.yul\":11014:11053   */\n      tag_82\n      jump\t// in\n    tag_202:\n        /* \"#utility.yul\":10987:10988   */\n      0x01\n        /* \"#utility.yul\":10980:10985   */\n      dup2\n        /* \"#utility.yul\":10976:10989   */\n      add\n        /* \"#utility.yul\":10967:10989   */\n      swap1\n      pop\n        /* \"#utility.yul\":10943:11063   */\n      jump(tag_199)\n    tag_201:\n        /* \"#utility.yul\":10883:11069   */\n      pop\n      pop\n      jump\t// out\n        /* \"#utility.yul\":11075:11618   */\n    tag_84:\n        /* \"#utility.yul\":11176:11178   */\n      0x1f\n        /* \"#utility.yul\":11171:11174   */\n      dup3\n        /* \"#utility.yul\":11168:11179   */\n      gt\n        /* \"#utility.yul\":11165:11611   */\n      iszero\n      tag_204\n      jumpi\n        /* \"#utility.yul\":11210:11248   */\n      tag_205\n        /* \"#utility.yul\":11242:11247   */\n      dup2\n        /* \"#utility.yul\":11210:11248   */\n      tag_73\n      jump\t// in\n    tag_205:\n        /* \"#utility.yul\":11294:11323   */\n      tag_206\n        /* \"#utility.yul\":11312:11322   */\n      dup5\n        /* \"#utility.yul\":11294:11323   */\n      tag_74\n      jump\t// in\n    tag_206:\n        /* \"#utility.yul\":11284:11292   */\n      dup2\n        /* \"#utility.yul\":11280:11324   */\n      add\n        /* \"#utility.yul\":11477:11479   */\n      0x20\n        /* \"#utility.yul\":11465:11475   */\n      dup6\n        /* \"#utility.yul\":11462:11480   */\n      lt\n        /* \"#utility.yul\":11459:11508   */\n      iszero\n      tag_207\n      jumpi\n        /* \"#utility.yul\":11498:11506   */\n      dup2\n        /* \"#utility.yul\":11483:11506   */\n      swap1\n      pop\n        /* \"#utility.yul\":11459:11508   */\n    tag_207:\n        /* \"#utility.yul\":11521:11601   */\n      tag_208\n        /* \"#utility.yul\":11577:11599   */\n      tag_209\n        /* \"#utility.yul\":11595:11598   */\n      dup6\n        /* \"#utility.yul\":11577:11599   */\n      tag_74\n      jump\t// in\n    tag_209:\n        /* \"#utility.yul\":11567:11575   */\n      dup4\n        /* \"#utility.yul\":11563:11600   */\n      add\n        /* \"#utility.yul\":11550:11561   */\n      dup3\n        /* \"#utility.yul\":11521:11601   */\n      tag_83\n      jump\t// in\n    tag_208:\n        /* \"#utility.yul\":11180:11611   */\n      pop\n      pop\n        /* \"#utility.yul\":11165:11611   */\n    tag_204:\n        /* \"#utility.yul\":11075:11618   */\n      pop\n      pop\n      pop\n      jump\t// out\n        /* \"#utility.yul\":11624:11741   */\n    tag_85:\n        /* \"#utility.yul\":11678:11686   */\n      0x00\n        /* \"#utility.yul\":11728:11733   */\n      dup3\n        /* \"#utility.yul\":11722:11726   */\n      dup3\n        /* \"#utility.yul\":11718:11734   */\n      shr\n        /* \"#utility.yul\":11697:11734   */\n      swap1\n      pop\n        /* \"#utility.yul\":11624:11741   */\n      swap3\n      swap2\n      pop\n      pop\n      jump\t// out\n        /* \"#utility.yul\":11747:11916   */\n    tag_86:\n        /* \"#utility.yul\":11791:11797   */\n      0x00\n        /* \"#utility.yul\":11824:11875   */\n      tag_212\n        /* \"#utility.yul\":11872:11873   */\n      0x00\n        /* \"#utility.yul\":11868:11874   */\n      not\n        /* \"#utility.yul\":11860:11865   */\n      dup5\n        /* \"#utility.yul\":11857:11858   */\n      0x08\n        /* \"#utility.yul\":11853:11866   */\n      mul\n        /* \"#utility.yul\":11824:11875   */\n      tag_85\n      jump\t// in\n    tag_212:\n        /* \"#utility.yul\":11820:11876   */\n      not\n        /* \"#utility.yul\":11905:11909   */\n      dup1\n        /* \"#utility.yul\":11899:11903   */\n      dup4\n        /* \"#utility.yul\":11895:11910   */\n      and\n        /* \"#utility.yul\":11885:11910   */\n      swap2\n      pop\n        /* \"#utility.yul\":11798:11916   */\n      pop\n        /* \"#utility.yul\":11747:11916   */\n      swap3\n      swap2\n      pop\n      pop\n      jump\t// out\n        /* \"#utility.yul\":11921:12216   */\n    tag_87:\n        /* \"#utility.yul\":11997:12001   */\n      0x00\n        /* \"#utility.yul\":12143:12172   */\n      tag_214\n        /* \"#utility.yul\":12168:12171   */\n      dup4\n        /* \"#utility.yul\":12162:12166   */\n      dup4\n        /* \"#utility.yul\":12143:12172   */\n      tag_86\n      jump\t// in\n    tag_214:\n        /* \"#utility.yul\":12135:12172   */\n      swap2\n      pop\n        /* \"#utility.yul\":12205:12208   */\n      dup3\n        /* \"#utility.yul\":12202:12203   */\n      0x02\n        /* \"#utility.yul\":12198:12209   */\n      mul\n        /* \"#utility.yul\":12192:12196   */\n      dup3\n        /* \"#utility.yul\":12189:12210   */\n      or\n        /* \"#utility.yul\":12181:12210   */\n      swap1\n      pop\n        /* \"#utility.yul\":11921:12216   */\n      swap3\n      swap2\n      pop\n      pop\n      jump\t// out\n        /* \"#utility.yul\":12221:13616   */\n    tag_40:\n        /* \"#utility.yul\":12338:12375   */\n      tag_216\n        /* \"#utility.yul\":12371:12374   */\n      dup3\n        /* \"#utility.yul\":12338:12375   */\n      tag_50\n      jump\t// in\n    tag_216:\n        /* \"#utility.yul\":12440:12458   */\n      0xffffffffffffffff\n        /* \"#utility.yul\":12432:12438   */\n      dup2\n        /* \"#utility.yul\":12429:12459   */\n      gt\n        /* \"#utility.yul\":12426:12482   */\n      iszero\n      tag_217\n      jumpi\n        /* \"#utility.yul\":12462:12480   */\n      tag_218\n      tag_72\n      jump\t// in\n    tag_218:\n        /* \"#utility.yul\":12426:12482   */\n    tag_217:\n        /* \"#utility.yul\":12506:12544   */\n      tag_219\n        /* \"#utility.yul\":12538:12542   */\n      dup3\n        /* \"#utility.yul\":12532:12543   */\n      sload\n        /* \"#utility.yul\":12506:12544   */\n      tag_23\n      jump\t// in\n    tag_219:\n        /* \"#utility.yul\":12591:12658   */\n      tag_220\n        /* \"#utility.yul\":12651:12657   */\n      dup3\n        /* \"#utility.yul\":12643:12649   */\n      dup3\n        /* \"#utility.yul\":12637:12641   */\n      dup6\n        /* \"#utility.yul\":12591:12658   */\n      tag_84\n      jump\t// in\n    tag_220:\n        /* \"#utility.yul\":12685:12686   */\n      0x00\n        /* \"#utility.yul\":12709:12713   */\n      0x20\n        /* \"#utility.yul\":12696:12713   */\n      swap1\n      pop\n        /* \"#utility.yul\":12741:12743   */\n      0x1f\n        /* \"#utility.yul\":12733:12739   */\n      dup4\n        /* \"#utility.yul\":12730:12744   */\n      gt\n        /* \"#utility.yul\":12758:12759   */\n      0x01\n        /* \"#utility.yul\":12753:13371   */\n      dup2\n      eq\n      tag_222\n      jumpi\n        /* \"#utility.yul\":13415:13416   */\n      0x00\n        /* \"#utility.yul\":13432:13438   */\n      dup5\n        /* \"#utility.yul\":13429:13506   */\n      iszero\n      tag_223\n      jumpi\n        /* \"#utility.yul\":13481:13490   */\n      dup3\n        /* \"#utility.yul\":13476:13479   */\n      dup8\n        /* \"#utility.yul\":13472:13491   */\n      add\n        /* \"#utility.yul\":13466:13492   */\n      mload\n        /* \"#utility.yul\":13457:13492   */\n      swap1\n      pop\n        /* \"#utility.yul\":13429:13506   */\n    tag_223:\n        /* \"#utility.yul\":13532:13599   */\n      tag_224\n        /* \"#utility.yul\":13592:13598   */\n      dup6\n        /* \"#utility.yul\":13585:13590   */\n      dup3\n        /* \"#utility.yul\":13532:13599   */\n      tag_87\n      jump\t// in\n    tag_224:\n        /* \"#utility.yul\":13526:13530   */\n      dup7\n        /* \"#utility.yul\":13519:13600   */\n      sstore\n        /* \"#utility.yul\":13388:13610   */\n      pop\n        /* \"#utility.yul\":12723:13610   */\n      jump(tag_221)\n        /* \"#utility.yul\":12753:13371   */\n    tag_222:\n        /* \"#utility.yul\":12805:12809   */\n      0x1f\n        /* \"#utility.yul\":12801:12810   */\n      not\n        /* \"#utility.yul\":12793:12799   */\n      dup5\n        /* \"#utility.yul\":12789:12811   */\n      and\n        /* \"#utility.yul\":12839:12876   */\n      tag_225\n        /* \"#utility.yul\":12871:12875   */\n      dup7\n        /* \"#utility.yul\":12839:12876   */\n      tag_73\n      jump\t// in\n    tag_225:\n        /* \"#utility.yul\":12898:12899   */\n      0x00\n        /* \"#utility.yul\":12912:13120   */\n    tag_226:\n        /* \"#utility.yul\":12926:12933   */\n      dup3\n        /* \"#utility.yul\":12923:12924   */\n      dup2\n        /* \"#utility.yul\":12920:12934   */\n      lt\n        /* \"#utility.yul\":12912:13120   */\n      iszero\n      tag_228\n      jumpi\n        /* \"#utility.yul\":13005:13014   */\n      dup5\n        /* \"#utility.yul\":13000:13003   */\n      dup10\n        /* \"#utility.yul\":12996:13015   */\n      add\n        /* \"#utility.yul\":12990:13016   */\n      mload\n        /* \"#utility.yul\":12982:12988   */\n      dup3\n        /* \"#utility.yul\":12975:13017   */\n      sstore\n        /* \"#utility.yul\":13056:13057   */\n      0x01\n        /* \"#utility.yul\":13048:13054   */\n      dup3\n        /* \"#utility.yul\":13044:13058   */\n      add\n        /* \"#utility.yul\":13034:13058   */\n      swap2\n      pop\n        /* \"#utility.yul\":13103:13105   */\n      0x20\n        /* \"#utility.yul\":13092:13101   */\n      dup6\n        /* \"#utility.yul\":13088:13106   */\n      add\n        /* \"#utility.yul\":13075:13106   */\n      swap5\n      pop\n        /* \"#utility.yul\":12949:12953   */\n      0x20\n        /* \"#utility.yul\":12946:12947   */\n      dup2\n        /* \"#utility.yul\":12942:12954   */\n      add\n        /* \"#utility.yul\":12937:12954   */\n      swap1\n      pop\n        /* \"#utility.yul\":12912:13120   */\n      jump(tag_226)\n    tag_228:\n        /* \"#utility.yul\":13148:13154   */\n      dup7\n        /* \"#utility.yul\":13139:13146   */\n      dup4\n        /* \"#utility.yul\":13136:13155   */\n      lt\n        /* \"#utility.yul\":13133:13312   */\n      iszero\n      tag_229\n      jumpi\n        /* \"#utility.yul\":13206:13215   */\n      dup5\n        /* \"#utility.yul\":13201:13204   */\n      dup10\n        /* \"#utility.yul\":13197:13216   */\n      add\n        /* \"#utility.yul\":13191:13217   */\n      mload\n        /* \"#utility.yul\":13249:13297   */\n      tag_230\n        /* \"#utility.yul\":13291:13295   */\n      0x1f\n        /* \"#utility.yul\":13283:13289   */\n      dup10\n        /* \"#utility.yul\":13279:13296   */\n      and\n        /* \"#utility.yul\":13268:13277   */\n      dup3\n        /* \"#utility.yul\":13249:13297   */\n      tag_86\n      jump\t// in\n    tag_230:\n        /* \"#utility.yul\":13241:13247   */\n      dup4\n        /* \"#utility.yul\":13234:13298   */\n      sstore\n        /* \"#utility.yul\":13156:13312   */\n      pop\n        /* \"#utility.yul\":13133:13312   */\n    tag_229:\n        /* \"#utility.yul\":13358:13359   */\n      0x01\n        /* \"#utility.yul\":13354:13355   */\n      0x02\n        /* \"#utility.yul\":13346:13352   */\n      dup9\n        /* \"#utility.yul\":13342:13356   */\n      mul\n        /* \"#utility.yul\":13338:13360   */\n      add\n        /* \"#utility.yul\":13332:13336   */\n      dup9\n        /* \"#utility.yul\":13325:13361   */\n      sstore\n        /* \"#utility.yul\":12760:13371   */\n      pop\n      pop\n      pop\n        /* \"#utility.yul\":12723:13610   */\n    tag_221:\n      pop\n        /* \"#utility.yul\":12313:13616   */\n      pop\n      pop\n      pop\n        /* \"#utility.yul\":12221:13616   */\n      pop\n      pop\n      jump\t// out\n\n    auxdata: 0xa26469706673582212206219b2a223500cea7efe33bd9da3fcc7d5df7d6060c07d53c29799627e16c66664736f6c63430008180033\n}\n",
				"bytecode": {
					"linkReferences": {},
					"object": "608060405234801561000f575f80fd5b50610abb8061001d5f395ff3fe608060405234801561000f575f80fd5b506004361061003f575f3560e01c80638ebb4c151461004357806391f3410c14610075578063b741aa5114610093575b5f80fd5b61005d60048036038101906100589190610416565b6100af565b60405161006c93929190610519565b60405180910390f35b61007d610188565b60405161008a91906106c3565b60405180910390f35b6100ad60048036038101906100a89190610744565b6102d1565b005b5f81815481106100bd575f80fd5b905f5260205f2090600302015f91509050805f015f9054906101000a900473ffffffffffffffffffffffffffffffffffffffff1690806001018054610101906107bc565b80601f016020809104026020016040519081016040528092919081815260200182805461012d906107bc565b80156101785780601f1061014f57610100808354040283529160200191610178565b820191905f5260205f20905b81548152906001019060200180831161015b57829003601f168201915b5050505050908060020154905083565b60605f805480602002602001604051908101604052809291908181526020015f905b828210156102c8578382905f5260205f2090600302016040518060600160405290815f82015f9054906101000a900473ffffffffffffffffffffffffffffffffffffffff1673ffffffffffffffffffffffffffffffffffffffff1673ffffffffffffffffffffffffffffffffffffffff16815260200160018201805461022f906107bc565b80601f016020809104026020016040519081016040528092919081815260200182805461025b906107bc565b80156102a65780601f1061027d576101008083540402835291602001916102a6565b820191905f5260205f20905b81548152906001019060200180831161028957829003601f168201915b50505050508152602001600282015481525050815260200190600101906101aa565b50505050905090565b5f60405180606001604052803373ffffffffffffffffffffffffffffffffffffffff16815260200184848080601f0160208091040260200160405190810160405280939291908181526020018383808284375f81840152601f19601f8201169050808301925050505050505081526020014281525090505f81908060018154018082558091505060019003905f5260205f2090600302015f909190919091505f820151815f015f6101000a81548173ffffffffffffffffffffffffffffffffffffffff021916908373ffffffffffffffffffffffffffffffffffffffff16021790555060208201518160010190816103c991906109b6565b50604082015181600201555050505050565b5f80fd5b5f80fd5b5f819050919050565b6103f5816103e3565b81146103ff575f80fd5b50565b5f81359050610410816103ec565b92915050565b5f6020828403121561042b5761042a6103db565b5b5f61043884828501610402565b91505092915050565b5f73ffffffffffffffffffffffffffffffffffffffff82169050919050565b5f61046a82610441565b9050919050565b61047a81610460565b82525050565b5f81519050919050565b5f82825260208201905092915050565b5f5b838110156104b757808201518184015260208101905061049c565b5f8484015250505050565b5f601f19601f8301169050919050565b5f6104dc82610480565b6104e6818561048a565b93506104f681856020860161049a565b6104ff816104c2565b840191505092915050565b610513816103e3565b82525050565b5f60608201905061052c5f830186610471565b818103602083015261053e81856104d2565b905061054d604083018461050a565b949350505050565b5f81519050919050565b5f82825260208201905092915050565b5f819050602082019050919050565b61058781610460565b82525050565b5f82825260208201905092915050565b5f6105a782610480565b6105b1818561058d565b93506105c181856020860161049a565b6105ca816104c2565b840191505092915050565b6105de816103e3565b82525050565b5f606083015f8301516105f95f86018261057e565b5060208301518482036020860152610611828261059d565b915050604083015161062660408601826105d5565b508091505092915050565b5f61063c83836105e4565b905092915050565b5f602082019050919050565b5f61065a82610555565b610664818561055f565b9350836020820285016106768561056f565b805f5b858110156106b157848403895281516106928582610631565b945061069d83610644565b925060208a01995050600181019050610679565b50829750879550505050505092915050565b5f6020820190508181035f8301526106db8184610650565b905092915050565b5f80fd5b5f80fd5b5f80fd5b5f8083601f840112610704576107036106e3565b5b8235905067ffffffffffffffff811115610721576107206106e7565b5b60208301915083600182028301111561073d5761073c6106eb565b5b9250929050565b5f806020838503121561075a576107596103db565b5b5f83013567ffffffffffffffff811115610777576107766103df565b5b610783858286016106ef565b92509250509250929050565b7f4e487b71000000000000000000000000000000000000000000000000000000005f52602260045260245ffd5b5f60028204905060018216806107d357607f821691505b6020821081036107e6576107e561078f565b5b50919050565b7f4e487b71000000000000000000000000000000000000000000000000000000005f52604160045260245ffd5b5f819050815f5260205f209050919050565b5f6020601f8301049050919050565b5f82821b905092915050565b5f600883026108757fffffffffffffffffffffffffffffffffffffffffffffffffffffffffffffffff8261083a565b61087f868361083a565b95508019841693508086168417925050509392505050565b5f819050919050565b5f6108ba6108b56108b0846103e3565b610897565b6103e3565b9050919050565b5f819050919050565b6108d3836108a0565b6108e76108df826108c1565b848454610846565b825550505050565b5f90565b6108fb6108ef565b6109068184846108ca565b505050565b5b818110156109295761091e5f826108f3565b60018101905061090c565b5050565b601f82111561096e5761093f81610819565b6109488461082b565b81016020851015610957578190505b61096b6109638561082b565b83018261090b565b50505b505050565b5f82821c905092915050565b5f61098e5f1984600802610973565b1980831691505092915050565b5f6109a6838361097f565b9150826002028217905092915050565b6109bf82610480565b67ffffffffffffffff8111156109d8576109d76107ec565b5b6109e282546107bc565b6109ed82828561092d565b5f60209050601f831160018114610a1e575f8415610a0c578287015190505b610a16858261099b565b865550610a7d565b601f198416610a2c86610819565b5f5b82811015610a5357848901518255600182019150602085019450602081019050610a2e565b86831015610a705784890151610a6c601f89168261097f565b8355505b6001600288020188555050505b50505050505056fea26469706673582212206219b2a223500cea7efe33bd9da3fcc7d5df7d6060c07d53c29799627e16c66664736f6c63430008180033",
					"opcodes": "PUSH1 0x80 PUSH1 0x40 MSTORE CALLVALUE DUP1 ISZERO PUSH2 0xF JUMPI PUSH0 DUP1 REVERT JUMPDEST POP PUSH2 0xABB DUP1 PUSH2 0x1D PUSH0 CODECOPY PUSH0 RETURN INVALID PUSH1 0x80 PUSH1 0x40 MSTORE CALLVALUE DUP1 ISZERO PUSH2 0xF JUMPI PUSH0 DUP1 REVERT JUMPDEST POP PUSH1 0x4 CALLDATASIZE LT PUSH2 0x3F JUMPI PUSH0 CALLDATALOAD PUSH1 0xE0 SHR DUP1 PUSH4 0x8EBB4C15 EQ PUSH2 0x43 JUMPI DUP1 PUSH4 0x91F3410C EQ PUSH2 0x75 JUMPI DUP1 PUSH4 0xB741AA51 EQ PUSH2 0x93 JUMPI JUMPDEST PUSH0 DUP1 REVERT JUMPDEST PUSH2 0x5D PUSH1 0x4 DUP1 CALLDATASIZE SUB DUP2 ADD SWAP1 PUSH2 0x58 SWAP2 SWAP1 PUSH2 0x416 JUMP JUMPDEST PUSH2 0xAF JUMP JUMPDEST PUSH1 0x40 MLOAD PUSH2 0x6C SWAP4 SWAP3 SWAP2 SWAP1 PUSH2 0x519 JUMP JUMPDEST PUSH1 0x40 MLOAD DUP1 SWAP2 SUB SWAP1 RETURN JUMPDEST PUSH2 0x7D PUSH2 0x188 JUMP JUMPDEST PUSH1 0x40 MLOAD PUSH2 0x8A SWAP2 SWAP1 PUSH2 0x6C3 JUMP JUMPDEST PUSH1 0x40 MLOAD DUP1 SWAP2 SUB SWAP1 RETURN JUMPDEST PUSH2 0xAD PUSH1 0x4 DUP1 CALLDATASIZE SUB DUP2 ADD SWAP1 PUSH2 0xA8 SWAP2 SWAP1 PUSH2 0x744 JUMP JUMPDEST PUSH2 0x2D1 JUMP JUMPDEST STOP JUMPDEST PUSH0 DUP2 DUP2 SLOAD DUP2 LT PUSH2 0xBD JUMPI PUSH0 DUP1 REVERT JUMPDEST SWAP1 PUSH0 MSTORE PUSH1 0x20 PUSH0 KECCAK256 SWAP1 PUSH1 0x3 MUL ADD PUSH0 SWAP2 POP SWAP1 POP DUP1 PUSH0 ADD PUSH0 SWAP1 SLOAD SWAP1 PUSH2 0x100 EXP SWAP1 DIV PUSH20 0xFFFFFFFFFFFFFFFFFFFFFFFFFFFFFFFFFFFFFFFF AND SWAP1 DUP1 PUSH1 0x1 ADD DUP1 SLOAD PUSH2 0x101 SWAP1 PUSH2 0x7BC JUMP JUMPDEST DUP1 PUSH1 0x1F ADD PUSH1 0x20 DUP1 SWAP2 DIV MUL PUSH1 0x20 ADD PUSH1 0x40 MLOAD SWAP1 DUP2 ADD PUSH1 0x40 MSTORE DUP1 SWAP3 SWAP2 SWAP1 DUP2 DUP2 MSTORE PUSH1 0x20 ADD DUP3 DUP1 SLOAD PUSH2 0x12D SWAP1 PUSH2 0x7BC JUMP JUMPDEST DUP1 ISZERO PUSH2 0x178 JUMPI DUP1 PUSH1 0x1F LT PUSH2 0x14F JUMPI PUSH2 0x100 DUP1 DUP4 SLOAD DIV MUL DUP4 MSTORE SWAP2 PUSH1 0x20 ADD SWAP2 PUSH2 0x178 JUMP JUMPDEST DUP3 ADD SWAP2 SWAP1 PUSH0 MSTORE PUSH1 0x20 PUSH0 KECCAK256 SWAP1 JUMPDEST DUP2 SLOAD DUP2 MSTORE SWAP1 PUSH1 0x1 ADD SWAP1 PUSH1 0x20 ADD DUP1 DUP4 GT PUSH2 0x15B JUMPI DUP3 SWAP1 SUB PUSH1 0x1F AND DUP3 ADD SWAP2 JUMPDEST POP POP POP POP POP SWAP1 DUP1 PUSH1 0x2 ADD SLOAD SWAP1 POP DUP4 JUMP JUMPDEST PUSH1 0x60 PUSH0 DUP1 SLOAD DUP1 PUSH1 0x20 MUL PUSH1 0x20 ADD PUSH1 0x40 MLOAD SWAP1 DUP2 ADD PUSH1 0x40 MSTORE DUP1 SWAP3 SWAP2 SWAP1 DUP2 DUP2 MSTORE PUSH1 0x20 ADD PUSH0 SWAP1 JUMPDEST DUP3 DUP3 LT ISZERO PUSH2 0x2C8 JUMPI DUP4 DUP3 SWAP1 PUSH0 MSTORE PUSH1 0x20 PUSH0 KECCAK256 SWAP1 PUSH1 0x3 MUL ADD PUSH1 0x40 MLOAD DUP1 PUSH1 0x60 ADD PUSH1 0x40 MSTORE SWAP1 DUP2 PUSH0 DUP3 ADD PUSH0 SWAP1 SLOAD SWAP1 PUSH2 0x100 EXP SWAP1 DIV PUSH20 0xFFFFFFFFFFFFFFFFFFFFFFFFFFFFFFFFFFFFFFFF AND PUSH20 0xFFFFFFFFFFFFFFFFFFFFFFFFFFFFFFFFFFFFFFFF AND PUSH20 0xFFFFFFFFFFFFFFFFFFFFFFFFFFFFFFFFFFFFFFFF AND DUP2 MSTORE PUSH1 0x20 ADD PUSH1 0x1 DUP3 ADD DUP1 SLOAD PUSH2 0x22F SWAP1 PUSH2 0x7BC JUMP JUMPDEST DUP1 PUSH1 0x1F ADD PUSH1 0x20 DUP1 SWAP2 DIV MUL PUSH1 0x20 ADD PUSH1 0x40 MLOAD SWAP1 DUP2 ADD PUSH1 0x40 MSTORE DUP1 SWAP3 SWAP2 SWAP1 DUP2 DUP2 MSTORE PUSH1 0x20 ADD DUP3 DUP1 SLOAD PUSH2 0x25B SWAP1 PUSH2 0x7BC JUMP JUMPDEST DUP1 ISZERO PUSH2 0x2A6 JUMPI DUP1 PUSH1 0x1F LT PUSH2 0x27D JUMPI PUSH2 0x100 DUP1 DUP4 SLOAD DIV MUL DUP4 MSTORE SWAP2 PUSH1 0x20 ADD SWAP2 PUSH2 0x2A6 JUMP JUMPDEST DUP3 ADD SWAP2 SWAP1 PUSH0 MSTORE PUSH1 0x20 PUSH0 KECCAK256 SWAP1 JUMPDEST DUP2 SLOAD DUP2 MSTORE SWAP1 PUSH1 0x1 ADD SWAP1 PUSH1 0x20 ADD DUP1 DUP4 GT PUSH2 0x289 JUMPI DUP3 SWAP1 SUB PUSH1 0x1F AND DUP3 ADD SWAP2 JUMPDEST POP POP POP POP POP DUP2 MSTORE PUSH1 0x20 ADD PUSH1 0x2 DUP3 ADD SLOAD DUP2 MSTORE POP POP DUP2 MSTORE PUSH1 0x20 ADD SWAP1 PUSH1 0x1 ADD SWAP1 PUSH2 0x1AA JUMP JUMPDEST POP POP POP POP SWAP1 POP SWAP1 JUMP JUMPDEST PUSH0 PUSH1 0x40 MLOAD DUP1 PUSH1 0x60 ADD PUSH1 0x40 MSTORE DUP1 CALLER PUSH20 0xFFFFFFFFFFFFFFFFFFFFFFFFFFFFFFFFFFFFFFFF AND DUP2 MSTORE PUSH1 0x20 ADD DUP5 DUP5 DUP1 DUP1 PUSH1 0x1F ADD PUSH1 0x20 DUP1 SWAP2 DIV MUL PUSH1 0x20 ADD PUSH1 0x40 MLOAD SWAP1 DUP2 ADD PUSH1 0x40 MSTORE DUP1 SWAP4 SWAP3 SWAP2 SWAP1 DUP2 DUP2 MSTORE PUSH1 0x20 ADD DUP4 DUP4 DUP1 DUP3 DUP5 CALLDATACOPY PUSH0 DUP2 DUP5 ADD MSTORE PUSH1 0x1F NOT PUSH1 0x1F DUP3 ADD AND SWAP1 POP DUP1 DUP4 ADD SWAP3 POP POP POP POP POP POP POP DUP2 MSTORE PUSH1 0x20 ADD TIMESTAMP DUP2 MSTORE POP SWAP1 POP PUSH0 DUP2 SWAP1 DUP1 PUSH1 0x1 DUP2 SLOAD ADD DUP1 DUP3 SSTORE DUP1 SWAP2 POP POP PUSH1 0x1 SWAP1 SUB SWAP1 PUSH0 MSTORE PUSH1 0x20 PUSH0 KECCAK256 SWAP1 PUSH1 0x3 MUL ADD PUSH0 SWAP1 SWAP2 SWAP1 SWAP2 SWAP1 SWAP2 POP PUSH0 DUP3 ADD MLOAD DUP2 PUSH0 ADD PUSH0 PUSH2 0x100 EXP DUP2 SLOAD DUP2 PUSH20 0xFFFFFFFFFFFFFFFFFFFFFFFFFFFFFFFFFFFFFFFF MUL NOT AND SWAP1 DUP4 PUSH20 0xFFFFFFFFFFFFFFFFFFFFFFFFFFFFFFFFFFFFFFFF AND MUL OR SWAP1 SSTORE POP PUSH1 0x20 DUP3 ADD MLOAD DUP2 PUSH1 0x1 ADD SWAP1 DUP2 PUSH2 0x3C9 SWAP2 SWAP1 PUSH2 0x9B6 JUMP JUMPDEST POP PUSH1 0x40 DUP3 ADD MLOAD DUP2 PUSH1 0x2 ADD SSTORE POP POP POP POP POP JUMP JUMPDEST PUSH0 DUP1 REVERT JUMPDEST PUSH0 DUP1 REVERT JUMPDEST PUSH0 DUP2 SWAP1 POP SWAP2 SWAP1 POP JUMP JUMPDEST PUSH2 0x3F5 DUP2 PUSH2 0x3E3 JUMP JUMPDEST DUP2 EQ PUSH2 0x3FF JUMPI PUSH0 DUP1 REVERT JUMPDEST POP JUMP JUMPDEST PUSH0 DUP2 CALLDATALOAD SWAP1 POP PUSH2 0x410 DUP2 PUSH2 0x3EC JUMP JUMPDEST SWAP3 SWAP2 POP POP JUMP JUMPDEST PUSH0 PUSH1 0x20 DUP3 DUP5 SUB SLT ISZERO PUSH2 0x42B JUMPI PUSH2 0x42A PUSH2 0x3DB JUMP JUMPDEST JUMPDEST PUSH0 PUSH2 0x438 DUP5 DUP3 DUP6 ADD PUSH2 0x402 JUMP JUMPDEST SWAP2 POP POP SWAP3 SWAP2 POP POP JUMP JUMPDEST PUSH0 PUSH20 0xFFFFFFFFFFFFFFFFFFFFFFFFFFFFFFFFFFFFFFFF DUP3 AND SWAP1 POP SWAP2 SWAP1 POP JUMP JUMPDEST PUSH0 PUSH2 0x46A DUP3 PUSH2 0x441 JUMP JUMPDEST SWAP1 POP SWAP2 SWAP1 POP JUMP JUMPDEST PUSH2 0x47A DUP2 PUSH2 0x460 JUMP JUMPDEST DUP3 MSTORE POP POP JUMP JUMPDEST PUSH0 DUP2 MLOAD SWAP1 POP SWAP2 SWAP1 POP JUMP JUMPDEST PUSH0 DUP3 DUP3 MSTORE PUSH1 0x20 DUP3 ADD SWAP1 POP SWAP3 SWAP2 POP POP JUMP JUMPDEST PUSH0 JUMPDEST DUP4 DUP2 LT ISZERO PUSH2 0x4B7 JUMPI DUP1 DUP3 ADD MLOAD DUP2 DUP5 ADD MSTORE PUSH1 0x20 DUP2 ADD SWAP1 POP PUSH2 0x49C JUMP JUMPDEST PUSH0 DUP5 DUP5 ADD MSTORE POP POP POP POP JUMP JUMPDEST PUSH0 PUSH1 0x1F NOT PUSH1 0x1F DUP4 ADD AND SWAP1 POP SWAP2 SWAP1 POP JUMP JUMPDEST PUSH0 PUSH2 0x4DC DUP3 PUSH2 0x480 JUMP JUMPDEST PUSH2 0x4E6 DUP2 DUP6 PUSH2 0x48A JUMP JUMPDEST SWAP4 POP PUSH2 0x4F6 DUP2 DUP6 PUSH1 0x20 DUP7 ADD PUSH2 0x49A JUMP JUMPDEST PUSH2 0x4FF DUP2 PUSH2 0x4C2 JUMP JUMPDEST DUP5 ADD SWAP2 POP POP SWAP3 SWAP2 POP POP JUMP JUMPDEST PUSH2 0x513 DUP2 PUSH2 0x3E3 JUMP JUMPDEST DUP3 MSTORE POP POP JUMP JUMPDEST PUSH0 PUSH1 0x60 DUP3 ADD SWAP1 POP PUSH2 0x52C PUSH0 DUP4 ADD DUP7 PUSH2 0x471 JUMP JUMPDEST DUP2 DUP2 SUB PUSH1 0x20 DUP4 ADD MSTORE PUSH2 0x53E DUP2 DUP6 PUSH2 0x4D2 JUMP JUMPDEST SWAP1 POP PUSH2 0x54D PUSH1 0x40 DUP4 ADD DUP5 PUSH2 0x50A JUMP JUMPDEST SWAP5 SWAP4 POP POP POP POP JUMP JUMPDEST PUSH0 DUP2 MLOAD SWAP1 POP SWAP2 SWAP1 POP JUMP JUMPDEST PUSH0 DUP3 DUP3 MSTORE PUSH1 0x20 DUP3 ADD SWAP1 POP SWAP3 SWAP2 POP POP JUMP JUMPDEST PUSH0 DUP2 SWAP1 POP PUSH1 0x20 DUP3 ADD SWAP1 POP SWAP2 SWAP1 POP JUMP JUMPDEST PUSH2 0x587 DUP2 PUSH2 0x460 JUMP JUMPDEST DUP3 MSTORE POP POP JUMP JUMPDEST PUSH0 DUP3 DUP3 MSTORE PUSH1 0x20 DUP3 ADD SWAP1 POP SWAP3 SWAP2 POP POP JUMP JUMPDEST PUSH0 PUSH2 0x5A7 DUP3 PUSH2 0x480 JUMP JUMPDEST PUSH2 0x5B1 DUP2 DUP6 PUSH2 0x58D JUMP JUMPDEST SWAP4 POP PUSH2 0x5C1 DUP2 DUP6 PUSH1 0x20 DUP7 ADD PUSH2 0x49A JUMP JUMPDEST PUSH2 0x5CA DUP2 PUSH2 0x4C2 JUMP JUMPDEST DUP5 ADD SWAP2 POP POP SWAP3 SWAP2 POP POP JUMP JUMPDEST PUSH2 0x5DE DUP2 PUSH2 0x3E3 JUMP JUMPDEST DUP3 MSTORE POP POP JUMP JUMPDEST PUSH0 PUSH1 0x60 DUP4 ADD PUSH0 DUP4 ADD MLOAD PUSH2 0x5F9 PUSH0 DUP7 ADD DUP3 PUSH2 0x57E JUMP JUMPDEST POP PUSH1 0x20 DUP4 ADD MLOAD DUP5 DUP3 SUB PUSH1 0x20 DUP7 ADD MSTORE PUSH2 0x611 DUP3 DUP3 PUSH2 0x59D JUMP JUMPDEST SWAP2 POP POP PUSH1 0x40 DUP4 ADD MLOAD PUSH2 0x626 PUSH1 0x40 DUP7 ADD DUP3 PUSH2 0x5D5 JUMP JUMPDEST POP DUP1 SWAP2 POP POP SWAP3 SWAP2 POP POP JUMP JUMPDEST PUSH0 PUSH2 0x63C DUP4 DUP4 PUSH2 0x5E4 JUMP JUMPDEST SWAP1 POP SWAP3 SWAP2 POP POP JUMP JUMPDEST PUSH0 PUSH1 0x20 DUP3 ADD SWAP1 POP SWAP2 SWAP1 POP JUMP JUMPDEST PUSH0 PUSH2 0x65A DUP3 PUSH2 0x555 JUMP JUMPDEST PUSH2 0x664 DUP2 DUP6 PUSH2 0x55F JUMP JUMPDEST SWAP4 POP DUP4 PUSH1 0x20 DUP3 MUL DUP6 ADD PUSH2 0x676 DUP6 PUSH2 0x56F JUMP JUMPDEST DUP1 PUSH0 JUMPDEST DUP6 DUP2 LT ISZERO PUSH2 0x6B1 JUMPI DUP5 DUP5 SUB DUP10 MSTORE DUP2 MLOAD PUSH2 0x692 DUP6 DUP3 PUSH2 0x631 JUMP JUMPDEST SWAP5 POP PUSH2 0x69D DUP4 PUSH2 0x644 JUMP JUMPDEST SWAP3 POP PUSH1 0x20 DUP11 ADD SWAP10 POP POP PUSH1 0x1 DUP2 ADD SWAP1 POP PUSH2 0x679 JUMP JUMPDEST POP DUP3 SWAP8 POP DUP8 SWAP6 POP POP POP POP POP POP SWAP3 SWAP2 POP POP JUMP JUMPDEST PUSH0 PUSH1 0x20 DUP3 ADD SWAP1 POP DUP2 DUP2 SUB PUSH0 DUP4 ADD MSTORE PUSH2 0x6DB DUP2 DUP5 PUSH2 0x650 JUMP JUMPDEST SWAP1 POP SWAP3 SWAP2 POP POP JUMP JUMPDEST PUSH0 DUP1 REVERT JUMPDEST PUSH0 DUP1 REVERT JUMPDEST PUSH0 DUP1 REVERT JUMPDEST PUSH0 DUP1 DUP4 PUSH1 0x1F DUP5 ADD SLT PUSH2 0x704 JUMPI PUSH2 0x703 PUSH2 0x6E3 JUMP JUMPDEST JUMPDEST DUP3 CALLDATALOAD SWAP1 POP PUSH8 0xFFFFFFFFFFFFFFFF DUP2 GT ISZERO PUSH2 0x721 JUMPI PUSH2 0x720 PUSH2 0x6E7 JUMP JUMPDEST JUMPDEST PUSH1 0x20 DUP4 ADD SWAP2 POP DUP4 PUSH1 0x1 DUP3 MUL DUP4 ADD GT ISZERO PUSH2 0x73D JUMPI PUSH2 0x73C PUSH2 0x6EB JUMP JUMPDEST JUMPDEST SWAP3 POP SWAP3 SWAP1 POP JUMP JUMPDEST PUSH0 DUP1 PUSH1 0x20 DUP4 DUP6 SUB SLT ISZERO PUSH2 0x75A JUMPI PUSH2 0x759 PUSH2 0x3DB JUMP JUMPDEST JUMPDEST PUSH0 DUP4 ADD CALLDATALOAD PUSH8 0xFFFFFFFFFFFFFFFF DUP2 GT ISZERO PUSH2 0x777 JUMPI PUSH2 0x776 PUSH2 0x3DF JUMP JUMPDEST JUMPDEST PUSH2 0x783 DUP6 DUP3 DUP7 ADD PUSH2 0x6EF JUMP JUMPDEST SWAP3 POP SWAP3 POP POP SWAP3 POP SWAP3 SWAP1 POP JUMP JUMPDEST PUSH32 0x4E487B7100000000000000000000000000000000000000000000000000000000 PUSH0 MSTORE PUSH1 0x22 PUSH1 0x4 MSTORE PUSH1 0x24 PUSH0 REVERT JUMPDEST PUSH0 PUSH1 0x2 DUP3 DIV SWAP1 POP PUSH1 0x1 DUP3 AND DUP1 PUSH2 0x7D3 JUMPI PUSH1 0x7F DUP3 AND SWAP2 POP JUMPDEST PUSH1 0x20 DUP3 LT DUP2 SUB PUSH2 0x7E6 JUMPI PUSH2 0x7E5 PUSH2 0x78F JUMP JUMPDEST JUMPDEST POP SWAP2 SWAP1 POP JUMP JUMPDEST PUSH32 0x4E487B7100000000000000000000000000000000000000000000000000000000 PUSH0 MSTORE PUSH1 0x41 PUSH1 0x4 MSTORE PUSH1 0x24 PUSH0 REVERT JUMPDEST PUSH0 DUP2 SWAP1 POP DUP2 PUSH0 MSTORE PUSH1 0x20 PUSH0 KECCAK256 SWAP1 POP SWAP2 SWAP1 POP JUMP JUMPDEST PUSH0 PUSH1 0x20 PUSH1 0x1F DUP4 ADD DIV SWAP1 POP SWAP2 SWAP1 POP JUMP JUMPDEST PUSH0 DUP3 DUP3 SHL SWAP1 POP SWAP3 SWAP2 POP POP JUMP JUMPDEST PUSH0 PUSH1 0x8 DUP4 MUL PUSH2 0x875 PUSH32 0xFFFFFFFFFFFFFFFFFFFFFFFFFFFFFFFFFFFFFFFFFFFFFFFFFFFFFFFFFFFFFFFF DUP3 PUSH2 0x83A JUMP JUMPDEST PUSH2 0x87F DUP7 DUP4 PUSH2 0x83A JUMP JUMPDEST SWAP6 POP DUP1 NOT DUP5 AND SWAP4 POP DUP1 DUP7 AND DUP5 OR SWAP3 POP POP POP SWAP4 SWAP3 POP POP POP JUMP JUMPDEST PUSH0 DUP2 SWAP1 POP SWAP2 SWAP1 POP JUMP JUMPDEST PUSH0 PUSH2 0x8BA PUSH2 0x8B5 PUSH2 0x8B0 DUP5 PUSH2 0x3E3 JUMP JUMPDEST PUSH2 0x897 JUMP JUMPDEST PUSH2 0x3E3 JUMP JUMPDEST SWAP1 POP SWAP2 SWAP1 POP JUMP JUMPDEST PUSH0 DUP2 SWAP1 POP SWAP2 SWAP1 POP JUMP JUMPDEST PUSH2 0x8D3 DUP4 PUSH2 0x8A0 JUMP JUMPDEST PUSH2 0x8E7 PUSH2 0x8DF DUP3 PUSH2 0x8C1 JUMP JUMPDEST DUP5 DUP5 SLOAD PUSH2 0x846 JUMP JUMPDEST DUP3 SSTORE POP POP POP POP JUMP JUMPDEST PUSH0 SWAP1 JUMP JUMPDEST PUSH2 0x8FB PUSH2 0x8EF JUMP JUMPDEST PUSH2 0x906 DUP2 DUP5 DUP5 PUSH2 0x8CA JUMP JUMPDEST POP POP POP JUMP JUMPDEST JUMPDEST DUP2 DUP2 LT ISZERO PUSH2 0x929 JUMPI PUSH2 0x91E PUSH0 DUP3 PUSH2 0x8F3 JUMP JUMPDEST PUSH1 0x1 DUP2 ADD SWAP1 POP PUSH2 0x90C JUMP JUMPDEST POP POP JUMP JUMPDEST PUSH1 0x1F DUP3 GT ISZERO PUSH2 0x96E JUMPI PUSH2 0x93F DUP2 PUSH2 0x819 JUMP JUMPDEST PUSH2 0x948 DUP5 PUSH2 0x82B JUMP JUMPDEST DUP2 ADD PUSH1 0x20 DUP6 LT ISZERO PUSH2 0x957 JUMPI DUP2 SWAP1 POP JUMPDEST PUSH2 0x96B PUSH2 0x963 DUP6 PUSH2 0x82B JUMP JUMPDEST DUP4 ADD DUP3 PUSH2 0x90B JUMP JUMPDEST POP POP JUMPDEST POP POP POP JUMP JUMPDEST PUSH0 DUP3 DUP3 SHR SWAP1 POP SWAP3 SWAP2 POP POP JUMP JUMPDEST PUSH0 PUSH2 0x98E PUSH0 NOT DUP5 PUSH1 0x8 MUL PUSH2 0x973 JUMP JUMPDEST NOT DUP1 DUP4 AND SWAP2 POP POP SWAP3 SWAP2 POP POP JUMP JUMPDEST PUSH0 PUSH2 0x9A6 DUP4 DUP4 PUSH2 0x97F JUMP JUMPDEST SWAP2 POP DUP3 PUSH1 0x2 MUL DUP3 OR SWAP1 POP SWAP3 SWAP2 POP POP JUMP JUMPDEST PUSH2 0x9BF DUP3 PUSH2 0x480 JUMP JUMPDEST PUSH8 0xFFFFFFFFFFFFFFFF DUP2 GT ISZERO PUSH2 0x9D8 JUMPI PUSH2 0x9D7 PUSH2 0x7EC JUMP JUMPDEST JUMPDEST PUSH2 0x9E2 DUP3 SLOAD PUSH2 0x7BC JUMP JUMPDEST PUSH2 0x9ED DUP3 DUP3 DUP6 PUSH2 0x92D JUMP JUMPDEST PUSH0 PUSH1 0x20 SWAP1 POP PUSH1 0x1F DUP4 GT PUSH1 0x1 DUP2 EQ PUSH2 0xA1E JUMPI PUSH0 DUP5 ISZERO PUSH2 0xA0C JUMPI DUP3 DUP8 ADD MLOAD SWAP1 POP JUMPDEST PUSH2 0xA16 DUP6 DUP3 PUSH2 0x99B JUMP JUMPDEST DUP7 SSTORE POP PUSH2 0xA7D JUMP JUMPDEST PUSH1 0x1F NOT DUP5 AND PUSH2 0xA2C DUP7 PUSH2 0x819 JUMP JUMPDEST PUSH0 JUMPDEST DUP3 DUP2 LT ISZERO PUSH2 0xA53 JUMPI DUP5 DUP10 ADD MLOAD DUP3 SSTORE PUSH1 0x1 DUP3 ADD SWAP2 POP PUSH1 0x20 DUP6 ADD SWAP5 POP PUSH1 0x20 DUP2 ADD SWAP1 POP PUSH2 0xA2E JUMP JUMPDEST DUP7 DUP4 LT ISZERO PUSH2 0xA70 JUMPI DUP5 DUP10 ADD MLOAD PUSH2 0xA6C PUSH1 0x1F DUP10 AND DUP3 PUSH2 0x97F JUMP JUMPDEST DUP4 SSTORE POP JUMPDEST PUSH1 0x1 PUSH1 0x2 DUP9 MUL ADD DUP9 SSTORE POP POP POP JUMPDEST POP POP POP POP POP POP JUMP INVALID LOG2 PUSH5 0x6970667358 0x22 SLT KECCAK256 PUSH3 0x19B2A2 0x23 POP 0xC 0xEA PUSH31 0xFE33BD9DA3FCC7D5DF7D6060C07D53C29799627E16C66664736F6C63430008 XOR STOP CALLER "
				},
				"gasEstimates": {
					"creation": {
						"codeDepositCost": "549400",
						"executionCost": "579",
						"totalCost": "549979"
					},
					"external": {
						"comments(uint256)": "infinite",
						"getComments()": "infinite",
						"sendComment(string)": "infinite"
					}
				},
				"methodIdentifiers": {
					"comments(uint256)": "8ebb4c15",
					"getComments()": "91f3410c",
					"sendComment(string)": "b741aa51"
				}
			},
			"storageLayout": {
				"storage": [
					{
						"astId": 12,
						"contract": "contracts/contract2/comments.sol:Comment",
						"label": "comments",
						"offset": 0,
						"slot": "0",
						"type": "t_array(t_struct(User)8_storage)dyn_storage"
					}
				],
				"types": {
					"t_address": {
						"encoding": "inplace",
						"label": "address",
						"numberOfBytes": "20"
					},
					"t_array(t_struct(User)8_storage)dyn_storage": {
						"base": "t_struct(User)8_storage",
						"encoding": "dynamic_array",
						"label": "struct Comment.User[]",
						"numberOfBytes": "32"
					},
					"t_string_storage": {
						"encoding": "bytes",
						"label": "string",
						"numberOfBytes": "32"
					},
					"t_struct(User)8_storage": {
						"encoding": "inplace",
						"label": "struct Comment.User",
						"members": [
							{
								"astId": 3,
								"contract": "contracts/contract2/comments.sol:Comment",
								"label": "addr",
								"offset": 0,
								"slot": "0",
								"type": "t_address"
							},
							{
								"astId": 5,
								"contract": "contracts/contract2/comments.sol:Comment",
								"label": "comment",
								"offset": 0,
								"slot": "1",
								"type": "t_string_storage"
							},
							{
								"astId": 7,
								"contract": "contracts/contract2/comments.sol:Comment",
								"label": "timestamp",
								"offset": 0,
								"slot": "2",
								"type": "t_uint256"
							}
						],
						"numberOfBytes": "96"
					},
					"t_uint256": {
						"encoding": "inplace",
						"label": "uint256",
						"numberOfBytes": "32"
					}
				}
			},
			"userdoc": {
				"kind": "user",
				"methods": {},
				"version": 1
			}
		}
	}
}